:100000000C9446000C9465000C9465000C946500FB
:100010000C9465000C9467000C9465000C946500CA
:100020000C9465000C9465000C9465000C946500BC
:100030000C9465000C9465000C9465000C946500AC
:100040000C9465000C9465000C94F8220C946500E7
:100050000C9465000C9465000C9465000C9465008C
:100060000C9465000C9465000C9465000C9465007C
:100070000C9465000C9465000C944A230C94650064
:100080000C9465000C9465000C94650011241FBE4F
:10009000CFEFD0E1DEBFCDBF11E0A0E0B1E0E8E1FD
:1000A000FCE500E00BBF02C007900D92A83BB10732
:1000B000D9F711E0A8EBB1E001C01D92A83DB1074E
:1000C000E1F70E94E3220C940A2E0C9400001F9288
:1000D0000F920FB60F9200905B000F9211242F9396
:1000E0003F934F935F936F937F938F939F93AF93C0
:1000F000BF93EF93FF93DF93CF93CDB7DEB76C97AA
:10010000DEBFCDBF80E091E00E94072A0E94450B30
:1001100080E090E0A0EAB1E4898F9A8FAB8FBC8F2A
:10012000698D7A8D8B8D9C8D20E030E04AE755E417
:100130000E94EE25DC01CB018D8B9E8BAF8BB88F9F
:100140006D897E898F89988D20E030E040E85FE3FB
:100150000E94482788232CF481E090E09C8B8B8BB5
:100160003FC06D897E898F89988D20E03FEF4FE7F2
:1001700057E40E94E82618164CF5698D7A8D8B8D10
:100180009C8D20E030E040E251E40E94EE25DC014D
:10019000CB01BC01CD010E941824DC01CB019C8B5A
:1001A0008B8B0FC080E991E09A8B898B89899A8922
:1001B0000197F1F79A8B898B8B899C8901979C8B8E
:1001C0008B8B8B899C89009769F714C06D897E8918
:1001D0008F89988D0E941824DC01CB019C8B8B8B1E
:1001E0008B899C89988B8F878F8598890197F1F7E8
:1001F000988B8F87E1E2F0E08081882F90E080711A
:1002000090700097B9F380E090E0A0EAB1E48B87AA
:100210009C87AD87BE876B857C858D859E8520E01C
:1002200030E04AE755E40E94EE25DC01CB018F83E4
:100230009887A987BA876F81788589859A8520E014
:1002400030E040E85FE30E94482788232CF481E0F7
:1002500090E09E838D833FC06F81788589859A85E4
:1002600020E03FEF4FE757E40E94E82618164CF5D0
:100270006B857C858D859E8520E030E040E251E4F1
:100280000E94EE25DC01CB01BC01CD010E941824A7
:10029000DC01CB019E838D830FC080E991E09C83BC
:1002A0008B838B819C810197F1F79C838B838D815C
:1002B0009E8101979E838D838D819E81009769F732
:1002C00014C06F81788589859A850E941824DC0185
:1002D000CB019E838D838D819E819A8389838981C1
:1002E0009A810197F1F79A838983E8E5F0E080E14C
:1002F00080836C96DEBFCDBFCF91DF91FF91EF91F0
:10030000BF91AF919F918F917F916F915F914F912D
:100310003F912F910F9000925B000F900FBE0F90B6
:100320001F901895DF93CF93CDB7DEB7CF91DF91B4
:100330000895DF93CF9300D00F92CDB7DEB78983B6
:100340007B836A8389818A3029F48DE060E070E0E4
:100350000E949901EBE9F0E08081882F90E08072A3
:1003600090700097B9F3ECE9F0E08981808380E038
:1003700090E00F900F900F90CF91DF910895DF9351
:10038000CF9300D0CDB7DEB79A838983EBE9F0E055
:1003900080818823DCF7ECE9F0E08081882F90E011
:1003A0000F900F90CF91DF910895DF93CF93CDB74A
:1003B000DEB7AA970FB6F894DEBF0FBECDBF00D050
:1003C000EDB7FEB731968BE091E0918380830E9478
:1003D000F5290F900F90ECE2F0E086E5808380E055
:1003E00090E0A0E8BFE38FA398A7A9A7BAA76FA141
:1003F00078A589A59AA520E030E04AE755E40E9457
:10040000EE25DC01CB018BA39CA3ADA3BEA36BA106
:100410007CA18DA19EA120E030E040E85FE30E9436
:10042000482788232CF481E090E09AA389A33FC059
:100430006BA17CA18DA19EA120E03FEF4FE757E487
:100440000E94E82618164CF56FA178A589A59AA5F3
:1004500020E030E040E251E40E94EE25DC01CB01D7
:10046000BC01CD010E941824DC01CB019AA389A311
:100470000FC080E991E098A38F8F8F8D98A101978D
:10048000F1F798A38F8F89A19AA101979AA389A3C5
:1004900089A19AA1009769F714C06BA17CA18DA1D5
:1004A0009EA10E941824DC01CB019AA389A389A1F3
:1004B0009AA19E8F8D8F8D8D9E8D0197F1F79E8FC6
:1004C0008D8FECE2F0E0108280E090E0A0E8BFE3E6
:1004D000898F9A8FAB8FBC8F698D7A8D8B8D9C8D18
:1004E00020E030E04AE755E40E94EE25DC01CB0134
:1004F0008D8B9E8BAF8BB88F6D897E898F89988D00
:1005000020E030E040E85FE30E94482788232CF495
:1005100081E090E09C8B8B8B3FC06D897E898F89B9
:10052000988D20E03FEF4FE757E40E94E826181629
:100530004CF5698D7A8D8B8D9C8D20E030E040E20A
:1005400051E40E94EE25DC01CB01BC01CD010E94EB
:100550001824DC01CB019C8B8B8B0FC080E991E0D0
:100560009A8B898B89899A890197F1F79A8B898B64
:100570008B899C8901979C8B8B8B8B899C8900979D
:1005800069F714C06D897E898F89988D0E9418241F
:10059000DC01CB019C8B8B8B8B899C89988B8F8703
:1005A0008F8598890197F1F7988B8F87ECE2F0E0BF
:1005B00086E2808380E090E0A0E8BFE38B879C87A1
:1005C000AD87BE876B857C858D859E8520E030E07C
:1005D0004AE755E40E94EE25DC01CB018F83988722
:1005E000A987BA876F81788589859A8520E030E070
:1005F00040E85FE30E94482788232CF481E090E0E4
:100600009E838D833FC06F81788589859A8520E0A0
:100610003FEF4FE757E40E94E82618164CF56B852C
:100620007C858D859E8520E030E040E251E40E948B
:10063000EE25DC01CB01BC01CD010E941824DC01B8
:10064000CB019E838D830FC080E991E09C838B83D7
:100650008B819C810197F1F79C838B838D819E8197
:1006600001979E838D838D819E81009769F714C0C9
:100670006F81788589859A850E941824DC01CB01D9
:100680009E838D838D819E819A83898389819A81BE
:100690000197F1F79A838983ECE2F0E01082AA9641
:1006A0000FB6F894DEBF0FBECDBFCF91DF91089596
:1006B0000F931F93DF93CF93CDB7DEB7C057D040D2
:1006C0000FB6F894DEBF0FBECDBF00D0EDB7FEB7BA
:1006D000319685E191E0918380830E94F5290F9006
:1006E0000F90ECE2F0E086E58083FE01E359FF4FD6
:1006F00080E090E0A0E8BFE380839183A283B3838E
:100700008E0107591F4FFE01E359FF4F6081718130
:100710008281938120E030E04AE755E40E94EE2593
:10072000DC01CB01F80180839183A283B383FE01B6
:10073000E759FF4F608171818281938120E030E031
:1007400040E85FE30E944827882344F4FE01E9590A
:10075000FF4F81E090E09183808364C0FE01E75900
:10076000FF4F608171818281938120E03FEF4FE7ED
:1007700057E40E94E82618160CF043C0FE01E35926
:10078000FF4F608171818281938120E030E040E2FF
:1007900051E40E94EE25DC01CB018E0109591F4F67
:1007A000BC01CD010E941824DC01CB01F80191832A
:1007B00080831FC0FE01EB59FF4F80E991E09183D8
:1007C0008083FE01EB59FF4F808191810197F1F702
:1007D000FE01EB59FF4F91838083DE01A959BF4F82
:1007E000FE01E959FF4F80819181019711969C93F9
:1007F0008E93FE01E959FF4F808191810097D1F6D8
:1008000027C08E0109591F4FFE01E759FF4F608134
:100810007181828193810E941824DC01CB01F8014F
:1008200091838083DE01AD59BF4FFE01E959FF4F2F
:10083000808191818D939C93FE01ED59FF4F8081C2
:1008400091810197F1F7FE01ED59FF4F918380836C
:10085000ECE2F0E01082FE01E15AFF4F80E090E010
:10086000A0E8BFE380839183A283B3838E01055AFE
:100870001F4FFE01E15AFF4F608171818281938198
:1008800020E030E04AE755E40E94EE25DC01CB0190
:10089000F80180839183A283B383FE01E55AFF4F61
:1008A000608171818281938120E030E040E85FE3E4
:1008B0000E944827882344F4FE01E75AFF4F81E055
:1008C00090E09183808364C0FE01E55AFF4F608110
:1008D00071818281938120E03FEF4FE757E40E94CE
:1008E000E82618160CF043C0FE01E15AFF4F608164
:1008F00071818281938120E030E040E251E40E94E6
:10090000EE25DC01CB018E01075A1F4FBC01CD0142
:100910000E941824DC01CB01F801918380831FC061
:10092000FE01E95AFF4F80E991E091838083FE0147
:10093000E95AFF4F808191810197F1F7FE01E95A51
:10094000FF4F91838083DE01A75ABF4FFE01E75A14
:10095000FF4F80819181019711969C938E93FE01A8
:10096000E75AFF4F808191810097D1F627C08E0111
:10097000075A1F4FFE01E55AFF4F60817181828146
:1009800093810E941824DC01CB01F80191838083BC
:10099000DE01AB5ABF4FFE01E75AFF4F80819181C4
:1009A0008D939C93FE01EB5AFF4F808191810197BB
:1009B000F1F7FE01EB5AFF4F91838083ECE2F0E008
:1009C00081E38083FE01EF5AFF4F80E090E0A0E8D2
:1009D000BFE380839183A283B3838E01035B1F4FA8
:1009E000FE01EF5AFF4F608171818281938120E087
:1009F00030E04AE755E40E94EE25DC01CB01F80126
:100A000080839183A283B383FE01E35BFF4F608108
:100A100071818281938120E030E040E85FE30E94B1
:100A20004827882344F4FE01E55BFF4F81E090E016
:100A30009183808364C0FE01E35BFF4F608171811D
:100A40008281938120E03FEF4FE757E40E94E82640
:100A500018160CF043C0FE01EF5AFF4F6081718100
:100A60008281938120E030E040E251E40E94EE2553
:100A7000DC01CB018E01055B1F4FBC01CD010E9443
:100A80001824DC01CB01F801918380831FC0FE0193
:100A9000E75BFF4F80E991E091838083FE01E75B94
:100AA000FF4F808191810197F1F7FE01E75BFF4FD6
:100AB00091838083DE01A55BBF4FFE01E55BFF4FA5
:100AC00080819181019711969C938E93FE01E55B45
:100AD000FF4F808191810097D1F627C08E01055B81
:100AE0001F4FFE01E35BFF4F608171818281938123
:100AF0000E941824DC01CB01F80191838083DE0180
:100B0000A95BBF4FFE01E55BFF4F808191818D9313
:100B10009C93FE01E95BFF4F808191810197F1F782
:100B2000FE01E95BFF4F91838083ECE2F0E085E01A
:100B30008083FE01ED5BFF4F80E090E0A0E8BFE323
:100B400080839183A283B3838E01015C1F4FFE01DA
:100B5000ED5BFF4F608171818281938120E030E005
:100B60004AE755E40E94EE25DC01CB01F8018083C1
:100B70009183A283B383FE01FF966081718182819C
:100B8000938120E030E040E85FE30E94482788231B
:100B90002CF481E090E09EAF8DAF46C0FE01FF9641
:100BA000608171818281938120E03FEF4FE757E4BC
:100BB0000E94E826181664F5FE01ED5BFF4F608188
:100BC00071818281938120E030E040E251E40E9413
:100BD000EE25DC01CB01BC01CD010E941824DC0113
:100BE000CB019EAF8DAF0FC080E991E09CAF8BAF82
:100BF0008BAD9CAD0197F1F79CAF8BAF8DAD9EADEA
:100C000001979EAF8DAF8DAD9EAD009769F716C071
:100C1000FE01FF9660817181828193810E94182478
:100C2000DC01CB019EAF8DAF8DAD9EAD9AAF89AF8C
:100C300089AD9AAD0197F1F79AAF89AFECE2F0E098
:100C400084E0808380E090E0A0E8BFE38DAB9EABC2
:100C5000AFABB8AF6DA97EA98FA998AD20E030E009
:100C60004AE755E40E94EE25DC01CB0189AB9AAB43
:100C7000ABABBCAB69A97AA98BA99CA920E030E0F9
:100C800040E85FE30E94482788232CF481E090E04D
:100C900098AB8FA73FC069A97AA98BA99CA920E02E
:100CA0003FEF4FE757E40E94E82618164CF56DA970
:100CB0007EA98FA998AD20E030E040E251E40E9487
:100CC000EE25DC01CB01BC01CD010E941824DC0122
:100CD000CB0198AB8FA70FC080E991E09EA78DA7AD
:100CE0008DA59EA50197F1F79EA78DA78FA598A921
:100CF000019798AB8FA78FA598A9009769F714C0A3
:100D000069A97AA98BA99CA90E941824DC01CB01AE
:100D100098AB8FA78FA598A99CA78BA78BA59CA5FF
:100D20000197F1F79CA78BA7ECE2F0E081E08083CC
:100D300080E090E0A0E8BFE38FA398A7A9A7BAA797
:100D40006FA178A589A59AA520E030E04AE755E48F
:100D50000E94EE25DC01CB018BA39CA3ADA3BEA317
:100D60006BA17CA18DA19EA120E030E040E85FE373
:100D70000E94482788232CF481E090E09AA389A35D
:100D80003FC06BA17CA18DA19EA120E03FEF4FE76A
:100D900057E40E94E82618164CF56FA178A589A59E
:100DA0009AA520E030E040E251E40E94EE25DC010B
:100DB000CB01BC01CD010E941824DC01CB019AA318
:100DC00089A30FC080E991E098A38F8F8F8D98A1A0
:100DD0000197F1F798A38F8F89A19AA101979AA300
:100DE00089A389A19AA1009769F714C06BA17CA17E
:100DF0008DA19EA10E941824DC01CB019AA389A396
:100E000089A19AA19E8F8D8F8D8D9E8D0197F1F76F
:100E10009E8F8D8FECE2F0E0108280E090E0A0E801
:100E2000BFE3898F9A8FAB8FBC8F698D7A8D8B8D45
:100E30009C8D20E030E04AE755E40E94EE25DC017D
:100E4000CB018D8B9E8BAF8BB88F6D897E898F89FF
:100E5000988D20E030E040E85FE30E944827882337
:100E60002CF481E090E09C8B8B8B3FC06D897E8958
:100E70008F89988D20E03FEF4FE757E40E94E826E6
:100E800018164CF5698D7A8D8B8D9C8D20E030E0A5
:100E900040E251E40E94EE25DC01CB01BC01CD0112
:100EA0000E941824DC01CB019C8B8B8B0FC080E946
:100EB00091E09A8B898B89899A890197F1F79A8BAE
:100EC000898B8B899C8901979C8B8B8B8B899C89C7
:100ED000009769F714C06D897E898F89988D0E946B
:100EE0001824DC01CB019C8B8B8B8B899C89988B84
:100EF0008F878F8598890197F1F7988B8F87ECE220
:100F0000F0E089E1808380E090E0A0E8BFE38B8798
:100F10009C87AD87BE876B857C858D859E8520E00F
:100F200030E04AE755E40E94EE25DC01CB018F83D7
:100F30009887A987BA876F81788589859A8520E007
:100F400030E040E85FE30E94482788232CF481E0EA
:100F500090E09E838D833FC06F81788589859A85D7
:100F600020E03FEF4FE757E40E94E82618164CF5C3
:100F70006B857C858D859E8520E030E040E251E4E4
:100F80000E94EE25DC01CB01BC01CD010E9418249A
:100F9000DC01CB019E838D830FC080E991E09C83AF
:100FA0008B838B819C810197F1F79C838B838D814F
:100FB0009E8101979E838D838D819E81009769F725
:100FC00014C06F81788589859A850E941824DC0178
:100FD000CB019E838D838D819E819A8389838981B4
:100FE0009A810197F1F79A838983ECE2F0E081E13D
:100FF0008083C059DF4F0FB6F894DEBF0FBECDBF60
:10100000CF91DF911F910F9108950F931F93DF935D
:10101000CF93CDB7DEB7C455D0400FB6F894DEBF3E
:101020000FBECDBF00D0EDB7FEB7319680E291E0A4
:10103000918380830E94F5290F900F90ECE2F0E0FD
:1010400086E58083FE01EF5AFF4F80E090E0A0E844
:10105000BFE380839183A283B3838E01035B1F4F21
:10106000FE01EF5AFF4F608171818281938120E000
:1010700030E04AE755E40E94EE25DC01CB01F8019F
:1010800080839183A283B383FE01E35BFF4F608182
:1010900071818281938120E030E040E85FE30E942B
:1010A0004827882344F4FE01E55BFF4F81E090E090
:1010B0009183808364C0FE01E35BFF4F6081718197
:1010C0008281938120E03FEF4FE757E40E94E826BA
:1010D00018160CF043C0FE01EF5AFF4F608171817A
:1010E0008281938120E030E040E251E40E94EE25CD
:1010F000DC01CB018E01055B1F4FBC01CD010E94BD
:101100001824DC01CB01F801918380831FC0FE010C
:10111000E75BFF4F80E991E091838083FE01E75B0D
:10112000FF4F808191810197F1F7FE01E75BFF4F4F
:1011300091838083DE01A55BBF4FFE01E55BFF4F1E
:1011400080819181019711969C938E93FE01E55BBE
:10115000FF4F808191810097D1F627C08E01055BFA
:101160001F4FFE01E35BFF4F60817181828193819C
:101170000E941824DC01CB01F80191838083DE01F9
:10118000A95BBF4FFE01E55BFF4F808191818D938D
:101190009C93FE01E95BFF4F808191810197F1F7FC
:1011A000FE01E95BFF4F91838083ECE2F0E0108267
:1011B000FE01ED5BFF4F80E090E0A0E8BFE380839D
:1011C0009183A283B3838E01015C1F4FFE01ED5B0F
:1011D000FF4F608171818281938120E030E04AE796
:1011E00055E40E94EE25DC01CB01F8018083918358
:1011F000A283B383FE01FF96608171818281938116
:1012000020E030E040E85FE30E94482788232CF488
:1012100081E090E09EAF8DAF46C0FE01FF966081F9
:1012200071818281938120E03FEF4FE757E40E9474
:10123000E826181664F5FE01ED5BFF4F60817181B1
:101240008281938120E030E040E251E40E94EE256B
:10125000DC01CB01BC01CD010E941824DC01CB01D3
:101260009EAF8DAF0FC080E991E09CAF8BAF8BAD8F
:101270009CAD0197F1F79CAF8BAF8DAD9EAD019703
:101280009EAF8DAF8DAD9EAD009769F716C0FE0184
:10129000FF9660817181828193810E941824DC0114
:1012A000CB019EAF8DAF8DAD9EAD9AAF89AF89ADAD
:1012B0009AAD0197F1F79AAF89AFECE2F0E084E2E2
:1012C000808380E090E0A0E8BFE38DAB9EABAFAB46
:1012D000B8AF6DA97EA98FA998AD20E030E04AE7AC
:1012E00055E40E94EE25DC01CB0189AB9AABABAB98
:1012F000BCAB69A97AA98BA99CA920E030E040E8A1
:101300005FE30E94482788232CF481E090E098ABAB
:101310008FA73FC069A97AA98BA99CA920E03FEFBC
:101320004FE757E40E94E82618164CF56DA97EA9F0
:101330008FA998AD20E030E040E251E40E94EE2514
:10134000DC01CB01BC01CD010E941824DC01CB01E2
:1013500098AB8FA70FC080E991E09EA78DA78DA5C0
:101360009EA50197F1F79EA78DA78FA598A9019734
:1013700098AB8FA78FA598A9009769F714C069A9A2
:101380007AA98BA99CA90E941824DC01CB0198ABF7
:101390008FA78FA598A99CA78BA78BA59CA5019724
:1013A000F1F79CA78BA7ECE2F0E083E0808380E07C
:1013B00090E0A0E8BFE38FA398A7A9A7BAA76FA161
:1013C00078A589A59AA520E030E04AE755E40E9477
:1013D000EE25DC01CB018BA39CA3ADA3BEA36BA127
:1013E0007CA18DA19EA120E030E040E85FE30E9457
:1013F000482788232CF481E090E09AA389A33FC07A
:101400006BA17CA18DA19EA120E03FEF4FE757E4A7
:101410000E94E82618164CF56FA178A589A59AA513
:1014200020E030E040E251E40E94EE25DC01CB01F7
:10143000BC01CD010E941824DC01CB019AA389A331
:101440000FC080E991E098A38F8F8F8D98A10197AD
:10145000F1F798A38F8F89A19AA101979AA389A3E5
:1014600089A19AA1009769F714C06BA17CA18DA1F5
:101470009EA10E941824DC01CB019AA389A389A113
:101480009AA19E8F8D8F8D8D9E8D0197F1F79E8FE6
:101490008D8FECE2F0E081E0808380E090E0A0E8D6
:1014A000BFE3898F9A8FAB8FBC8F698D7A8D8B8DBF
:1014B0009C8D20E030E04AE755E40E94EE25DC01F7
:1014C000CB018D8B9E8BAF8BB88F6D897E898F8979
:1014D000988D20E030E040E85FE30E9448278823B1
:1014E0002CF481E090E09C8B8B8B3FC06D897E89D2
:1014F0008F89988D20E03FEF4FE757E40E94E82660
:1015000018164CF5698D7A8D8B8D9C8D20E030E01E
:1015100040E251E40E94EE25DC01CB01BC01CD018B
:101520000E941824DC01CB019C8B8B8B0FC080E9BF
:1015300091E09A8B898B89899A890197F1F79A8B27
:10154000898B8B899C8901979C8B8B8B8B899C8940
:10155000009769F714C06D897E898F89988D0E94E4
:101560001824DC01CB019C8B8B8B8B899C89988BFD
:101570008F878F8598890197F1F7988B8F87ECE299
:10158000F0E08DE0808380E090E0A0E8BFE38B870F
:101590009C87AD87BE876B857C858D859E8520E089
:1015A00030E04AE755E40E94EE25DC01CB018F8351
:1015B0009887A987BA876F81788589859A8520E081
:1015C00030E040E85FE30E94482788232CF481E064
:1015D00090E09E838D833FC06F81788589859A8551
:1015E00020E03FEF4FE757E40E94E82618164CF53D
:1015F0006B857C858D859E8520E030E040E251E45E
:101600000E94EE25DC01CB01BC01CD010E94182413
:10161000DC01CB019E838D830FC080E991E09C8328
:101620008B838B819C810197F1F79C838B838D81C8
:101630009E8101979E838D838D819E81009769F79E
:1016400014C06F81788589859A850E941824DC01F1
:10165000CB019E838D838D819E819A83898389812D
:101660009A810197F1F79A838983ECE2F0E086EAA8
:101670008083CC5ADF4F0FB6F894DEBF0FBECDBFCC
:10168000CF91DF911F910F910895DF93CF93CDB745
:10169000DEB7E8970FB6F894DEBF0FBECDBF00D01F
:1016A000EDB7FEB731968CE291E0918380830E9482
:1016B000F5290F900F90ECE2F0E086E5808380E062
:1016C00090E0A0E8BFE38DAB9EABAFABB8AF6DA928
:1016D0007EA98FA998AD20E030E04AE755E40E944A
:1016E000EE25DC01CB0189AB9AABABABBCAB69A9F6
:1016F0007AA98BA99CA920E030E040E85FE30E9432
:10170000482788232CF481E090E098AB8FA73FC056
:1017100069A97AA98BA99CA920E03FEF4FE757E47C
:101720000E94E82618164CF56DA97EA98FA998ADE0
:1017300020E030E040E251E40E94EE25DC01CB01E4
:10174000BC01CD010E941824DC01CB0198AB8FA70E
:101750000FC080E991E09EA78DA78DA59EA501975A
:10176000F1F79EA78DA78FA598A9019798AB8FA792
:101770008FA598A9009769F714C069A97AA98BA9C0
:101780009CA90E941824DC01CB0198AB8FA78FA5E0
:1017900098A99CA78BA78BA59CA50197F1F79CA75F
:1017A0008BA7ECE2F0E0108280E090E0A0E8BFE3DD
:1017B0008FA398A7A9A7BAA76FA178A589A59AA56D
:1017C00020E030E04AE755E40E94EE25DC01CB0141
:1017D0008BA39CA3ADA3BEA36BA17CA18DA19EA155
:1017E00020E030E040E85FE30E94482788232CF4A3
:1017F00081E090E09AA389A33FC06BA17CA18DA159
:101800009EA120E03FEF4FE757E40E94E82618161C
:101810004CF56FA178A589A59AA520E030E040E2BB
:1018200051E40E94EE25DC01CB01BC01CD010E94F8
:101830001824DC01CB019AA389A30FC080E991E0B1
:1018400098A38F8F8F8D98A10197F1F798A38F8F11
:1018500089A19AA101979AA389A389A19AA1009726
:1018600069F714C06BA17CA18DA19EA10E941824D0
:10187000DC01CB019AA389A389A19AA19E8F8D8FA8
:101880008D8D9E8D0197F1F79E8F8D8FECE2F0E0AC
:1018900086E3808380E090E0A0E8BFE3898F9A8FA1
:1018A000AB8FBC8F698D7A8D8B8D9C8D20E030E065
:1018B0004AE755E40E94EE25DC01CB018D8B9E8B1F
:1018C000AF8BB88F6D897E898F89988D20E030E04D
:1018D00040E85FE30E94482788232CF481E090E0F1
:1018E0009C8B8B8B3FC06D897E898F89988D20E082
:1018F0003FEF4FE757E40E94E82618164CF5698D34
:101900007A8D8B8D9C8D20E030E040E251E40E9486
:10191000EE25DC01CB01BC01CD010E941824DC01C5
:10192000CB019C8B8B8B0FC080E991E09A8B898BCC
:1019300089899A890197F1F79A8B898B8B899C8980
:1019400001979C8B8B8B8B899C89009769F714C0BE
:101950006D897E898F89988D0E941824DC01CB01C6
:101960009C8B8B8B8B899C89988B8F878F85988993
:101970000197F1F7988B8F87ECE2F0E081E08083AC
:1019800080E090E0A0E8BFE38B879C87AD87BE87AF
:101990006B857C858D859E8520E030E04AE755E4A7
:1019A0000E94EE25DC01CB018F839887A987BA8737
:1019B0006F81788589859A8520E030E040E85FE393
:1019C0000E94482788232CF481E090E09E838D8339
:1019D0003FC06F81788589859A8520E03FEF4FE78A
:1019E00057E40E94E82618164CF56B857C858D859A
:1019F0009E8520E030E040E251E40E94EE25DC01CB
:101A0000CB01BC01CD010E941824DC01CB019E83D7
:101A10008D830FC080E991E09C838B838B819C81B7
:101A20000197F1F79C838B838D819E8101979E8323
:101A30008D838D819E81009769F714C06F817885B1
:101A400089859A850E941824DC01CB019E838D83B1
:101A50008D819E819A83898389819A810197F1F78B
:101A60009A838983ECE2F0E083E08083E8960FB606
:101A7000F894DEBF0FBECDBFCF91DF910895DF9305
:101A8000CF93CDB7DEB7E8970FB6F894DEBF0FBEA1
:101A9000CDBF00D0EDB7FEB7319685E391E09183DD
:101AA00080830E94F5290F900F90ECE2F0E086E52C
:101AB000808380E090E0A0E8BFE38DAB9EABAFAB4E
:101AC000B8AF6DA97EA98FA998AD20E030E04AE7B4
:101AD00055E40E94EE25DC01CB0189AB9AABABABA0
:101AE000BCAB69A97AA98BA99CA920E030E040E8A9
:101AF0005FE30E94482788232CF481E090E098ABB4
:101B00008FA73FC069A97AA98BA99CA920E03FEFC4
:101B10004FE757E40E94E82618164CF56DA97EA9F8
:101B20008FA998AD20E030E040E251E40E94EE251C
:101B3000DC01CB01BC01CD010E941824DC01CB01EA
:101B400098AB8FA70FC080E991E09EA78DA78DA5C8
:101B50009EA50197F1F79EA78DA78FA598A901973C
:101B600098AB8FA78FA598A9009769F714C069A9AA
:101B70007AA98BA99CA90E941824DC01CB0198ABFF
:101B80008FA78FA598A99CA78BA78BA59CA501972C
:101B9000F1F79CA78BA7ECE2F0E0108280E090E0E8
:101BA000A0E8BFE38FA398A7A9A7BAA76FA178A5BC
:101BB00089A59AA520E030E04AE755E40E94EE2589
:101BC000DC01CB018BA39CA3ADA3BEA36BA17CA125
:101BD0008DA19EA120E030E040E85FE30E9448270D
:101BE00088232CF481E090E09AA389A33FC06BA1E5
:101BF0007CA18DA19EA120E03FEF4FE757E40E941A
:101C0000E82618164CF56FA178A589A59AA520E0BD
:101C100030E040E251E40E94EE25DC01CB01BC0142
:101C2000CD010E941824DC01CB019AA389A30FC027
:101C300080E991E098A38F8F8F8D98A10197F1F79C
:101C400098A38F8F89A19AA101979AA389A389A1AB
:101C50009AA1009769F714C06BA17CA18DA19EA1E8
:101C60000E941824DC01CB019AA389A389A19AA11F
:101C70009E8F8D8F8D8D9E8D0197F1F79E8F8D8F0D
:101C8000ECE2F0E086E3808380E090E0A0E8BFE350
:101C9000898F9A8FAB8FBC8F698D7A8D8B8D9C8D40
:101CA00020E030E04AE755E40E94EE25DC01CB015C
:101CB0008D8B9E8BAF8BB88F6D897E898F89988D28
:101CC00020E030E040E85FE30E94482788232CF4BE
:101CD00081E090E09C8B8B8B3FC06D897E898F89E2
:101CE000988D20E03FEF4FE757E40E94E826181652
:101CF0004CF5698D7A8D8B8D9C8D20E030E040E233
:101D000051E40E94EE25DC01CB01BC01CD010E9413
:101D10001824DC01CB019C8B8B8B0FC080E991E0F8
:101D20009A8B898B89899A890197F1F79A8B898B8C
:101D30008B899C8901979C8B8B8B8B899C890097C5
:101D400069F714C06D897E898F89988D0E94182447
:101D5000DC01CB019C8B8B8B8B899C89988B8F872B
:101D60008F8598890197F1F7988B8F87ECE2F0E0E7
:101D700081E0808380E090E0A0E8BFE38B879C87D0
:101D8000AD87BE876B857C858D859E8520E030E0A4
:101D90004AE755E40E94EE25DC01CB018F8398874A
:101DA000A987BA876F81788589859A8520E030E098
:101DB00040E85FE30E94482788232CF481E090E00C
:101DC0009E838D833FC06F81788589859A8520E0C9
:101DD0003FEF4FE757E40E94E82618164CF56B8555
:101DE0007C858D859E8520E030E040E251E40E94B4
:101DF000EE25DC01CB01BC01CD010E941824DC01E1
:101E0000CB019E838D830FC080E991E09C838B83FF
:101E10008B819C810197F1F79C838B838D819E81BF
:101E200001979E838D838D819E81009769F714C0F1
:101E30006F81788589859A850E941824DC01CB0101
:101E40009E838D838D819E819A83898389819A81E6
:101E50000197F1F79A838983ECE2F0E01082E8962B
:101E60000FB6F894DEBF0FBECDBFCF91DF910895BE
:101E7000DF93CF93CDB7DEB7E8970FB6F894DEBF08
:101E80000FBECDBF00D0EDB7FEB731968EE391E027
:101E9000918380830E94F5290F900F90ECE2F0E08F
:101EA00086E5808380E090E0A0E8BFE38DAB9EAB49
:101EB000AFABB8AF6DA97EA98FA998AD20E030E097
:101EC0004AE755E40E94EE25DC01CB0189AB9AABD1
:101ED000ABABBCAB69A97AA98BA99CA920E030E087
:101EE00040E85FE30E94482788232CF481E090E0DB
:101EF00098AB8FA73FC069A97AA98BA99CA920E0BC
:101F00003FEF4FE757E40E94E82618164CF56DA9FD
:101F10007EA98FA998AD20E030E040E251E40E9414
:101F2000EE25DC01CB01BC01CD010E941824DC01AF
:101F3000CB0198AB8FA70FC080E991E09EA78DA73A
:101F40008DA59EA50197F1F79EA78DA78FA598A9AE
:101F5000019798AB8FA78FA598A9009769F714C030
:101F600069A97AA98BA99CA90E941824DC01CB013C
:101F700098AB8FA78FA598A99CA78BA78BA59CA58D
:101F80000197F1F79CA78BA7ECE2F0E0108280E0CC
:101F900090E0A0E8BFE38FA398A7A9A7BAA76FA175
:101FA00078A589A59AA520E030E04AE755E40E948B
:101FB000EE25DC01CB018BA39CA3ADA3BEA36BA13B
:101FC0007CA18DA19EA120E030E040E85FE30E946B
:101FD000482788232CF481E090E09AA389A33FC08E
:101FE0006BA17CA18DA19EA120E03FEF4FE757E4BC
:101FF0000E94E82618164CF56FA178A589A59AA528
:1020000020E030E040E251E40E94EE25DC01CB010B
:10201000BC01CD010E941824DC01CB019AA389A345
:102020000FC080E991E098A38F8F8F8D98A10197C1
:10203000F1F798A38F8F89A19AA101979AA389A3F9
:1020400089A19AA1009769F714C06BA17CA18DA109
:102050009EA10E941824DC01CB019AA389A389A127
:102060009AA19E8F8D8F8D8D9E8D0197F1F79E8FFA
:102070008D8FECE2F0E084E3808380E090E0A0E8E4
:10208000BFE3898F9A8FAB8FBC8F698D7A8D8B8DD3
:102090009C8D20E030E04AE755E40E94EE25DC010B
:1020A000CB018D8B9E8BAF8BB88F6D897E898F898D
:1020B000988D20E030E040E85FE30E9448278823C5
:1020C0002CF481E090E09C8B8B8B3FC06D897E89E6
:1020D0008F89988D20E03FEF4FE757E40E94E82674
:1020E00018164CF5698D7A8D8B8D9C8D20E030E033
:1020F00040E251E40E94EE25DC01CB01BC01CD01A0
:102100000E941824DC01CB019C8B8B8B0FC080E9D3
:1021100091E09A8B898B89899A890197F1F79A8B3B
:10212000898B8B899C8901979C8B8B8B8B899C8954
:10213000009769F714C06D897E898F89988D0E94F8
:102140001824DC01CB019C8B8B8B8B899C89988B11
:102150008F878F8598890197F1F7988B8F87ECE2AD
:10216000F0E081E0808380E090E0A0E8BFE38B872F
:102170009C87AD87BE876B857C858D859E8520E09D
:1021800030E04AE755E40E94EE25DC01CB018F8365
:102190009887A987BA876F81788589859A8520E095
:1021A00030E040E85FE30E94482788232CF481E078
:1021B00090E09E838D833FC06F81788589859A8565
:1021C00020E03FEF4FE757E40E94E82618164CF551
:1021D0006B857C858D859E8520E030E040E251E472
:1021E0000E94EE25DC01CB01BC01CD010E94182428
:1021F000DC01CB019E838D830FC080E991E09C833D
:102200008B838B819C810197F1F79C838B838D81DC
:102210009E8101979E838D838D819E81009769F7B2
:1022200014C06F81788589859A850E941824DC0105
:10223000CB019E838D838D819E819A838983898141
:102240009A810197F1F79A838983ECE2F0E010829A
:10225000E8960FB6F894DEBF0FBECDBFCF91DF91E9
:1022600008950F931F93DF93CF93CDB7DEB7C25D71
:10227000D0400FB6F894DEBF0FBECDBF00D0EDB793
:10228000FEB731968BE491E0918380830E94F5291B
:102290000F900F90ECE2F0E086E58083FE01E153C1
:1022A000FF4F80E090E0A0E8BFE380839183A283AA
:1022B000B3838E0105531F4FFE01E153FF4F608131
:1022C00071818281938120E030E04AE755E40E94E9
:1022D000EE25DC01CB01F80180839183A283B383D7
:1022E000FE01E553FF4F608171818281938120E07F
:1022F00030E040E85FE30E944827882344F4FE0171
:10230000E753FF4F81E090E09183808364C0FE013A
:10231000E553FF4F608171818281938120E03FEF1F
:102320004FE757E40E94E82618160CF043C0FE0160
:10233000E153FF4F608171818281938120E030E021
:1023400040E251E40E94EE25DC01CB018E010753EF
:102350001F4FBC01CD010E941824DC01CB01F80104
:10236000918380831FC0FE01E953FF4F80E991E014
:1023700091838083FE01E953FF4F80819181019712
:10238000F1F7FE01E953FF4F91838083DE01A753EC
:10239000BF4FFE01E753FF4F808191810197119656
:1023A0009C938E93FE01E753FF4F808191810097AC
:1023B000D1F627C08E0107531F4FFE01E553FF4F93
:1023C00060817181828193810E941824DC01CB019C
:1023D000F80191838083DE01AB53BF4FFE01E753C9
:1023E000FF4F808191818D939C93FE01EB53FF4FB2
:1023F000808191810197F1F7FE01EB53FF4F9183AB
:102400008083ECE2F0E01082FE01EF53FF4F80E0AA
:1024100090E0A0E8BFE380839183A283B3838E0121
:1024200003541F4FFE01EF53FF4F60817181828182
:10243000938120E030E04AE755E40E94EE25DC017C
:10244000CB01F80180839183A283B383FE01E3541F
:10245000FF4F608171818281938120E030E040E80C
:102460005FE30E944827882344F4FE01E554FF4FB0
:1024700081E090E09183808364C0FE01E354FF4FCC
:10248000608171818281938120E03FEF4FE757E4C3
:102490000E94E82618160CF043C0FE01EF53FF4FD0
:1024A000608171818281938120E030E040E251E4DB
:1024B0000E94EE25DC01CB018E0105541F4FBC01AB
:1024C000CD010E941824DC01CB01F80191838083A7
:1024D0001FC0FE01E754FF4F80E991E091838083A4
:1024E000FE01E754FF4F808191810197F1F7FE01D2
:1024F000E754FF4F91838083DE01A554BF4FFE0157
:10250000E554FF4F80819181019711969C938E93A2
:10251000FE01E554FF4F808191810097D1F627C0DD
:102520008E0105541F4FFE01E354FF4F60817181FE
:10253000828193810E941824DC01CB01F8019183F0
:102540008083DE01A954BF4FFE01E554FF4F808117
:1025500091818D939C93FE01E954FF4F808191817D
:102560000197F1F7FE01E954FF4F91838083ECE27C
:10257000F0E082E38083FE01ED54FF4F80E090E0C5
:10258000A0E8BFE380839183A283B3838E010155CA
:102590001F4FFE01ED54FF4F608171818281938155
:1025A00020E030E04AE755E40E94EE25DC01CB0153
:1025B000F80180839183A283B383FE01E155FF4F2D
:1025C000608171818281938120E030E040E85FE3A7
:1025D0000E944827882344F4FE01E355FF4F81E021
:1025E00090E09183808364C0FE01E155FF4F6081DC
:1025F00071818281938120E03FEF4FE757E40E9491
:10260000E82618160CF043C0FE01ED54FF4F608120
:1026100071818281938120E030E040E251E40E94A8
:10262000EE25DC01CB018E0103551F4FBC01CD010E
:102630000E941824DC01CB01F801918380831FC024
:10264000FE01E555FF4F80E991E091838083FE0113
:10265000E555FF4F808191810197F1F7FE01E55526
:10266000FF4F91838083DE01A355BF4FFE01E355E9
:10267000FF4F80819181019711969C938E93FE016B
:10268000E355FF4F808191810097D1F627C08E01DD
:1026900003551F4FFE01E155FF4F6081718182811B
:1026A00093810E941824DC01CB01F801918380837F
:1026B000DE01A755BF4FFE01E355FF4F8081918199
:1026C0008D939C93FE01E755FF4F80819181019787
:1026D000F1F7FE01E755FF4F91838083ECE2F0E0D4
:1026E0008CE08083FE01EB55FF4F80E090E0A0E896
:1026F000BFE380839183A283B3838E010F551F4F65
:10270000FE01EB55FF4F608171818281938120E052
:1027100030E04AE755E40E94EE25DC01CB01F801E8
:1027200080839183A283B383FE01EF55FF4F6081C5
:1027300071818281938120E030E040E85FE30E9474
:102740004827882344F4FE01E156FF4F81E090E0E2
:102750009183808364C0FE01EF55FF4F60817181DA
:102760008281938120E03FEF4FE757E40E94E82603
:1027700018160CF043C0FE01EB55FF4F60817181CC
:102780008281938120E030E040E251E40E94EE2516
:10279000DC01CB018E0101561F4FBC01CD010E940F
:1027A0001824DC01CB01F801918380831FC0FE0156
:1027B000E356FF4F80E991E091838083FE01E35669
:1027C000FF4F808191810197F1F7FE01E356FF4FA2
:1027D00091838083DE01A156BF4FFE01E156FF4F7A
:1027E00080819181019711969C938E93FE01E15611
:1027F000FF4F808191810097D1F627C08E0101564D
:102800001F4FFE01EF55FF4F6081718182819381DF
:102810000E941824DC01CB01F80191838083DE0142
:10282000A556BF4FFE01E156FF4F808191818D93E8
:102830009C93FE01E556FF4F808191810197F1F74E
:10284000FE01E556FF4F91838083ECE2F0E01082B9
:10285000FE01E956FF4F80E090E0A0E8BFE38083EF
:102860009183A283B3838E010D561F4FFE01E9565B
:10287000FF4F608171818281938120E030E04AE7DF
:1028800055E40E94EE25DC01CB01F80180839183A1
:10289000A283B383FE01ED56FF4F60817181828177
:1028A000938120E030E040E85FE30E9448278823DE
:1028B00044F4FE01EF56FF4F81E090E09183808366
:1028C00064C0FE01ED56FF4F60817181828193816A
:1028D00020E03FEF4FE757E40E94E82618160CF07F
:1028E00043C0FE01E956FF4F60817181828193816F
:1028F00020E030E040E251E40E94EE25DC01CB0113
:102900008E010F561F4FBC01CD010E941824DC011F
:10291000CB01F801918380831FC0FE01E157FF4F77
:1029200080E991E091838083FE01E157FF4F808130
:1029300091810197F1F7FE01E157FF4F9183808369
:10294000DE01AF56BF4FFE01EF56FF4F80819181F0
:10295000019711969C938E93FE01EF56FF4F808155
:1029600091810097D1F627C08E010F561F4FFE01AF
:10297000ED56FF4F60817181828193810E941824FE
:10298000DC01CB01F80191838083DE01A357BF4FA7
:10299000FE01EF56FF4F808191818D939C93FE0144
:1029A000E357FF4F808191810197F1F7FE01E357D3
:1029B000FF4F91838083ECE2F0E08AE08083FE01A8
:1029C000E757FF4F80E090E0A0E8BFE3808391836A
:1029D000A283B3838E010B571F4FFE01E757FF4FB2
:1029E000608171818281938120E030E04AE755E483
:1029F0000E94EE25DC01CB01F80180839183A28344
:102A0000B383FE01EB57FF4F608171818281938117
:102A100020E030E040E85FE30E944827882344F448
:102A2000FE01ED57FF4F81E090E09183808364C009
:102A3000FE01EB57FF4F608171818281938120E01D
:102A40003FEF4FE757E40E94E82618160CF043C00A
:102A5000FE01E757FF4F608171818281938120E001
:102A600030E040E251E40E94EE25DC01CB018E0112
:102A70000D571F4FBC01CD010E941824DC01CB0172
:102A8000F801918380831FC0FE01EF57FF4F80E95B
:102A900091E091838083FE01EF57FF4F8081918108
:102AA0000197F1F7FE01EF57FF4F91838083DE011D
:102AB000AD57BF4FFE01ED57FF4F808191810197C8
:102AC00011969C938E93FE01ED57FF4F808191816B
:102AD0000097D1F627C08E010D571F4FFE01EB570F
:102AE000FF4F60817181828193810E941824DC01F3
:102AF000CB01F80191838083DE01A158BF4FFE0115
:102B0000ED57FF4F808191818D939C93FE01E15899
:102B1000FF4F808191810197F1F7FE01E158FF4F4E
:102B200091838083ECE2F0E01082FE01E558FF4FD4
:102B300080E090E0A0E8BFE380839183A283B38329
:102B40008E0109581F4FFE01E558FF4F60817181CA
:102B50008281938120E030E04AE755E40E94EE252F
:102B6000DC01CB01F80180839183A283B383FE0152
:102B7000E958FF4F608171818281938120E030E0CC
:102B800040E85FE30E944827882344F4FE01EB58A5
:102B9000FF4F81E090E09183808364C0FE01E9589B
:102BA000FF4F608171818281938120E03FEF4FE789
:102BB00057E40E94E82618160CF043C0FE01E558C1
:102BC000FF4F608171818281938120E030E040E29B
:102BD00051E40E94EE25DC01CB018E010B581F4F02
:102BE000BC01CD010E941824DC01CB01F8019183C6
:102BF00080831FC0FE01ED58FF4F80E991E0918373
:102C00008083FE01ED58FF4F808191810197F1F79C
:102C1000FE01ED58FF4F91838083DE01AB58BF4F1B
:102C2000FE01EB58FF4F80819181019711969C9393
:102C30008E93FE01EB58FF4F808191810097D1F672
:102C400027C08E010B581F4FFE01E958FF4F6081CE
:102C50007181828193810E941824DC01CB01F801EB
:102C600091838083DE01AF58BF4FFE01EB58FF4FC9
:102C7000808191818D939C93FE01EF58FF4F80815D
:102C800091810197F1F7FE01EF58FF4F9183808307
:102C9000ECE2F0E01082FE01E359FF4F80E090E0AB
:102CA000A0E8BFE380839183A283B3838E01075999
:102CB0001F4FFE01E359FF4F608171818281938133
:102CC00020E030E04AE755E40E94EE25DC01CB012C
:102CD000F80180839183A283B383FE01E759FF4FFC
:102CE000608171818281938120E030E040E85FE380
:102CF0000E944827882344F4FE01E959FF4F81E0F0
:102D000090E09183808364C0FE01E759FF4F6081AA
:102D100071818281938120E03FEF4FE757E40E9469
:102D2000E82618160CF043C0FE01E359FF4F6081FE
:102D300071818281938120E030E040E251E40E9481
:102D4000EE25DC01CB018E0109591F4FBC01CD01DD
:102D50000E941824DC01CB01F801918380831FC0FD
:102D6000FE01EB59FF4F80E991E091838083FE01E2
:102D7000EB59FF4F808191810197F1F7FE01EB59EB
:102D8000FF4F91838083DE01A959BF4FFE01E959AE
:102D9000FF4F80819181019711969C938E93FE0144
:102DA000E959FF4F808191810097D1F627C08E01AC
:102DB00009591F4FFE01E759FF4F608171818281E0
:102DC00093810E941824DC01CB01F8019183808358
:102DD000DE01AD59BF4FFE01E959FF4F808191815E
:102DE0008D939C93FE01ED59FF4F80819181019756
:102DF000F1F7FE01ED59FF4F91838083ECE2F0E0A3
:102E00001082FE01E15AFF4F80E090E0A0E8BFE3AE
:102E100080839183A283B3838E01055A1F4FFE01E5
:102E2000E15AFF4F608171818281938120E030E01F
:102E30004AE755E40E94EE25DC01CB01F8018083CE
:102E40009183A283B383FE01E55AFF4F60817181B4
:102E50008281938120E030E040E85FE30E944827D0
:102E6000882344F4FE01E75AFF4F81E090E091830C
:102E7000808364C0FE01E55AFF4F608171818281C9
:102E8000938120E03FEF4FE757E40E94E8261816B1
:102E90000CF043C0FE01E15AFF4F608171818281D5
:102EA000938120E030E040E251E40E94EE25DC0115
:102EB000CB018E01075A1F4FBC01CD010E9418247F
:102EC000DC01CB01F801918380831FC0FE01E95A28
:102ED000FF4F80E991E091838083FE01E95AFF4F23
:102EE000808191810197F1F7FE01E95AFF4F9183AB
:102EF0008083DE01A75ABF4FFE01E75AFF4F808152
:102F00009181019711969C938E93FE01E75AFF4F92
:102F1000808191810097D1F627C08E01075A1F4FFB
:102F2000FE01E55AFF4F60817181828193810E9489
:102F30001824DC01CB01F80191838083DE01AB5AB8
:102F4000BF4FFE01E75AFF4F808191818D939C9383
:102F5000FE01EB5AFF4F808191810197F1F7FE014D
:102F6000EB5AFF4F91838083ECE2F0E01082FE0188
:102F7000EF5AFF4F80E090E0A0E8BFE380839183A9
:102F8000A283B3838E01035B1F4FFE01EF5AFF4FF5
:102F9000608171818281938120E030E04AE755E4CD
:102FA0000E94EE25DC01CB01F80180839183A2838E
:102FB000B383FE01E35BFF4F608171818281938166
:102FC00020E030E040E85FE30E944827882344F493
:102FD000FE01E55BFF4F81E090E09183808364C058
:102FE000FE01E35BFF4F608171818281938120E06C
:102FF0003FEF4FE757E40E94E82618160CF043C055
:10300000FE01EF5AFF4F608171818281938120E040
:1030100030E040E251E40E94EE25DC01CB018E015C
:10302000055B1F4FBC01CD010E941824DC01CB01C0
:10303000F801918380831FC0FE01E75BFF4F80E9A9
:1030400091E091838083FE01E75BFF4F8081918156
:103050000197F1F7FE01E75BFF4F91838083DE016B
:10306000A55BBF4FFE01E55BFF4F8081918101971A
:1030700011969C938E93FE01E55BFF4F80819181B9
:103080000097D1F627C08E01055B1F4FFE01E35B61
:10309000FF4F60817181828193810E941824DC013D
:1030A000CB01F80191838083DE01A95BBF4FFE0154
:1030B000E55BFF4F808191818D939C93FE01E95BDD
:1030C000FF4F808191810197F1F7FE01E95BFF4F8E
:1030D00091838083ECE2F0E01082FE01ED5BFF4F14
:1030E00080E090E0A0E8BFE380839183A283B38374
:1030F0008E01015C1F4FFE01ED5BFF4F608171810E
:103100008281938120E030E04AE755E40E94EE2579
:10311000DC01CB01F80180839183A283B383FE019C
:10312000FF96608171818281938120E030E040E8E8
:103130005FE30E94482788232CF481E090E09EAF53
:103140008DAF46C0FE01FF966081718182819381BF
:1031500020E03FEF4FE757E40E94E826181664F599
:10316000FE01ED5BFF4F608171818281938120E0E0
:1031700030E040E251E40E94EE25DC01CB01BC01CD
:10318000CD010E941824DC01CB019EAF8DAF0FC092
:1031900080E991E09CAF8BAF8BAD9CAD0197F1F7CF
:1031A0009CAF8BAF8DAD9EAD01979EAF8DAF8DADBA
:1031B0009EAD009769F716C0FE01FF966081718190
:1031C000828193810E941824DC01CB019EAF8DAFD8
:1031D0008DAD9EAD9AAF89AF89AD9AAD0197F1F7EC
:1031E0009AAF89AFECE2F0E0108280E090E0A0E8D6
:1031F000BFE38DAB9EABAFABB8AF6DA97EA98FA976
:1032000098AD20E030E04AE755E40E94EE25DC016D
:10321000CB0189AB9AABABABBCAB69A97AA98BA943
:103220009CA920E030E040E85FE30E944827882323
:103230002CF481E090E098AB8FA73FC069A97AA9F0
:103240008BA99CA920E03FEF4FE757E40E94E826B6
:1032500018164CF56DA97EA98FA998AD20E030E035
:1032600040E251E40E94EE25DC01CB01BC01CD011E
:103270000E941824DC01CB0198AB8FA70FC080E916
:1032800091E09EA78DA78DA59EA50197F1F79EA71A
:103290008DA78FA598A9019798AB8FA78FA598A9FF
:1032A000009769F714C069A97AA98BA99CA90E9403
:1032B0001824DC01CB0198AB8FA78FA598A99CA7F8
:1032C0008BA78BA59CA50197F1F79CA78BA7ECE298
:1032D000F0E08091C8019091C901808380E090E086
:1032E000A0E8BFE38FA398A7A9A7BAA76FA178A565
:1032F00089A59AA520E030E04AE755E40E94EE2532
:10330000DC01CB018BA39CA3ADA3BEA36BA17CA1CD
:103310008DA19EA120E030E040E85FE30E944827B5
:1033200088232CF481E090E09AA389A33FC06BA18D
:103330007CA18DA19EA120E03FEF4FE757E40E94C2
:10334000E82618164CF56FA178A589A59AA520E066
:1033500030E040E251E40E94EE25DC01CB01BC01EB
:10336000CD010E941824DC01CB019AA389A30FC0D0
:1033700080E991E098A38F8F8F8D98A10197F1F745
:1033800098A38F8F89A19AA101979AA389A389A154
:103390009AA1009769F714C06BA17CA18DA19EA191
:1033A0000E941824DC01CB019AA389A389A19AA1C8
:1033B0009E8F8D8F8D8D9E8D0197F1F79E8F8D8FB6
:1033C000ECE2F0E08091CA019091CB01808380E033
:1033D00090E0A0E8BFE3898F9A8FAB8FBC8F698D97
:1033E0007A8D8B8D9C8D20E030E04AE755E40E9479
:1033F000EE25DC01CB018D8B9E8BAF8BB88F6D8959
:103400007E898F89988D20E030E040E85FE30E945C
:10341000482788232CF481E090E09C8B8B8B3FC065
:103420006D897E898F89988D20E03FEF4FE757E4C3
:103430000E94E82618164CF5698D7A8D8B8D9C8D2F
:1034400020E030E040E251E40E94EE25DC01CB01B7
:10345000BC01CD010E941824DC01CB019C8B8B8B1D
:103460000FC080E991E09A8B898B89899A890197AD
:10347000F1F79A8B898B8B899C8901979C8B8B8B1D
:103480008B899C89009769F714C06D897E898F8923
:10349000988D0E941824DC01CB019C8B8B8B8B892F
:1034A0009C89988B8F878F8598890197F1F7988BE6
:1034B0008F87ECE2F0E0108280E090E0A0E8BFE3CC
:1034C0008B879C87AD87BE876B857C858D859E8528
:1034D00020E030E04AE755E40E94EE25DC01CB0114
:1034E0008F839887A987BA876F81788589859A8520
:1034F00020E030E040E85FE30E94482788232CF476
:1035000081E090E09E838D833FC06F8178858985BF
:103510009A8520E03FEF4FE757E40E94E82618160F
:103520004CF56B857C858D859E8520E030E040E202
:1035300051E40E94EE25DC01CB01BC01CD010E94CB
:103540001824DC01CB019E838D830FC080E991E0BC
:103550009C838B838B819C810197F1F79C838B8368
:103560008D819E8101979E838D838D819E810097A1
:1035700069F714C06F81788589859A850E9418241F
:10358000DC01CB019E838D838D819E819A8389830B
:1035900089819A810197F1F79A838983ECE2F0E0BF
:1035A0008AE08083CE52DF4F0FB6F894DEBF0FBEA5
:1035B000CDBFCF91DF911F910F9108950F931F936E
:1035C000DF93CF93CDB7DEB7C057D0400FB6F89496
:1035D000DEBF0FBECDBF00D0EDB7FEB7319687E599
:1035E00091E0918380830E94F5290F900F90ECE287
:1035F000F0E086E58083FE01E359FF4F80E090E034
:10360000A0E8BFE380839183A283B3838E0107592F
:103610001F4FFE01E359FF4F6081718182819381C9
:1036200020E030E04AE755E40E94EE25DC01CB01C2
:10363000F80180839183A283B383FE01E759FF4F92
:10364000608171818281938120E030E040E85FE316
:103650000E944827882344F4FE01E959FF4F81E086
:1036600090E09183808364C0FE01E759FF4F608141
:1036700071818281938120E03FEF4FE757E40E9400
:10368000E82618160CF043C0FE01E359FF4F608195
:1036900071818281938120E030E040E251E40E9418
:1036A000EE25DC01CB018E0109591F4FBC01CD0174
:1036B0000E941824DC01CB01F801918380831FC094
:1036C000FE01EB59FF4F80E991E091838083FE0179
:1036D000EB59FF4F808191810197F1F7FE01EB5982
:1036E000FF4F91838083DE01A959BF4FFE01E95945
:1036F000FF4F80819181019711969C938E93FE01DB
:10370000E959FF4F808191810097D1F627C08E0142
:1037100009591F4FFE01E759FF4F60817181828176
:1037200093810E941824DC01CB01F80191838083EE
:10373000DE01AD59BF4FFE01E959FF4F80819181F4
:103740008D939C93FE01ED59FF4F808191810197EC
:10375000F1F7FE01ED59FF4F91838083ECE2F0E039
:103760001082FE01E15AFF4F80E090E0A0E8BFE345
:1037700080839183A283B3838E01055A1F4FFE017C
:10378000E15AFF4F608171818281938120E030E0B6
:103790004AE755E40E94EE25DC01CB01F801808365
:1037A0009183A283B383FE01E55AFF4F608171814B
:1037B0008281938120E030E040E85FE30E94482767
:1037C000882344F4FE01E75AFF4F81E090E09183A3
:1037D000808364C0FE01E55AFF4F60817181828160
:1037E000938120E03FEF4FE757E40E94E826181648
:1037F0000CF043C0FE01E15AFF4F6081718182816C
:10380000938120E030E040E251E40E94EE25DC01AB
:10381000CB018E01075A1F4FBC01CD010E94182415
:10382000DC01CB01F801918380831FC0FE01E95ABE
:10383000FF4F80E991E091838083FE01E95AFF4FB9
:10384000808191810197F1F7FE01E95AFF4F918341
:103850008083DE01A75ABF4FFE01E75AFF4F8081E8
:103860009181019711969C938E93FE01E75AFF4F29
:10387000808191810097D1F627C08E01075A1F4F92
:10388000FE01E55AFF4F60817181828193810E9420
:103890001824DC01CB01F80191838083DE01AB5A4F
:1038A000BF4FFE01E75AFF4F808191818D939C931A
:1038B000FE01EB5AFF4F808191810197F1F7FE01E4
:1038C000EB5AFF4F91838083ECE2F0E081E3808349
:1038D000FE01EF5AFF4F80E090E0A0E8BFE3808355
:1038E0009183A283B3838E01035B1F4FFE01EF5AC6
:1038F000FF4F608171818281938120E030E04AE74F
:1039000055E40E94EE25DC01CB01F8018083918310
:10391000A283B383FE01E35BFF4F608171818281EB
:10392000938120E030E040E85FE30E94482788234D
:1039300044F4FE01E55BFF4F81E090E091838083DA
:1039400064C0FE01E35BFF4F6081718182819381DE
:1039500020E03FEF4FE757E40E94E82618160CF0EE
:1039600043C0FE01EF5AFF4F6081718182819381D4
:1039700020E030E040E251E40E94EE25DC01CB0182
:103980008E01055B1F4FBC01CD010E941824DC0194
:10399000CB01F801918380831FC0FE01E75BFF4FDD
:1039A00080E991E091838083FE01E75BFF4F808196
:1039B00091810197F1F7FE01E75BFF4F91838083CF
:1039C000DE01A55BBF4FFE01E55BFF4F808191816A
:1039D000019711969C938E93FE01E55BFF4F8081CA
:1039E00091810097D1F627C08E01055B1F4FFE0124
:1039F000E35BFF4F60817181828193810E94182473
:103A0000DC01CB01F80191838083DE01A95BBF4F0C
:103A1000FE01E55BFF4F808191818D939C93FE01B8
:103A2000E95BFF4F808191810197F1F7FE01E95B2E
:103A3000FF4F91838083ECE2F0E085E08083FE011C
:103A4000ED5BFF4F80E090E0A0E8BFE380839183CF
:103A5000A283B3838E01015C1F4FFE01ED5BFF4F1C
:103A6000608171818281938120E030E04AE755E4F2
:103A70000E94EE25DC01CB01F80180839183A283B3
:103A8000B383FE01FF96608171818281938120E082
:103A900030E040E85FE30E94482788232CF481E06F
:103AA00090E09EAF8DAF46C0FE01FF9660817181B0
:103AB0008281938120E03FEF4FE757E40E94E826A0
:103AC000181664F5FE01ED5BFF4F60817181828104
:103AD000938120E030E040E251E40E94EE25DC01D9
:103AE000CB01BC01CD010E941824DC01CB019EAFAB
:103AF0008DAF0FC080E991E09CAF8BAF8BAD9CADDB
:103B00000197F1F79CAF8BAF8DAD9EAD01979EAF46
:103B10008DAF8DAD9EAD009769F716C0FE01FF9683
:103B200060817181828193810E941824DC01CB0124
:103B30009EAF8DAF8DAD9EAD9AAF89AF89AD9AAD79
:103B40000197F1F79AAF89AFECE2F0E081E0808372
:103B500080E090E0A0E8BFE38DAB9EABAFABB8AF29
:103B60006DA97EA98FA998AD20E030E04AE755E421
:103B70000E94EE25DC01CB0189AB9AABABABBCABB1
:103B800069A97AA98BA99CA920E030E040E85FE30D
:103B90000E94482788232CF481E090E098AB8FA7FF
:103BA0003FC069A97AA98BA99CA920E03FEF4FE704
:103BB00057E40E94E82618164CF56DA97EA98FA936
:103BC00098AD20E030E040E251E40E94EE25DC01B7
:103BD000CB01BC01CD010E941824DC01CB0198ABC4
:103BE0008FA70FC080E991E09EA78DA78DA59EA508
:103BF0000197F1F79EA78DA78FA598A9019798AB7C
:103C00008FA78FA598A9009769F714C069A97AA909
:103C10008BA99CA90E941824DC01CB0198AB8FA72B
:103C20008FA598A99CA78BA78BA59CA50197F1F7B9
:103C30009CA78BA7ECE2F0E081E0808380E090E03D
:103C4000A0E8BFE38FA398A7A9A7BAA76FA178A5FB
:103C500089A59AA520E030E04AE755E40E94EE25C8
:103C6000DC01CB018BA39CA3ADA3BEA36BA17CA164
:103C70008DA19EA120E030E040E85FE30E9448274C
:103C800088232CF481E090E09AA389A33FC06BA124
:103C90007CA18DA19EA120E03FEF4FE757E40E9459
:103CA000E82618164CF56FA178A589A59AA520E0FD
:103CB00030E040E251E40E94EE25DC01CB01BC0182
:103CC000CD010E941824DC01CB019AA389A30FC067
:103CD00080E991E098A38F8F8F8D98A10197F1F7DC
:103CE00098A38F8F89A19AA101979AA389A389A1EB
:103CF0009AA1009769F714C06BA17CA18DA19EA128
:103D00000E941824DC01CB019AA389A389A19AA15E
:103D10009E8F8D8F8D8D9E8D0197F1F79E8F8D8F4C
:103D2000ECE2F0E082E1808380E090E0A0E8BFE395
:103D3000898F9A8FAB8FBC8F698D7A8D8B8D9C8D7F
:103D400020E030E04AE755E40E94EE25DC01CB019B
:103D50008D8B9E8BAF8BB88F6D897E898F89988D67
:103D600020E030E040E85FE30E94482788232CF4FD
:103D700081E090E09C8B8B8B3FC06D897E898F8921
:103D8000988D20E03FEF4FE757E40E94E826181691
:103D90004CF5698D7A8D8B8D9C8D20E030E040E272
:103DA00051E40E94EE25DC01CB01BC01CD010E9453
:103DB0001824DC01CB019C8B8B8B0FC080E991E038
:103DC0009A8B898B89899A890197F1F79A8B898BCC
:103DD0008B899C8901979C8B8B8B8B899C89009705
:103DE00069F714C06D897E898F89988D0E94182487
:103DF000DC01CB019C8B8B8B8B899C89988B8F876B
:103E00008F8598890197F1F7988B8F87ECE2F0E026
:103E100084E0808380E090E0A0E8BFE38B879C870C
:103E2000AD87BE876B857C858D859E8520E030E0E3
:103E30004AE755E40E94EE25DC01CB018F83988789
:103E4000A987BA876F81788589859A8520E030E0D7
:103E500040E85FE30E94482788232CF481E090E04B
:103E60009E838D833FC06F81788589859A8520E008
:103E70003FEF4FE757E40E94E82618164CF56B8594
:103E80007C858D859E8520E030E040E251E40E94F3
:103E9000EE25DC01CB01BC01CD010E941824DC0120
:103EA000CB019E838D830FC080E991E09C838B833F
:103EB0008B819C810197F1F79C838B838D819E81FF
:103EC00001979E838D838D819E81009769F714C031
:103ED0006F81788589859A850E941824DC01CB0141
:103EE0009E838D838D819E819A83898389819A8126
:103EF0000197F1F79A838983ECE2F0E086E380830F
:103F0000C059DF4F0FB6F894DEBF0FBECDBFCF91C3
:103F1000DF911F910F910895DF93CF93CDB7DEB757
:103F2000EAE2F0E01082EBE2F0E01082E5E9F0E096
:103F300086E08083E9E2F0E089E18083E0E9F0E077
:103F40001082EAE2F0E088E98083CF91DF91089562
:103F5000DF93CF93CDB7DEB7EAE9F0E01082EBE96B
:103F6000F0E01082EDE9F0E086E08083E9E9F0E03E
:103F700088E08083E8E9F0E01082EAE9F0E088E98F
:103F80008083CF91DF9108950F931F93DF93CF9399
:103F9000CDB7DEB7C654D0400FB6F894DEBF0FBE23
:103FA000CDBF0E94D501FE01ED5BFF4F80E090E0A8
:103FB000AAE7B4E480839183A283B3838E01015C7A
:103FC0001F4FFE01ED5BFF4F608171818281938104
:103FD00020E030E04AE755E40E94EE25DC01CB0109
:103FE000F80180839183A283B383FE01FF966081F1
:103FF00071818281938120E030E040E85FE30E949C
:10400000482788232CF481E090E09EAF8DAF46C016
:10401000FE01FF96608171818281938120E03FEFF4
:104020004FE757E40E94E826181664F5FE01ED5BA1
:10403000FF4F608171818281938120E030E040E216
:1040400051E40E94EE25DC01CB01BC01CD010E94B0
:104050001824DC01CB019EAF8DAF0FC080E991E049
:104060009CAF8BAF8BAD9CAD0197F1F79CAF8BAF45
:104070008DAD9EAD01979EAF8DAF8DAD9EAD00977E
:1040800069F716C0FE01FF9660817181828193817C
:104090000E941824DC01CB019EAF8DAF8DAD9EAD8B
:1040A0009AAF89AF89AD9AAD0197F1F79AAF89AF11
:1040B0000E94580380E090E0A8E4B2E48DAB9EAB90
:1040C000AFABB8AF6DA97EA98FA998AD20E030E065
:1040D0004AE755E40E94EE25DC01CB0189AB9AAB9F
:1040E000ABABBCAB69A97AA98BA99CA920E030E055
:1040F00040E85FE30E94482788232CF481E090E0A9
:1041000098AB8FA73FC069A97AA98BA99CA920E089
:104110003FEF4FE757E40E94E82618164CF56DA9CB
:104120007EA98FA998AD20E030E040E251E40E94E2
:10413000EE25DC01CB01BC01CD010E941824DC017D
:10414000CB0198AB8FA70FC080E991E09EA78DA708
:104150008DA59EA50197F1F79EA78DA78FA598A97C
:10416000019798AB8FA78FA598A9009769F714C0FE
:1041700069A97AA98BA99CA90E941824DC01CB010A
:1041800098AB8FA78FA598A99CA78BA78BA59CA55B
:104190000197F1F79CA78BA70E94DE1A80E090E0C0
:1041A000A8E4B2E48FA398A7A9A7BAA76FA178A59E
:1041B00089A59AA520E030E04AE755E40E94EE2563
:1041C000DC01CB018BA39CA3ADA3BEA36BA17CA1FF
:1041D0008DA19EA120E030E040E85FE30E944827E7
:1041E00088232CF481E090E09AA389A33FC06BA1BF
:1041F0007CA18DA19EA120E03FEF4FE757E40E94F4
:10420000E82618164CF56FA178A589A59AA520E097
:1042100030E040E251E40E94EE25DC01CB01BC011C
:10422000CD010E941824DC01CB019AA389A30FC001
:1042300080E991E098A38F8F8F8D98A10197F1F776
:1042400098A38F8F89A19AA101979AA389A389A185
:104250009AA1009769F714C06BA17CA18DA19EA1C2
:104260000E941824DC01CB019AA389A389A19AA1F9
:104270009E8F8D8F8D8D9E8D0197F1F79E8F8D8FE7
:104280000E94050880E090E0A8E4B2E4898F9A8F4C
:10429000AB8FBC8F698D7A8D8B8D9C8D20E030E04B
:1042A0004AE755E40E94EE25DC01CB018D8B9E8B05
:1042B000AF8BB88F6D897E898F89988D20E030E033
:1042C00040E85FE30E94482788232CF481E090E0D7
:1042D0009C8B8B8B3FC06D897E898F89988D20E068
:1042E0003FEF4FE757E40E94E82618164CF5698D1A
:1042F0007A8D8B8D9C8D20E030E040E251E40E946D
:10430000EE25DC01CB01BC01CD010E941824DC01AB
:10431000CB019C8B8B8B0FC080E991E09A8B898BB2
:1043200089899A890197F1F79A8B898B8B899C8966
:1043300001979C8B8B8B8B899C89009769F714C0A4
:104340006D897E898F89988D0E941824DC01CB01AC
:104350009C8B8B8B8B899C89988B8F878F85988979
:104360000197F1F7988B8F87E9E2F0E088E080838E
:1043700000D0EDB7FEB731968FE591E09183808351
:104380000E94F5290F900F9080E090E0A8E4B2E43D
:104390008B879C87AD87BE876B857C858D859E8549
:1043A00020E030E04AE755E40E94EE25DC01CB0135
:1043B0008F839887A987BA876F81788589859A8541
:1043C00020E030E040E85FE30E94482788232CF497
:1043D00081E090E09E838D833FC06F8178858985E1
:1043E0009A8520E03FEF4FE757E40E94E826181631
:1043F0004CF56B857C858D859E8520E030E040E224
:1044000051E40E94EE25DC01CB01BC01CD010E94EC
:104410001824DC01CB019E838D830FC080E991E0DD
:104420009C838B838B819C810197F1F79C838B8389
:104430008D819E8101979E838D838D819E810097C2
:1044400069F714C06F81788589859A850E94182440
:10445000DC01CB019E838D838D819E819A8389832C
:1044600089819A810197F1F79A8389830E94450B8C
:10447000CA5BDF4F0FB6F894DEBF0FBECDBFCF9142
:10448000DF911F910F910895DF93CF93CDB7DEB7E2
:10449000F8940E9492010E948C1F0E94A81F89E933
:1044A00091E02FEB31E0B9010E94A9297894CF91D6
:1044B000DF910895DF93CF93CDB7DEB72E970FB678
:1044C000F894DEBF0FBECDBF80E090E0A8E4B2E478
:1044D0008B879C87AD87BE876B857C858D859E8508
:1044E00020E030E04AE755E40E94EE25DC01CB01F4
:1044F0008F839887A987BA876F81788589859A8500
:1045000020E030E040E85FE30E94482788232CF455
:1045100081E090E09E838D833FC06F81788589859F
:104520009A8520E03FEF4FE757E40E94E8261816EF
:104530004CF56B857C858D859E8520E030E040E2E2
:1045400051E40E94EE25DC01CB01BC01CD010E94AB
:104550001824DC01CB019E838D830FC080E991E09C
:104560009C838B838B819C810197F1F79C838B8348
:104570008D819E8101979E838D838D819E81009781
:1045800069F714C06F81788589859A850E941824FF
:10459000DC01CB019E838D838D819E819A838983EB
:1045A00089819A810197F1F79A8389830E943F0D4F
:1045B0000E94450B2E960FB6F894DEBF0FBECDBFFE
:1045C000CF91DF910895DF93CF93CDB7DEB70E94EF
:1045D000442281E791E00E94072A0E94C41FE9E576
:1045E000F0E080E18083EAE5F0E081E08083FFCFC6
:1045F0001F920F920FB60F9200905B000F92112442
:104600002F933F934F935F938F939F93AF93BF935A
:10461000EF93FF93DF93CF93CDB7DEB78091CC01BB
:104620009091CD0181309105D9F44091B80150911C
:10463000B901ECE2F0E08081282F30E0CA01880F58
:10464000991FFC01E654FE4F318320838091B8010D
:104650009091B90101969093B9018093B80106C079
:10466000ECE9F0E0ACE2B0E08C918083CF91DF9197
:10467000FF91EF91BF91AF919F918F915F914F917A
:104680003F912F910F9000925B000F900FBE0F9003
:104690001F9018951F920F920FB60F9200905B001B
:1046A0000F9211248F929F92AF92BF92CF92DF927E
:1046B000EF92FF920F931F932F933F934F935F932C
:1046C0006F937F938F939F93AF93BF93EF93FF93DA
:1046D000DF93CF930F92CDB7DEB7ECE9F0E08081A6
:1046E000898389818C3631F41092CD011092CC01EE
:1046F0000E945A228981833661F41092B901109286
:10470000B80181E090E09093CD018093CC010E94AC
:10471000380F8981833731F41092CD011092CC018A
:104720000E943F0D8981893631F41092CD0110929B
:10473000CC010E94450B89818B3631F41092CD015A
:104740001092CC010E9431118981803709F04FC04D
:104750002091BA013091BB014091BC015091BD0143
:104760006091BE017091BF01A091C001B091C101E3
:104770000091C2011091C301E090C401F090C50105
:10478000C090C601D090C701A090C801B090C901E7
:104790008090CA019090CB018DB79EB744970FB619
:1047A000F8949EBF0FBE8DBFEDB7FEB7319688E877
:1047B00091E091838083338322835583448377837D
:1047C0006683B187A08713870287F586E486D7863C
:1047D000C686B18AA08A938A828A0E94F5298DB7FB
:1047E0009EB744960FB6F8949EBF0FBE8DBF0F9034
:1047F000CF91DF91FF91EF91BF91AF919F918F91F9
:104800007F916F915F914F913F912F911F910F91E8
:10481000FF90EF90DF90CF90BF90AF909F908F90E0
:104820000F9000925B000F900FBE0F901F90189595
:10483000EF92FF920F931F937B018C0120E030E0F9
:1048400040E05FE40E94182788238CF0C801B7017C
:1048500020E030E040E05FE40E9490250E9478274D
:104860009B01AC01205030404040504806C0C80178
:10487000B7010E9478279B01AC01B901CA011F91C1
:104880000F91FF90EF900895A0E0B0E0EAE4F4E229
:104890000C947229DC012B01FA019C91923008F4EE
:1048A00039C1EB018881823008F433C1943069F456
:1048B000843009F02FC111969C9111978981981726
:1048C00009F428C1AAEAB1E025C1843009F421C164
:1048D0008230A9F4923009F01DC19A01AD0188E03F
:1048E000EA010990AE01E90109929E018150C1F7E8
:1048F000E201898111969C918923818308C19230BC
:1049000009F407C112962D903C901397EB018A8110
:104910009B811496AD90BD90CD90DC901797EC8064
:10492000FD800E811F819101281B390BB90137FFD2
:1049300004C066277727621B730B603271050CF089
:1049400061C0121613066CF537014801062E04C02B
:1049500096948794779467940A94D2F721E030E094
:1049600040E050E004C0220F331F441F551F6A95DA
:10497000D2F721503040404050402E213F2140236B
:104980005123211531054105510521F021E030E089
:1049900040E050E079018A01E628F7280829192922
:1049A0003CC0232BD1F1260E371E35014601062EC1
:1049B00004C096948794779467940A94D2F721E080
:1049C00030E040E050E004C0220F331F441F551F69
:1049D0006A95D2F721503040404050402A213B2177
:1049E0004C215D21211531054105510521F021E0C2
:1049F00030E040E050E059016A01A628B728C828F5
:104A0000D9280BC0821593052CF01C01AA24BB24C5
:104A1000650103C0EE24FF24870111969C91D20109
:104A200011968C91981709F445C0992339F0A80183
:104A300097012A193B094C095D0906C0A601950199
:104A40002E193F09400B510B57FD08C011823382CC
:104A5000228224833583468357831DC081E081836E
:104A60003382228288279927DC01821B930BA40BB7
:104A7000B50B84839583A683B7830DC0220F331FA4
:104A8000441F551F24833583468357838281938136
:104A90000197938382832481358146815781DA018E
:104AA000C9010197A109B1098F5F9F4FAF4FBF4364
:104AB00028F30BC0918333822282EA0CFB1C0C1D6D
:104AC0001D1DE482F5820683178383E080832481A1
:104AD00035814681578157FF1AC0C901AA2797FD22
:104AE000A095BA2F81709070A070B07056954795C0
:104AF00037952795822B932BA42BB52B84839583F5
:104B0000A683B78382819381019693838283DF0199
:104B100001C0D201CD01CDB7DEB7E2E10C948E2900
:104B2000A0E2B0E0E6E9F5E20C947E2969837A839D
:104B30008B839C832D833E834F835887E9E0EE2E41
:104B4000F12CEC0EFD1ECE010196B7010E94A128AA
:104B50008E010F5E1F4FCE010596B8010E94A1285D
:104B60008A8991E089278A8BC701B801AE01475E27
:104B70005F4F0E9444240E94CC27A096E6E00C944C
:104B80009A29A0E2B0E0E7ECF5E20C947E29698373
:104B90007A838B839C832D833E834F835887F9E0F0
:104BA000EF2EF12CEC0EFD1ECE010196B7010E94F6
:104BB000A1288E010F5E1F4FCE010596B8010E94FD
:104BC000A128C701B801AE01475E5F4F0E9444248F
:104BD0000E94CC27A096E6E00C949A29A0E2B0E0CF
:104BE000E4EFF5E20C94722969837A838B839C83CA
:104BF0002D833E834F835887CE010196BE01675FA8
:104C00007F4F0E94A128CE010596BE016F5E7F4FA7
:104C10000E94A1289985923088F089898230C8F055
:104C2000943019F4823051F404C0843029F4923065
:104C300081F48AEA91E0C6C0923049F420E09A8576
:104C40008A89981321E02A87CE010996BBC0823059
:104C500049F420E09A858A89981321E02A8BCE01B5
:104C60004196B0C02D843E844F8458886D887E88DC
:104C70008F88988CEE24FF248701AA24BB24650129
:104C800040E050E060E070E0E0E0F0E0C101817001
:104C90009070892BE9F0E60CF71C081D191D9A018C
:104CA000AB012A0D3B1D4C1D5D1D80E090E0A0E096
:104CB000B0E0E614F7040805190520F481E090E05F
:104CC000A0E0B0E0BA01A901480F591F6A1F7B1F7D
:104CD000AA0CBB1CCC1CDD1C97FE08C081E090E038
:104CE000A0E0B0E0A82AB92ACA2ADB2A3196E0322D
:104CF000F10549F0660C771C881C991C5694479462
:104D000037942794C3CFFA85EA892B893C898B8510
:104D10009C85280F391F2E5F3F4F17C0CA01817035
:104D20009070892B61F016950795F794E79480E0D1
:104D300090E0A0E0B0E8E82AF92A0A2B1B2B769530
:104D40006795579547952F5F3F4F77FDE7CF0CC08D
:104D5000440F551F661F771F17FD4160EE0CFF1CA7
:104D6000001F111F21503040403090E0590790E063
:104D7000690790E4790760F32B8F3C8FDB01CA0150
:104D80008F779070A070B07080349105A105B10547
:104D900061F447FD0AC0E114F1040105110529F091
:104DA000405C5F4F6F4F7F4F40781A8EFE1711F0B7
:104DB00081E08A8F4D8F5E8F6F8F78A383E0898F1C
:104DC000CE0149960E94CC27A096E2E10C948E2950
:104DD000A8E1B0E0EEEEF6E20C947E2969837A83D6
:104DE0008B839C832D833E834F83588789E0E82EF5
:104DF000F12CEC0EFD1ECE010196B7010E94A128F8
:104E00008E010F5E1F4FCE010596B8010E94A128AA
:104E10008985823040F08989823028F0C701B80145
:104E20000E94192901C08FEF6896E6E00C949A2938
:104E3000A8E1B0E0EEE1F7E20C947E2969837A8381
:104E40008B839C832D833E834F83588789E0E82E94
:104E5000F12CEC0EFD1ECE010196B7010E94A12897
:104E60008E010F5E1F4FCE010596B8010E94A1284A
:104E70008985823040F08989823028F0C701B801E5
:104E80000E94192901C08FEF6896E6E00C949A29D8
:104E9000A8E1B0E0EEE4F7E20C947E2969837A831E
:104EA0008B839C832D833E834F83588789E0E82E34
:104EB000F12CEC0EFD1ECE010196B7010E94A12837
:104EC0008E010F5E1F4FCE010596B8010E94A128EA
:104ED0008985823040F08989823028F0C701B80185
:104EE0000E94192901C081E06896E6E00C949A2995
:104EF000ACE0B0E0EEE7F7E20C94822969837A83B4
:104F00008B839C83CE010196BE016B5F7F4F0E9415
:104F1000A1288D81823061F1823050F1843021F4FA
:104F20008E81882351F12EC02F81388537FD20C016
:104F30006E812F3131051CF06623F9F023C08EE11C
:104F400090E0821B930B29853A854B855C8504C0D4
:104F500056954795379527958A95D2F76623B1F0F0
:104F600050954095309521953F4F4F4F5F4F0EC064
:104F700020E030E040E050E009C02FEF3FEF4FEF7E
:104F80005FE704C020E030E040E050E8B901CA012A
:104F90002C96E2E00C949E29DF92EF92FF920F9301
:104FA0001F93FC01E480F58006811781D180808108
:104FB000823048F480E090E0A0E1B0E0E82AF92AED
:104FC0000A2B1B2BA5C0843009F49FC0823021F42A
:104FD000EE24FF24870105C0E114F1040105110549
:104FE00019F4E0E0F0E096C0628173819FEF6238CF
:104FF00079070CF05BC022E83FEF261B370B2A3104
:1050000031052CF020E030E040E050E02AC0B8014B
:10501000A701022E04C076956795579547950A9487
:10502000D2F781E090E0A0E0B0E004C0880F991FC3
:10503000AA1FBB1F2A95D2F70197A109B1098E219A
:105040009F21A023B1230097A105B10521F081E0A4
:1050500090E0A0E0B0E09A01AB01282B392B4A2B5D
:105060005B2BDA01C9018F779070A070B07080342B
:105070009105A105B10539F427FF09C0205C3F4F18
:105080004F4F5F4F04C0215C3F4F4F4F5F4FE0E0F9
:10509000F0E02030A0E03A07A0E04A07A0E45A0779
:1050A00010F0E1E0F0E079018A0127C06038710575
:1050B00064F5FB01E158FF4FD801C7018F7790706D
:1050C000A070B07080349105A105B10539F4E7FEF8
:1050D0000DC080E490E0A0E0B0E004C08FE390E079
:1050E000A0E0B0E0E80EF91E0A1F1B1F17FF05C065
:1050F00016950795F794E794319687E016950795EE
:10510000F794E7948A95D1F705C0EE24FF24870130
:10511000EFEFF0E06E2F679566276795902F9F77EA
:10512000D794DD24D7948E2F8695492F462B582F60
:105130005D29B701CA011F910F91FF90EF90DF9099
:105140000895FC01DB01408151812281622F6F773C
:1051500070E0221F2227221F9381892F880F822B24
:10516000282F30E0991F9927991F11969C9311972A
:1051700021153105A9F5411551056105710511F498
:1051800082E037C082E89FEF13969C938E9312972C
:105190009A01AB0167E0220F331F441F551F6A9528
:1051A000D1F783E08C930DC0220F331F441F551F8E
:1051B00012968D919C911397019713969C938E93C1
:1051C0001297203080E0380780E0480780E45807D5
:1051D00058F314962D933D934D935C931797089530
:1051E0002F3F310579F4411551056105710519F419
:1051F00084E08C93089564FF03C081E08C9312C017
:105200001C9210C02F57304013963C932E93129748
:1052100083E08C9387E0440F551F661F771F8A95A4
:10522000D1F7706414964D935D936D937C931797AB
:1052300008951F93DC01FB019C91923008F447C054
:105240008081823008F443C0943051F411961C914F
:10525000843099F58181682F70E0611B71093FC02E
:10526000843021F0923031F48230B9F18181882389
:1052700089F12DC011961C9111978230F1F0818136
:105280001817D9F412962D913C911397828193812E
:105290008217930794F028173907BCF014968D9164
:1052A0009D910D90BC91A02D24813581468157811F
:1052B000281739074A075B0718F4112341F00AC081
:1052C00082179307A407B50740F4112319F061E092
:1052D00070E005C06FEF7FEF02C060E070E0CB01CF
:1052E0001F9108952F923F924F925F926F927F92FB
:1052F0008F929F92AF92BF92CF92DF92EF92FF92E6
:105300000F931F93CF93DF93CDB7DEB7CA1BDB0B91
:105310000FB6F894DEBF0FBECDBF09942A88398836
:1053200048885F846E847D848C849B84AA84B9843D
:10533000C884DF80EE80FD800C811B81AA81B98149
:10534000CE0FD11D0FB6F894DEBF0FBECDBFED015D
:1053500008950F931F93CF93DF938C01EB01009778
:1053600031F46115710519F420E030E038C081E0B6
:1053700090E06EE070E00E94422CFC019C010097DE
:1053800071F180E88383209771F0D387C28781E829
:1053900083838091CE019091CF01892B21F4F093EA
:1053A000CF01E093CE0101151105C9F011870087E7
:1053B0008381826083838091D0019091D101892B78
:1053C00071F4F093D101E093D0018091D2019091DA
:1053D000D301892B21F4F093D301E093D201C901C9
:1053E000DF91CF911F910F910895DF93CF93CDB7A8
:1053F000DEB7FE013596619171918091D001909157
:10540000D101AF010E943C2ACF91DF9108950F9303
:105410001F93CF93DF938C01E091D001F091D101E4
:10542000838181FF21C0C0E0D0E00DC0E091D001B8
:10543000F091D10120853185BF01F9010995892BB2
:1054400011F0CFEFDFEFF80181918F01882371F721
:10545000E091D001F091D101208531858AE0BF0132
:10546000F9010995892B11F0CFEFDFEFCE01DF9124
:10547000CF911F910F9108952F923F924F925F927B
:105480006F927F928F929F92AF92BF92CF92DF9254
:10549000EF92FF920F931F93DF93CF93CDB7DEB7B9
:1054A0002B970FB6F894DEBF0FBECDBF3C012B018A
:1054B0005A01FC0117821682838181FD03C06FEFC0
:1054C0007FEFC6C19AE0892E1E010894211C311C71
:1054D000F3012381F20123FD859123FF81912F01A7
:1054E000882309F4B2C1853239F423FD859123FF65
:1054F00081912F01853229F490E0B3010E94802D23
:10550000E7CF982FFF24EE249924FFE1FF15D0F078
:105510009B3269F09C3228F4903259F0933291F426
:105520000EC09D3249F0903369F441E024C052E04E
:10553000F52A84E0F82A28C098E0F92A25C0E0E19D
:10554000FE2A22C0F7FC29C0892F80538A3070F4CC
:10555000F6FE05C0989C902C1124980E15C0E89C6E
:10556000E02C1124E80EF0E2FF2A0EC09E3229F44E
:10557000F6FC6BC140E4F42A07C09C3619F450E8ED
:10558000F52A02C0983649F4F20123FD959123FFD4
:1055900091912F01992309F0B8CF892F8554833039
:1055A00018F08052833038F444E050E0A40EB51E69
:1055B0005FE359830FC0933631F0933779F0933519
:1055C00009F056C020C0F5018081898342E050E097
:1055D000A40EB51E610101E010E012C0F501C0800B
:1055E000D180F6FC03C06FEF7FEF02C0692D70E041
:1055F00042E050E0A40EB51EC6010E94752D8C013C
:105600005FE7F52214C0F501C080D180F6FC03C02D
:105610006FEF7FEF02C0692D70E042E050E0A40E12
:10562000B51EC6010E94632D8C0150E8F52AF3FED9
:1056300007C01AC080E290E0B3010E94802DEA9476
:105640008E2D90E008171907A8F30EC0F601F7FC9D
:105650008591F7FE81916F0190E0B3010E94802D4A
:10566000E110EA94015010400115110579F7EAC0E4
:10567000943611F0993669F5F7FE08C0F5012081DE
:1056800031814281538184E090E00AC0F50180813C
:1056900091819C01442737FD4095542F82E090E092
:1056A000A80EB91E9FE6F92257FF09C050954095F4
:1056B000309521953F4F4F4F5F4FE0E8FE2ACA01DA
:1056C000B901A1012AE030E00E94AC2DD82ED218F9
:1056D00040C0953729F41F2D1F7E2AE030E01DC001
:1056E0001F2D197F9F3661F0903720F4983509F00F
:1056F000ACC00FC0903739F0983709F0A6C004C08D
:1057000028E030E00AC0106114FD146020E130E0B0
:1057100004C014FD166020E132E017FF08C0F50157
:10572000608171818281938144E050E008C0F5017D
:1057300080819181BC0180E090E042E050E0A40EC5
:10574000B51EA1010E94AC2DD82ED2188FE7F82EDD
:10575000F122F6FE0BC05EEFF522D91438F4F4FE08
:1057600007C0F2FC05C08FEEF82202C01D2D01C05B
:10577000192DF4FE0DC0FE01ED0DF11D8081803369
:1057800019F499EEF92208C01F5FF2FE05C003C0AC
:105790008F2D867809F01F5F0F2DF3FC14C0F0FEEB
:1057A0000FC01E1510F09D2C0BC09D2C9E0C911A45
:1057B0001E2D06C080E290E0B3010E94802D1F5F85
:1057C0001E15C0F304C01E1510F4E11A01C0EE242A
:1057D00004FF0FC080E390E0B3010E94802D02FF20
:1057E0001DC001FD03C088E790E00EC088E590E091
:1057F0000BC0802F867891F001FF02C08BE201C0C0
:1058000080E2F7FC8DE290E0B3010E94802D06C09B
:1058100080E390E0B3010E94802D9A94D914C0F3E4
:10582000DA94F101ED0DF11D808190E0B3010E9449
:10583000802DDD20A9F706C080E290E0B3010E9430
:10584000802DEA94EE20C1F743CEF3016681778183
:10585000CB012B960FB6F894DEBF0FBECDBFCF9114
:10586000DF911F910F91FF90EF90DF90CF90BF904D
:10587000AF909F908F907F906F905F904F903F90F0
:105880002F9008950F931F93CF93DF93689F80010C
:10589000699F100D789F100D1124C8010E945E2C85
:1058A000EC01009729F060E070E0A8010E946E2DE5
:1058B000CE01DF91CF911F910F910895CF93DF9388
:1058C000BC018230910510F462E070E0A091D60135
:1058D000B091D701ED01E0E0F0E040E050E021C000
:1058E000888199818617970769F48A819B8130970F
:1058F00019F09383828304C09093D7018093D601DB
:10590000FE0134C06817790738F44115510519F0C4
:105910008417950708F4AC01FE018A819B819C01E4
:10592000E9012097E9F641155105A9F1CA01861B45
:10593000970B049708F4BA01E0E0F0E02AC08D91DB
:105940009C91119784179507F9F46417750781F4F2
:1059500012968D919C911397309719F093838283BF
:1059600004C09093D7018093D601FD0132964FC0B9
:10597000CA01861B970BFD01E80FF91F6193719314
:1059800002978D939C9343C0FD01828193819C017A
:10599000D9011097A1F68091D4019091D501892B5E
:1059A00041F48091B4019091B5019093D501809319
:1059B000D4014091B6015091B7014115510541F410
:1059C0004DB75EB78091B2019091B301481B590B5E
:1059D0002091D4013091D50124173507B0F4CA01C4
:1059E000821B930B8617970780F0AB014E5F5F4FCA
:1059F0008417950750F0420F531F5093D5014093E1
:105A0000D401F9016193719302C0E0E0F0E0CF01AD
:105A1000DF91CF910895CF93DF93009709F450C0A1
:105A2000EC0122971B821A82A091D601B091D70176
:105A3000109709F140E050E0AC17BD0708F1BB83B7
:105A4000AA83FE0121913191E20FF31FAE17BF0728
:105A500079F48D919C911197280F391F2E5F3F4F3C
:105A60003983288312968D919C9113979B838A8307
:105A70004115510571F4D093D701C093D60120C0D0
:105A800012968D919C911397AD01009711F0DC0156
:105A9000D3CFFA01D383C28321913191E20FF31F57
:105AA000CE17DF0769F488819981280F391F2E5F8F
:105AB0003F4FFA01318320838A819B8193838283C4
:105AC000DF91CF910895FC01059061507040011065
:105AD000D8F7809590958E0F9F1F0895DC0101C027
