:100000000C9446000C9465000C9465000C946500FB
:100010000C9465000C9465000C9465000C946500CC
:100020000C9465000C9465000C9465000C946500BC
:100030000C9465000C9465000C9465000C946500AC
:100040000C9465000C9465000C9465000C9465009C
:100050000C9465000C9467000C9465000C9465008A
:100060000C9465000C9465000C9465000C9465007C
:100070000C9465000C9465000C9465000C9465006C
:100080000C9465000C9465000C94650011241FBE4F
:10009000CFEFD0E1DEBFCDBF11E0A0E0B1E0E2E9FB
:1000A000F2E000E00BBF02C007900D92AA30B1074A
:1000B000D9F711E0AAE0B1E001C01D92AC30B10760
:1000C000E1F70E94F8000C9447010C9400001F9285
:1000D0000F920FB60F9211248F939F9384B195B115
:1000E00090930B0180930A019F918F910F900FBE07
:1000F0000F901F901895E1E0F0E006C06AE070E014
:100100000E942001CB0131968A309105BCF7CF01C6
:1001100008958F929F92AF92BF92CF92DF92EF920B
:10012000FF920F931F93DF93CF93CDB7DEB72A973C
:100130000FB6F894DEBF0FBECDBF7C01DE01119675
:10014000E0E0F1E08AE001900D928150E1F7C70113
:100150000E947B006C01C7016AE070E00E942001F0
:10016000FC018FEF84BB8ABB87EF85BB00E010E00A
:100170004E010894811C911C8AEFA82EB12C19C045
:10018000E80DF91D80818BBBC5010197F1F785B39F
:100190008695886085BBC7016AE070E00E942001F7
:1001A0007B01CB016AE070E00E942001FC010F5F3F
:1001B0001F4F0C151D0524F380E197E229E130E083
:1001C000F9013197F1F70197D9F72A960FB6F8940C
:1001D000DEBF0FBECDBFCF91DF911F910F91FF907A
:1001E000EF90DF90CF90BF90AF909F908F90089549
:1001F0000F931F93CF93DF938FEF8ABB80916100A2
:10020000806E8093610080EC87B904EF10EEC9E145
:10021000D0E006B910936200349BFECF24B135B113
:1002200020930A0130930B01C9010E94890080E1EB
:1002300097E2FE013197F1F70197D9F70000E9CF76
:1002400097FB092E07260AD077FD04D00CD006D0E4
:1002500000201AF4709561957F4F0895F6F79095F8
:1002600081959F4F0895AA1BBB1B51E107C0AA1F90
:10027000BB1FA617B70710F0A61BB70B881F991F47
:100280005A95A9F780959095BC01CD010895F894F1
:02029000FFCF9E
:0A0292003F065B4F666D7D277F6F0E
:00000001FF
