:100000000C9489000C94E2160C94AA000C94AA009B
:100010000C94AA000C94AA000C94AA000C94AA00B8
:100020000C94AA000C94AA000C94AA000C94AA00A8
:100030000C94AA000C94AA000C94AA000C94AA0098
:100040000C94AA000C94AA000C94AA000C94AA0088
:100050000C94AA000C949D140C94C4140C94731466
:100060000C94AA000C94E6170C94AA000C94AA0015
:100070000C94AA000C94AA000C94AA000C94AA0058
:100080000C94AA000C94AA000C94AA000C94AA0048
:100090000C9466190C94AA000C94AA000C94AA0063
:1000A0000C94AA000C94AA000C94AA000C94AA0028
:1000B0000C94AA000C94AA000C94AA000C94AA0018
:1000C0000C94AA000C94AA000C94AA000C948B1710
:1000D0000C94AA000C94AA000C9436170C94AA0055
:1000E0000C94AA00084AD73B3BCE016E84BCBFFDEE
:1000F000C12F3D6C74319ABD56833DDA3D00C77FF8
:1001000011BED9E4BB4C3E916BAAAABE0000008090
:100110003F0011241FBECFEFD1E2DEBFCDBF00E014
:100120000CBF14E0A0E0B2E0E8E8FBE500E00BBFA4
:1001300002C007900D92A834B107D9F714E0A8E4E3
:10014000B4E001C01D92AC39B107E1F70E94EB1495
:100150000C94C22D0C940000DF93CF93CDB7DEB783
:10016000AAE2B0E0EAE2F0E080818E7F8C93EDE3DA
:10017000F0E081E08083E9E6F0E082E08083CF91E7
:10018000DF910895DF93CF930F92CDB7DEB78983C8
:10019000E0ECF0E08081882F90E080729070009712
:1001A000B9F3E6ECF0E08981808380E090E00F9085
:1001B000CF91DF910895DF93CF9300D0CDB7DEB715
:1001C00089837B836A8389818A3049F420919404EE
:1001D000309195048DE090E0B9010E94E627E8ECAB
:1001E000F0E08081882F90E0807290700097B9F3E2
:1001F000EEECF0E08981808380E090E00F900F903A
:100200000F90CF91DF910895DF93CF930F920F92CC
:10021000CDB7DEB79A838983E8ECF0E0808188234C
:10022000DCF7EEECF0E08081882F90E00F900F90EB
:10023000CF91DF910895DF93CF93CDB7DEB786E5F9
:100240000E94C20080E00E94C20086E20E94C200BA
:1002500080E00E94C2001092610410926004CF916D
:10026000DF910895DF93CF93CDB7DEB786E50E9487
:10027000C20080E00E94C20081E30E94C20085E0CB
:100280000E94C20084E00E94C20081E00E94C2007D
:1002900080E00E94C20089E10E94C20081E10E94C8
:1002A000C2001092610410926004CF91DF91089512
:1002B000DF93CF93CDB7DEB786E50E94C20080E022
:1002C0000E94C20084E20E94C20083E00E94C20039
:1002D00081E00E94C2008DE00E94C20086EA0E9476
:1002E000C2001092610410926004CF91DF910895D2
:1002F0000F931F93DF93CF93CDB7DEB7C654D04093
:100300000FB6F894DEBF0FBECDBF80E090E00E9434
:100310006D1181E090E090937104809370041092CD
:100320006B0410926A04109261041092600410929F
:10033000650410926404109267041092660486E5C6
:100340000E94C200FE01ED5BFF4F80E090E0A0E85C
:10035000BFE380839183A283B3838E01015C1F4F2F
:10036000FE01ED5BFF4F608171818281938120E00E
:1003700030E04AE755E40E946722DC01CB01F80136
:1003800080839183A283B383FE01FF966081718194
:100390008281938120E030E040E85FE30E946D2499
:1003A00088232CF481E090E09EAF8DAF46C0FE0123
:1003B000FF96608171818281938120E03FEF4FE75A
:1003C00057E40E940D24181664F5FE01ED5BFF4F03
:1003D000608171818281938120E030E040E251E4CC
:1003E0000E946722DC01CB01BC01CD010E9491205B
:1003F000DC01CB019EAF8DAF0FC080E991E09CAFD7
:100400008BAF8BAD9CAD0197F1F79CAF8BAF8DADF2
:100410009EAD01979EAF8DAF8DAD9EAD009769F7F4
:1004200016C0FE01FF9660817181828193810E94D6
:100430009120DC01CB019EAF8DAF8DAD9EAD9AAF0B
:1004400089AF89AD9AAD0197F1F79AAF89AF80E096
:100450000E94C20080E090E0A0E8BFE38DAB9EABBD
:10046000AFABB8AF6DA97EA98FA998AD20E030E001
:100470004AE755E40E946722DC01CB0189AB9AABC5
:10048000ABABBCAB69A97AA98BA99CA920E030E0F1
:1004900040E85FE30E946D2488232CF481E090E023
:1004A00098AB8FA73FC069A97AA98BA99CA920E026
:1004B0003FEF4FE757E40E940D2418164CF56DA945
:1004C0007EA98FA998AD20E030E040E251E40E947F
:1004D0006722DC01CB01BC01CD010E949120DC012F
:1004E000CB0198AB8FA70FC080E991E09EA78DA7A5
:1004F0008DA59EA50197F1F79EA78DA78FA598A919
:10050000019798AB8FA78FA598A9009769F714C09A
:1005100069A97AA98BA99CA90E949120DC01CB0131
:1005200098AB8FA78FA598A99CA78BA78BA59CA5F7
:100530000197F1F79CA78BA786E30E94C20080E099
:1005400090E0A0E8BFE38FA398A7A9A7BAA76FA1DF
:1005500078A589A59AA520E030E04AE755E40E94F5
:100560006722DC01CB018BA39CA3ADA3BEA36BA12F
:100570007CA18DA19EA120E030E040E85FE30E94D5
:100580006D2488232CF481E090E09AA389A33FC0D6
:100590006BA17CA18DA19EA120E03FEF4FE757E426
:1005A0000E940D2418164CF56FA178A589A59AA56F
:1005B00020E030E040E251E40E946722DC01CB0100
:1005C000BC01CD010E949120DC01CB019AA389A33B
:1005D0000FC080E991E098A38F8F8F8D98A101972C
:1005E000F1F798A38F8F89A19AA101979AA389A364
:1005F00089A19AA1009769F714C06BA17CA18DA174
:100600009EA10E949120DC01CB019AA389A389A11C
:100610009AA19E8F8D8F8D8D9E8D0197F1F79E8F64
:100620008D8F81E00E94C20080E090E0A0E8BFE3EF
:10063000898F9A8FAB8FBC8F698D7A8D8B8D9C8DB6
:1006400020E030E04AE755E40E946722DC01CB015C
:100650008D8B9E8BAF8BB88F6D897E898F89988D9E
:1006600020E030E040E85FE30E946D2488232CF412
:1006700081E090E09C8B8B8B3FC06D897E898F8958
:10068000988D20E03FEF4FE757E40E940D241816A5
:100690004CF5698D7A8D8B8D9C8D20E030E040E2A9
:1006A00051E40E946722DC01CB01BC01CD010E9414
:1006B0009120DC01CB019C8B8B8B0FC080E991E0FA
:1006C0009A8B898B89899A890197F1F79A8B898B03
:1006D0008B899C8901979C8B8B8B8B899C8900973C
:1006E00069F714C06D897E898F89988D0E94912049
:1006F000DC01CB019C8B8B8B8B899C89988B8F87A2
:100700008F8598890197F1F7988B8F8783E00E94F6
:10071000C20080E090E0A0E8BFE38B879C87AD87B4
:10072000BE876B857C858D859E8520E030E04AE71D
:1007300055E40E946722DC01CB018F839887A9874B
:10074000BA876F81788589859A8520E030E040E816
:100750005FE30E946D2488232CF481E090E09E8367
:100760008D833FC06F81788589859A8520E03FEF32
:100770004FE757E40E940D2418164CF56B857C85D5
:100780008D859E8520E030E040E251E40E946722A2
:10079000DC01CB01BC01CD010E949120DC01CB0129
:1007A0009E838D830FC080E991E09C838B838B8136
:1007B0009C810197F1F79C838B838D819E810197AA
:1007C0009E838D838D819E81009769F714C06F8110
:1007D000788589859A850E949120DC01CB019E83D2
:1007E0008D838D819E819A83898389819A810197E6
:1007F000F1F79A838983CA5BDF4F0FB6F894DEBFA7
:100800000FBECDBFCF91DF911F910F910895DF9360
:10081000CF93CDB7DEB782E090E0909371048093E0
:10082000700410926B0410926A0410926D0410927E
:100830006C0486E50E94C20080E00E94C20086E34C
:100840000E94C20081E00E94C20080E00E94C200BB
:100850001092610410926004CF91DF910895DF93AC
:10086000CF93CDB7DEB783E090E09093710480938F
:10087000700410926D0410926C0410926F04109228
:100880006E0481E090E0909363048093620486E5B7
:100890000E94C20080E00E94C20084E30E94C20065
:1008A00081E00E94C20080E00E94C200CF91DF91EF
:1008B0000895DF93CF93CDB7DEB7109271041092F5
:1008C0007004109263041092620481E090E09093AF
:1008D000650480936404109267041092660486E5B0
:1008E0000E94C20080E00E94C20082E30E94C20017
:1008F0008CE00E94C20080E00E94C2008AE00E9458
:10090000C20080E00E94C20080E00E94C20080E03D
:100910000E94C20080E00E94C20080E00E94C200EB
:1009200080E00E94C2008091C3020E94C2008091B8
:10093000C4020E94C20080E00E94C2008AE00E94BD
:10094000C2001092610410926004CF91DF9108956B
:10095000DF93CF93CDB7DEB786E50E94C20080E07B
:100960000E94C20081E30E94C20085E00E94C20092
:1009700081E00E94C20081E00E94C20082E10E94E8
:10098000C20084E00E94C2008FEF0E94C200109259
:10099000610410926004CF91DF9108950F931F932B
:1009A000DF93CF93CDB7DEB7C25DD0400FB6F894DA
:1009B000DEBF0FBECDBFE6EDF0E083E78083FE0132
:1009C000E153FF4F80E090E0A0E8BFE38083918394
:1009D000A283B3838E0105531F4FFE01E153FF4FE6
:1009E000608171818281938120E030E04AE755E4A3
:1009F0000E946722DC01CB01F80180839183A283EE
:100A0000B383FE01E553FF4F608171818281938141
:100A100020E030E040E85FE30E946D24882344F446
:100A2000FE01E753FF4F81E090E09183808364C033
:100A3000FE01E553FF4F608171818281938120E047
:100A40003FEF4FE757E40E940D2418160CF043C007
:100A5000FE01E153FF4F608171818281938120E02B
:100A600030E040E251E40E946722DC01CB018E01BC
:100A700007531F4FBC01CD010E949120DC01CB0127
:100A8000F801918380831FC0FE01E953FF4F80E985
:100A900091E091838083FE01E953FF4F8081918132
:100AA0000197F1F7FE01E953FF4F91838083DE0147
:100AB000A753BF4FFE01E753FF4F808191810197FC
:100AC00011969C938E93FE01E753FF4F8081918195
:100AD0000097D1F627C08E0107531F4FFE01E55343
:100AE000FF4F60817181828193810E949120DC019E
:100AF000CB01F80191838083DE01AB53BF4FFE0130
:100B0000E753FF4F808191818D939C93FE01EB53BE
:100B1000FF4F808191810197F1F7FE01EB53FF4F69
:100B200091838083E6EDF0E08EE68083FE01EF5353
:100B3000FF4F80E090E0A0E8BFE380839183A28331
:100B4000B3838E0103541F4FFE01EF53FF4F6081AB
:100B500071818281938120E030E04AE755E40E9470
:100B60006722DC01CB01F80180839183A283B383E8
:100B7000FE01E354FF4F608171818281938120E007
:100B800030E040E85FE30E946D24882344F4FE01D6
:100B9000E554FF4F81E090E09183808364C0FE01C3
:100BA000E354FF4F608171818281938120E03FEFA8
:100BB0004FE757E40E940D2418160CF043C0FE01C5
:100BC000EF53FF4F608171818281938120E030E09B
:100BD00040E251E40E946722DC01CB018E01055402
:100BE0001F4FBC01CD010E949120DC01CB01F80117
:100BF000918380831FC0FE01E754FF4F80E991E09D
:100C000091838083FE01E754FF4F8081918101979A
:100C1000F1F7FE01E754FF4F91838083DE01A55475
:100C2000BF4FFE01E554FF4F8081918101971196DE
:100C30009C938E93FE01E554FF4F80819181009734
:100C4000D1F627C08E0105541F4FFE01E354FF4F1C
:100C500060817181828193810E949120DC01CB01AE
:100C6000F80191838083DE01A954BF4FFE01E55452
:100C7000FF4F808191818D939C93FE01E954FF4F3A
:100C8000808191810197F1F7FE01E954FF4F918333
:100C90008083E6EDF0E080E78083FE01ED54FF4FB6
:100CA00080E090E0A0E8BFE380839183A283B383D8
:100CB0008E0101551F4FFE01ED54FF4F6081718180
:100CC0008281938120E030E04AE755E40E94672268
:100CD000DC01CB01F80180839183A283B383FE0101
:100CE000E155FF4F608171818281938120E030E086
:100CF00040E85FE30E946D24882344F4FE01E3553D
:100D0000FF4F81E090E09183808364C0FE01E15554
:100D1000FF4F608171818281938120E03FEF4FE737
:100D200057E40E940D2418160CF043C0FE01ED5448
:100D3000FF4F608171818281938120E030E040E249
:100D400051E40E946722DC01CB018E0103551F4F45
:100D5000BC01CD010E949120DC01CB01F8019183FF
:100D600080831FC0FE01E555FF4F80E991E091832C
:100D70008083FE01E555FF4F808191810197F1F756
:100D8000FE01E555FF4F91838083DE01A355BF4FE0
:100D9000FE01E355FF4F80819181019711969C934D
:100DA0008E93FE01E355FF4F808191810097D1F62C
:100DB00027C08E0103551F4FFE01E155FF4F608193
:100DC0007181828193810E949120DC01CB01F80125
:100DD00091838083DE01A755BF4FFE01E355FF4F8E
:100DE000808191818D939C93FE01E755FF4F808117
:100DF00091810197F1F7FE01E755FF4F91838083C1
:100E0000E6EDF0E082E88083FE01EB55FF4F80E0E5
:100E100090E0A0E8BFE380839183A283B3838E0137
:100E20000F551F4FFE01EB55FF4F6081718182818D
:100E3000938120E030E04AE755E40E946722DC011C
:100E4000CB01F80180839183A283B383FE01EF5528
:100E5000FF4F608171818281938120E030E040E822
:100E60005FE30E946D24882344F4FE01E156FF4FA6
:100E700081E090E09183808364C0FE01EF55FF4FD5
:100E8000608171818281938120E03FEF4FE757E4D9
:100E90000E940D2418160CF043C0FE01EB55FF4FC5
:100EA000608171818281938120E030E040E251E4F1
:100EB0000E946722DC01CB018E0101561F4FBC014D
:100EC000CD010E949120DC01CB01F8019183808348
:100ED0001FC0FE01E356FF4F80E991E091838083BC
:100EE000FE01E356FF4F808191810197F1F7FE01EA
:100EF000E356FF4F91838083DE01A156BF4FFE0171
:100F0000E156FF4F80819181019711969C938E93BA
:100F1000FE01E156FF4F808191810097D1F627C0F5
:100F20008E0101561F4FFE01EF55FF4F6081718109
:100F3000828193810E949120DC01CB01F801918391
:100F40008083DE01A556BF4FFE01E156FF4F808131
:100F500091818D939C93FE01E556FF4F8081918195
:100F60000197F1F7FE01E556FF4F91838083E6ED8F
:100F7000F0E081E08083FE01E956FF4F80E090E0E1
:100F8000A0E8BFE380839183A283B3838E010D56D3
:100F90001F4FFE01E956FF4F60817181828193816D
:100FA00020E030E04AE755E40E946722DC01CB01F3
:100FB000F80180839183A283B383FE01ED56FF4F36
:100FC000608171818281938120E030E040E85FE3BD
:100FD0000E946D24882344F4FE01EF56FF4F81E008
:100FE00090E09183808364C0FE01ED56FF4F6081E5
:100FF00071818281938120E03FEF4FE757E40E94A7
:101000000D2418160CF043C0FE01E956FF4F608115
:1010100071818281938120E030E040E251E40E94BE
:101020006722DC01CB018E010F561F4FBC01CD01A1
:101030000E949120DC01CB01F801918380831FC0C5
:10104000FE01E157FF4F80E991E091838083FE012B
:10105000E157FF4F808191810197F1F7FE01E15740
:10106000FF4F91838083DE01AF56BF4FFE01EF56E5
:10107000FF4F80819181019711969C938E93FE0181
:10108000EF56FF4F808191810097D1F627C08E01E6
:101090000F561F4FFE01ED56FF4F60817181828117
:1010A00093810E949120DC01CB01F8019183808320
:1010B000DE01A357BF4FFE01EF56FF4F80819181A4
:1010C0008D939C93FE01E357FF4F8081918101979F
:1010D000F1F7FE01E357FF4F91838083E6EDF0E0E7
:1010E0001082FE01E757FF4F80E090E0A0E8BFE3E9
:1010F00080839183A283B3838E010B571F4FFE0120
:10110000E757FF4F608171818281938120E030E059
:101110004AE755E40E946722DC01CB01F801808395
:101120009183A283B383FE01EB57FF4F60817181EE
:101130008281938120E030E040E85FE30E946D24EB
:10114000882344F4FE01ED57FF4F81E090E0918346
:10115000808364C0FE01EB57FF4F60817181828103
:10116000938120E03FEF4FE757E40E940D241816CB
:101170000CF043C0FE01E757FF4F6081718182810F
:10118000938120E030E040E251E40E946722DC01DC
:10119000CB018E010D571F4FBC01CD010E94912044
:1011A000DC01CB01F801918380831FC0FE01EF5762
:1011B000FF4F80E991E091838083FE01EF57FF4F5D
:1011C000808191810197F1F7FE01EF57FF4F9183E5
:1011D0008083DE01AD57BF4FFE01ED57FF4F808189
:1011E0009181019711969C938E93FE01ED57FF4FCD
:1011F000808191810097D1F627C08E010D571F4F36
:10120000FE01EB57FF4F60817181828193810E94C3
:101210009120DC01CB01F80191838083DE01A1588C
:10122000BF4FFE01ED57FF4F808191818D939C93BD
:10123000FE01E158FF4F808191810197F1F7FE0196
:10124000E158FF4F91838083E6EDF0E082E08083F8
:10125000FE01E558FF4F80E090E0A0E8BFE3808307
:101260009183A283B3838E0109581F4FFE01E55875
:10127000FF4F608171818281938120E030E04AE7F5
:1012800055E40E946722DC01CB01F8018083918341
:10129000A283B383FE01E958FF4F6081718182818F
:1012A000938120E030E040E85FE30E946D248823D2
:1012B00044F4FE01EB58FF4F81E090E0918380837E
:1012C00064C0FE01E958FF4F608171818281938182
:1012D00020E03FEF4FE757E40E940D2418160CF072
:1012E00043C0FE01E558FF4F608171818281938187
:1012F00020E030E040E251E40E946722DC01CB01B3
:101300008E010B581F4FBC01CD010E949120DC01C2
:10131000CB01F801918380831FC0FE01ED58FF4F80
:1013200080E991E091838083FE01ED58FF4F808139
:1013300091810197F1F7FE01ED58FF4F9183808372
:10134000DE01AB58BF4FFE01EB58FF4F808191810A
:10135000019711969C938E93FE01EB58FF4F80816D
:1013600091810097D1F627C08E010B581F4FFE01C7
:10137000E958FF4F60817181828193810E949120A1
:10138000DC01CB01F80191838083DE01AF58BF4FB0
:10139000FE01EB58FF4F808191818D939C93FE015C
:1013A000EF58FF4F808191810197F1F7FE01EF58CF
:1013B000FF4F91838083E6EDF0E083ED8083FE01B3
:1013C000E359FF4F80E090E0A8ECB2E48083918382
:1013D000A283B3838E0107591F4FFE01E359FF4FCC
:1013E000608171818281938120E030E04AE755E499
:1013F0000E946722DC01CB01F80180839183A283E4
:10140000B383FE01E759FF4F60817181828193812F
:1014100020E030E040E85FE30E946D24882344F43C
:10142000FE01E959FF4F81E090E09183808364C021
:10143000FE01E759FF4F608171818281938120E035
:101440003FEF4FE757E40E940D2418160CF043C0FD
:10145000FE01E359FF4F608171818281938120E019
:1014600030E040E251E40E946722DC01CB018E01B2
:1014700009591F4FBC01CD010E949120DC01CB0115
:10148000F801918380831FC0FE01EB59FF4F80E973
:1014900091E091838083FE01EB59FF4F8081918120
:1014A0000197F1F7FE01EB59FF4F91838083DE0135
:1014B000A959BF4FFE01E959FF4F808191810197E2
:1014C00011969C938E93FE01E959FF4F8081918183
:1014D0000097D1F627C08E0109591F4FFE01E75929
:1014E000FF4F60817181828193810E949120DC0194
:1014F000CB01F80191838083DE01AD59BF4FFE011E
:10150000E959FF4F808191818D939C93FE01ED59A4
:10151000FF4F808191810197F1F7FE01ED59FF4F57
:1015200091838083E6EDF0E083E78083FE01E15A5A
:10153000FF4F80E090E0A0E8BFE380839183A28327
:10154000B3838E01055A1F4FFE01E15AFF4F6081A0
:1015500071818281938120E030E04AE755E40E9466
:101560006722DC01CB01F80180839183A283B383DE
:10157000FE01E55AFF4F608171818281938120E0F5
:1015800030E040E85FE30E946D24882344F4FE01CC
:10159000E75AFF4F81E090E09183808364C0FE01B1
:1015A000E55AFF4F608171818281938120E03FEF96
:1015B0004FE757E40E940D2418160CF043C0FE01BB
:1015C000E15AFF4F608171818281938120E030E098
:1015D00040E251E40E946722DC01CB018E01075AF0
:1015E0001F4FBC01CD010E949120DC01CB01F8010D
:1015F000918380831FC0FE01E95AFF4F80E991E08B
:1016000091838083FE01E95AFF4F80819181019788
:10161000F1F7FE01E95AFF4F91838083DE01A75A5B
:10162000BF4FFE01E75AFF4F8081918101971196CC
:101630009C938E93FE01E75AFF4F80819181009722
:10164000D1F627C08E01075A1F4FFE01E55AFF4F02
:1016500060817181828193810E949120DC01CB01A4
:10166000F80191838083DE01AB5ABF4FFE01E75A38
:10167000FF4F808191818D939C93FE01EB5AFF4F28
:10168000808191810197F1F7FE01EB5AFF4F918321
:101690008083E6EDF0E08EE68083FE01EF5AFF4F97
:1016A00080E090E0A0E8BFE380839183A283B383CE
:1016B0008E01035B1F4FFE01EF5AFF4F6081718166
:1016C0008281938120E030E04AE755E40E9467225E
:1016D000DC01CB01F80180839183A283B383FE01F7
:1016E000E35BFF4F608171818281938120E030E074
:1016F00040E85FE30E946D24882344F4FE01E55B2B
:10170000FF4F81E090E09183808364C0FE01E35B42
:10171000FF4F608171818281938120E03FEF4FE72D
:1017200057E40E940D2418160CF043C0FE01EF5A36
:10173000FF4F608171818281938120E030E040E23F
:1017400051E40E946722DC01CB018E01055B1F4F33
:10175000BC01CD010E949120DC01CB01F8019183F5
:1017600080831FC0FE01E75BFF4F80E991E091831A
:101770008083FE01E75BFF4F808191810197F1F744
:10178000FE01E75BFF4F91838083DE01A55BBF4FC6
:10179000FE01E55BFF4F80819181019711969C933B
:1017A0008E93FE01E55BFF4F808191810097D1F61A
:1017B00027C08E01055B1F4FFE01E35BFF4F608179
:1017C0007181828193810E949120DC01CB01F8011B
:1017D00091838083DE01A95BBF4FFE01E55BFF4F74
:1017E000808191818D939C93FE01E95BFF4F808105
:1017F00091810197F1F7FE01E95BFF4F91838083AF
:10180000E6EDF0E080E78083FE01ED5BFF4F80E0D6
:1018100090E0A0E8BFE380839183A283B3838E012D
:10182000015C1F4FFE01ED5BFF4F60817181828182
:10183000938120E030E04AE755E40E946722DC0112
:10184000CB01F80180839183A283B383FE01FF96CD
:10185000608171818281938120E030E040E85FE324
:101860000E946D2488232CF481E090E09EAF8DAF20
:1018700046C0FE01FF96608171818281938120E0E4
:101880003FEF4FE757E40E940D24181664F5FE0160
:10189000ED5BFF4F608171818281938120E030E0B8
:1018A00040E251E40E946722DC01CB01BC01CD0182
:1018B0000E949120DC01CB019EAF8DAF0FC080E96B
:1018C00091E09CAF8BAF8BAD9CAD0197F1F79CAFD6
:1018D0008BAF8DAD9EAD01979EAF8DAF8DAD9EADA3
:1018E000009769F716C0FE01FF96608171818281C1
:1018F00093810E949120DC01CB019EAF8DAF8DAD15
:101900009EAD9AAF89AF89AD9AAD0197F1F79AAFC5
:1019100089AFE6EDF0E080EA808380E090E0A0E827
:10192000BFE38DAB9EABAFABB8AF6DA97EA98FA95E
:1019300098AD20E030E04AE755E40E946722DC01E0
:10194000CB0189AB9AABABABBCAB69A97AA98BA92C
:101950009CA920E030E040E85FE30E946D248823EA
:101960002CF481E090E098AB8FA73FC069A97AA9D9
:101970008BA99CA920E03FEF4FE757E40E940D247C
:1019800018164CF56DA97EA98FA998AD20E030E01E
:1019900040E251E40E946722DC01CB01BC01CD0191
:1019A0000E949120DC01CB0198AB8FA70FC080E98A
:1019B00091E09EA78DA78DA59EA50197F1F79EA703
:1019C0008DA78FA598A9019798AB8FA78FA598A9E8
:1019D000009769F714C069A97AA98BA99CA90E94EC
:1019E0009120DC01CB0198AB8FA78FA598A99CA76C
:1019F0008BA78BA59CA50197F1F79CA78BA7E6ED7C
:101A0000F0E0108280E090E0A0E8BFE38FA398A709
:101A1000A9A7BAA76FA178A589A59AA520E030E06B
:101A20004AE755E40E946722DC01CB018BA39CA30B
:101A3000ADA3BEA36BA17CA18DA19EA120E030E04F
:101A400040E85FE30E946D2488232CF481E090E05D
:101A50009AA389A33FC06BA17CA18DA19EA120E088
:101A60003FEF4FE757E40E940D2418164CF56FA185
:101A700078A589A59AA520E030E040E251E40E94D3
:101A80006722DC01CB01BC01CD010E949120DC0169
:101A9000CB019AA389A30FC080E991E098A38F8F0F
:101AA0008F8D98A10197F1F798A38F8F89A19AA1A3
:101AB00001979AA389A389A19AA1009769F714C0F5
:101AC0006BA17CA18DA19EA10E949120DC01CB0184
:101AD0009AA389A389A19AA19E8F8D8F8D8D9E8DAA
:101AE0000197F1F79E8F8D8FE6EDF0E081E0808326
:101AF00080E090E0A0E8BFE3898F9A8FAB8FBC8F26
:101B0000698D7A8D8B8D9C8D20E030E04AE755E41D
:101B10000E946722DC01CB018D8B9E8BAF8BB88F2F
:101B20006D897E898F89988D20E030E040E85FE301
:101B30000E946D2488232CF481E090E09C8B8B8B99
:101B40003FC06D897E898F89988D20E03FEF4FE7F8
:101B500057E40E940D2418164CF5698D7A8D8B8DF3
:101B60009C8D20E030E040E251E40E946722DC01DD
:101B7000CB01BC01CD010E949120DC01CB019C8BEB
:101B80008B8B0FC080E991E09A8B898B89899A8928
:101B90000197F1F79A8B898B8B899C8901979C8B94
:101BA0008B8B8B899C89009769F714C06D897E891E
:101BB0008F89988D0E949120DC01CB019C8B8B8BAF
:101BC0008B899C89988B8F878F8598890197F1F7EE
:101BD000988B8F87E6EDF0E081EF808380E090E0E6
:101BE000A0E8BFE38B879C87AD87BE876B857C852C
:101BF0008D859E8520E030E04AE755E40E9467220B
:101C0000DC01CB018F839887A987BA876F8178859C
:101C100089859A8520E030E040E85FE30E946D24EA
:101C200088232CF481E090E09E838D833FC06F81F8
:101C3000788589859A8520E03FEF4FE757E40E9439
:101C40000D2418164CF56B857C858D859E8520E0CE
:101C500030E040E251E40E946722DC01CB01BC018C
:101C6000CD010E949120DC01CB019E838D830FC0AA
:101C700080E991E09C838B838B819C810197F1F7B4
:101C80009C838B838D819E8101979E838D838D8123
:101C90009E81009769F714C06F81788589859A8540
:101CA0000E949120DC01CB019E838D838D819E81DA
:101CB0009A83898389819A810197F1F79A8389832D
:101CC000CE52DF4F0FB6F894DEBF0FBECDBFCF911F
:101CD000DF911F910F910895DF93CF93CDB7DEB7BA
:101CE000E1ECF0E01082E0ECF0E01082E2ECF0E0F9
:101CF00086E08083E4ECF0E089E18083E5ECF0E0CD
:101D00001082E1ECF0E088E98083CF91DF910895C3
:101D1000DF93CF93CDB7DEB7E9ECF0E01082E8ECCB
:101D2000F0E01082EAECF0E086E08083ECECF0E09A
:101D300088E08083EDECF0E01082E9ECF0E088E9E7
:101D40008083CF91DF910895DF93CF93CDB7DEB736
:101D5000E1EDF0E01082E0EDF0E01082E2EDF0E085
:101D600086E08083E4EDF0E088E08083E5EDF0E05C
:101D70001082E1EDF0E088E98083CF91DF91089552
:101D8000DF93CF93CDB7DEB7E1E3F1E01082E0E37C
:101D9000F1E01082E2E3F1E086E08083E4E3F1E049
:101DA00087E68083E5E3F1E01082E1E3F1E088E992
:101DB0008083CF91DF9108950F931F93DF93CF938B
:101DC000CDB7DEB7C654D0400FB6F894DEBF0FBE15
:101DD000CDBF0E941B01FE01ED5BFF4F80E090E054
:101DE000A0E2B1E480839183A283B3838E01015C7E
:101DF0001F4FFE01ED5BFF4F6081718182819381F6
:101E000020E030E04AE755E40E946722DC01CB0184
:101E1000F80180839183A283B383FE01FF966081E2
:101E200071818281938120E030E040E85FE30E948D
:101E30006D2488232CF481E090E09EAF8DAF46C0E6
:101E4000FE01FF96608171818281938120E03FEFE6
:101E50004FE757E40E940D24181664F5FE01ED5B70
:101E6000FF4F608171818281938120E030E040E208
:101E700051E40E946722DC01CB01BC01CD010E942C
:101E80009120DC01CB019EAF8DAF0FC080E991E0C6
:101E90009CAF8BAF8BAD9CAD0197F1F79CAF8BAF37
:101EA0008DAD9EAD01979EAF8DAF8DAD9EAD009770
:101EB00069F716C0FE01FF9660817181828193816E
:101EC0000E949120DC01CB019EAF8DAF8DAD9EAD08
:101ED0009AAF89AF89AD9AAD0197F1F79AAF89AF03
:101EE0000E94320180E090E0A0E2B1E48DAB9EABB5
:101EF000AFABB8AF6DA97EA98FA998AD20E030E057
:101F00004AE755E40E946722DC01CB0189AB9AAB1A
:101F1000ABABBCAB69A97AA98BA99CA920E030E046
:101F200040E85FE30E946D2488232CF481E090E078
:101F300098AB8FA73FC069A97AA98BA99CA920E07B
:101F40003FEF4FE757E40E940D2418164CF56DA99A
:101F50007EA98FA998AD20E030E040E251E40E94D4
:101F60006722DC01CB01BC01CD010E949120DC0184
:101F7000CB0198AB8FA70FC080E991E09EA78DA7FA
:101F80008DA59EA50197F1F79EA78DA78FA598A96E
:101F9000019798AB8FA78FA598A9009769F714C0F0
:101FA00069A97AA98BA99CA90E949120DC01CB0187
:101FB00098AB8FA78FA598A99CA78BA78BA59CA54D
:101FC0000197F1F79CA78BA70E94A80480E090E0FE
:101FD000A0E2B1E48FA398A7A9A7BAA76FA178A59B
:101FE00089A59AA520E030E04AE755E40E946722DF
:101FF000DC01CB018BA39CA3ADA3BEA36BA17CA1F1
:102000008DA19EA120E030E040E85FE30E946D24B6
:1020100088232CF481E090E09AA389A33FC06BA1B0
:102020007CA18DA19EA120E03FEF4FE757E40E94E5
:102030000D2418164CF56FA178A589A59AA520E066
:1020400030E040E251E40E946722DC01CB01BC0198
:10205000CD010E949120DC01CB019AA389A30FC07E
:1020600080E991E098A38F8F8F8D98A10197F1F768
:1020700098A38F8F89A19AA101979AA389A389A177
:102080009AA1009769F714C06BA17CA18DA19EA1B4
:102090000E949120DC01CB019AA389A389A19AA176
:1020A0009E8F8D8F8D8D9E8D0197F1F79E8F8D8FD9
:1020B0000E94580180E090E0A0E2B1E4898F9A8FFD
:1020C000AB8FBC8F698D7A8D8B8D9C8D20E030E03D
:1020D0004AE755E40E946722DC01CB018D8B9E8B81
:1020E000AF8BB88F6D897E898F89988D20E030E025
:1020F00040E85FE30E946D2488232CF481E090E0A7
:102100009C8B8B8B3FC06D897E898F89988D20E059
:102110003FEF4FE757E40E940D2418164CF5698DE8
:102120007A8D8B8D9C8D20E030E040E251E40E945E
:102130006722DC01CB01BC01CD010E949120DC01B2
:10214000CB019C8B8B8B0FC080E991E09A8B898BA4
:1021500089899A890197F1F79A8B898B8B899C8958
:1021600001979C8B8B8B8B899C89009769F714C096
:102170006D897E898F89988D0E949120DC01CB0129
:102180009C8B8B8B8B899C89988B8F878F8598896B
:102190000197F1F7988B8F87E4ECF0E088E080837B
:1021A00080E090E0A8ECB2E48B879C87AD87BE8787
:1021B0006B857C858D859E8520E030E04AE755E47F
:1021C0000E946722DC01CB018F839887A987BA8799
:1021D0006F81788589859A8520E030E040E85FE36B
:1021E0000E946D2488232CF481E090E09E838D83EF
:1021F0003FC06F81788589859A8520E03FEF4FE762
:1022000057E40E940D2418164CF56B857C858D854E
:102210009E8520E030E040E251E40E946722DC012C
:10222000CB01BC01CD010E949120DC01CB019E833A
:102230008D830FC080E991E09C838B838B819C818F
:102240000197F1F79C838B838D819E8101979E83FB
:102250008D838D819E81009769F714C06F81788589
:1022600089859A850E949120DC01CB019E838D8314
:102270008D819E819A83898389819A810197F1F763
:102280009A838983CA5BDF4F0FB6F894DEBF0FBE17
:10229000CDBFCF91DF911F910F910895DF93CF9321
:1022A000CDB7DEB7F8940E94AC000E946C0E0E947D
:1022B000880E0E94A40E0E94C00E8BED90E024E0D8
:1022C00031E0B9010E949A2778940E94DC0EE4E282
:1022D000F0E01082CF91DF910895DF93CF9300D08B
:1022E00000D0CDB7DEB79C838B838B819C819E838E
:1022F0008D838D819E818230910549F18D819E81F2
:10230000833091052CF48D819E81009761F053C03C
:102310008D819E818330910571F18D819E81843004
:102320009105E9F148C01A8219820BC089819A810E
:10233000FC01E454FD4F108289819A8101969A83B1
:10234000898389819A818930910584F334C01A8206
:1023500019820BC089819A81FC01E05BFD4F1082DC
:1023600089819A8101969A83898389819A818035AE
:10237000910584F320C01A8219820BC089819A8149
:10238000FC01E050FE4F108289819A8101969A8368
:10239000898389819A818035910584F30CC01092DC
:1023A0005A0410925B0410925C0410925D04109227
:1023B0005E0410925F0426960FB6F894DEBF0FBE3F
:1023C000CDBFCF91DF910895DF93CF93CDB7DEB727
:1023D00080915702882F90E0982F8827909351047E
:1023E0008093500420915004309151048091580200
:1023F000882F90E0822B932B90935104809350046C
:1024000080915902882F90E0982F88279093530449
:1024100080935204209152043091530480915A02C7
:10242000882F90E0822B932B909353048093520437
:1024300080915B02882F90E0982F88279093550415
:1024400080935404209154043091550480915C028F
:10245000882F90E0822B932B909355048093540403
:1024600010925B04CF91DF910895EF92FF920F934A
:102470001F93DF93CF93CDB7DEB728970FB6F894AD
:10248000DEBF0FBECDBF1B821C821D821E8218863E
:102490001F821A8219821092B9021092B80280919A
:1024A0001102882F90E09C01220F331FC901880F71
:1024B000991F880F991F820F931F9C01205E314046
:1024C00080911202882F90E0C097820F931F909303
:1024D00081048093800480911302882F90E0C0973C
:1024E000AA2797FDA095BA2F20E432E44FE050E0F0
:1024F000BC01CD010E9444277B018C018091140214
:10250000882F90E0C097AA2797FDA095BA2F20EAC0
:1025100036E841E050E0BC01CD010E944427DC01D7
:10252000CB01B801A701480F591F6A1F7B1F80917B
:102530001602882F90E09C012053304080E197E202
:10254000FC012E9FC0012F9F900D3E9F900D1124E6
:10255000AA2797FDA095BA2F480F591F6A1F7B1F06
:1025600080911702882F90E09C012053304088EE24
:1025700093E0FC012E9FC0012F9F900D3E9F900D78
:102580001124AA2797FDA095BA2F480F591F6A1F3B
:102590007B1F80911802282F30E084E690E0FC0138
:1025A0002E9FC0012F9F900D3E9F900D1124805CA7
:1025B0009241AA2797FDA095BA2F480F591F6A1F6D
:1025C0007B1F80911902882F90E09C01220F331FFE
:1025D000C901880F991F880F991F820F931F805E72
:1025E0009140AA2797FDA095BA2F9A01AB01280F19
:1025F000391F4A1F5B1F80911A02882F90E0C097F5
:10260000AA2797FDA095BA2F820F931FA41FB51F6D
:102610008093820490938304A0938404B0938504F0
:102620008091820490918304A0918404B0918504E8
:10263000BC01CD010E949D24DC01CB01BC01CD0178
:1026400020E030E44CE156E40E946123DC01CB0140
:102650008093760490937704A0937804B0937904E0
:102660002DC08091B8029091B9029C01220F331FB6
:10267000C901880F991F880F991F820F931F90938C
:10268000B9028093B80289819A81C696FC01E05014
:10269000FE4F8081882F90E09C0120533040809134
:1026A000B8029091B902820F931F9093B902809360
:1026B000B80289819A8101969A83898389819A8156
:1026C000C696FC01E050FE4F80818E3249F0898130
:1026D0009A81C696FC01E050FE4F8081882309F65E
:1026E00080911E02282F30E084E690E0AC01249F08
:1026F000C001259F900D349F900D1124AC01405CCA
:10270000524180911F02882F90E09C01220F331FBD
:10271000C901880F991F880F991F820F931F805E30
:1027200091409A01280F391F80912002882F90E054
:10273000C097820F931F90937B0480937A048091BB
:102740002102882F90E0C097AA2797FDA095BA2F65
:1027500020E432E44FE050E0BC01CD010E94442768
:102760007B018C0180912202882F90E0C097AA27DC
:1027700097FDA095BA2F20EA36E841E050E0BC0171
:10278000CD010E944427DC01CB01B801A701480F0D
:10279000591F6A1F7B1F80912402882F90E09C01A3
:1027A0002053304080E197E2FC012E9FC0012F9F13
:1027B000900D3E9F900D1124AA2797FDA095BA2F4A
:1027C000480F591F6A1F7B1F80912502882F90E0B8
:1027D0009C012053304088EE93E0FC012E9FC00105
:1027E0002F9F900D3E9F900D1124AA2797FDA09535
:1027F000BA2F480F591F6A1F7B1F80912602282F6E
:1028000030E084E690E0FC012E9FC0012F9F900DE8
:102810003E9F900D1124805C9241AA2797FDA095C0
:10282000BA2F480F591F6A1F7B1F80912702882FDC
:1028300090E09C01220F331FC901880F991F880F58
:10284000991F820F931F805E9140AA2797FDA09544
:10285000BA2F9A01AB01280F391F4A1F5B1F8091C5
:102860002802882F90E0C097AA2797FDA095BA2F3D
:10287000820F931FA41FB51F80938E0490938F0423
:10288000A0939004B093910480918E0490918F0452
:10289000A0919004B0919104BC01CD010E949D24AF
:1028A000DC01CB01BC01CD0120E030E44CE156E479
:1028B0000E946123DC01CB018093860490938704FE
:1028C000A0938804B093890410925A0428960FB6F6
:1028D000F894DEBF0FBECDBFCF91DF911F910F9156
:1028E000FF90EF9008951F920F920FB60F920090F5
:1028F0005B000F9211248F939F93AF93BF93EF933D
:10290000FF93DF93CF93CDB7DEB7A5E2B0E0E5E26A
:10291000F0E0908180E589278C93CF91DF91FF9142
:10292000EF91BF91AF919F918F910F9000925B00BB
:102930000F900FBE0F901F9018951F920F920FB619
:102940000F9200905B000F9211248F93AF93BF936F
:10295000EF93FF93DF93CF93CDB7DEB7A5E2B0E05F
:10296000E5E2F0E0808180618C93CF91DF91FF916F
:10297000EF91BF91AF918F910F9000925B000F90FC
:102980000FBE0F901F9018951F920F920FB60F92C7
:1029900000905B000F9211248F93AF93BF93EF933E
:1029A000FF93DF93CF93CDB7DEB7A5E2B0E0E5E2CA
:1029B000F0E0808180648C93CF91DF91FF91EF9163
:1029C000BF91AF918F910F9000925B000F900FBE5F
:1029D0000F901F901895DF93CF93CDB7DEB7AC97CC
:1029E0000FB6F894DEBF0FBECDBF0E944E1183E03C
:1029F00090E00E946D1182E090E00E946D1184E0F1
:102A000090E00E946D111CA61BA685EC92E00E942E
:102A10002B280E94CE0472C080E090E0A8ECB2E4C3
:102A20008FA398A7A9A7BAA76FA178A589A59AA5EA
:102A300020E030E04AE755E40E946722DC01CB0148
:102A40008BA39CA3ADA3BEA36BA17CA18DA19EA1D2
:102A500020E030E040E85FE30E946D2488232CF4FE
:102A600081E090E09AA389A33FC06BA17CA18DA1D6
:102A70009EA120E03FEF4FE757E40E940D24181677
:102A80004CF56FA178A589A59AA520E030E040E239
:102A900051E40E946722DC01CB01BC01CD010E9400
:102AA0009120DC01CB019AA389A30FC080E991E0BA
:102AB00098A38F8F8F8D98A10197F1F798A38F8F8F
:102AC00089A19AA101979AA389A389A19AA10097A4
:102AD00069F714C06BA17CA18DA19EA10E949120D9
:102AE000DC01CB019AA389A389A19AA19E8F8D8F26
:102AF0008D8D9E8D0197F1F79E8F8D8F809148046B
:102B000090914904009709F487CFEEE6F0E087E062
:102B10008083E4E4F0E083E88083E5E4F0E084E0AF
:102B20008083E7E4F0E089E68083E8E4F0E080EA8F
:102B30008083E4E2F0E080E58083E1EDF0E0108264
:102B400080915A04813021F483E090E00E94381C87
:102B500080914E0490914F04009789F48BA59CA519
:102B600025E78033920759F48091BA029091BB0215
:102B70008130910521F4E1EDF0E088E980838091D6
:102B80005B048130A1F48BA59CA525E780339207D7
:102B900074F00E9435120E94E4110E94991C0E9458
:102BA000781F82E090E00E94381C1CA61BA68BA513
:102BB0009CA501969CA78BA780916A0490916B04B9
:102BC000833091050CF474C080E090E0A4E3B2E49B
:102BD000898F9A8FAB8FBC8F698D7A8D8B8D9C8DF1
:102BE00020E030E04AE755E40E946722DC01CB0197
:102BF0008D8B9E8BAF8BB88F6D897E898F89988DD9
:102C000020E030E040E85FE30E946D2488232CF44C
:102C100081E090E09C8B8B8B3FC06D897E898F8992
:102C2000988D20E03FEF4FE757E40E940D241816DF
:102C30004CF5698D7A8D8B8D9C8D20E030E040E2E3
:102C400051E40E946722DC01CB01BC01CD010E944E
:102C50009120DC01CB019C8B8B8B0FC080E991E034
:102C60009A8B898B89899A890197F1F79A8B898B3D
:102C70008B899C8901979C8B8B8B8B899C89009776
:102C800069F714C06D897E898F89988D0E94912083
:102C9000DC01CB019C8B8B8B8B899C89988B8F87DC
:102CA0008F8598890197F1F7988B8F870E94070489
:102CB00080916C0490916D048530910511F40E940F
:102CC0002F0480916E0490916F048930910509F072
:102CD00037CF10926F0410926E0480E090E0A8E469
:102CE000B2E48B879C87AD87BE876B857C858D859D
:102CF0009E8520E030E04AE755E40E946722DC012F
:102D0000CB018F839887A987BA876F81788589855A
:102D10009A8520E030E040E85FE30E946D2488233C
:102D20002CF481E090E09E838D833FC06F81788595
:102D300089859A8520E03FEF4FE757E40E940D24F4
:102D400018164CF56B857C858D859E8520E030E0DE
:102D500040E251E40E946722DC01CB01BC01CD01BD
:102D60000E949120DC01CB019E838D830FC080E9FE
:102D700091E09C838B838B819C810197F1F79C83ED
:102D80008B838D819E8101979E838D838D819E8112
:102D9000009769F714C06F81788589859A850E94AC
:102DA0009120DC01CB019E838D838D819E819A834E
:102DB000898389819A810197F1F79A8389830E9497
:102DC0005904BECE1F920F920FB60F9200905B0077
:102DD0000F9211248F939F93AF93BF93EF93FF9321
:102DE000DF93CF930F92CDB7DEB7809156049091C9
:102DF00057040097C1F4E9E6F0E0808181E090E0BB
:102E00009093570480935604A9E6B0E0E9E6F0E019
:102E100080818C7F8C93A9E6B0E0E9E6F0E08081C8
:102E200083608C9312C01092570410925604A9E646
:102E3000B0E0E9E6F0E080818C7F8C93A9E6B0E019
:102E4000E9E6F0E0808182608C930F90CF91DF9172
:102E5000FF91EF91BF91AF919F918F910F90009251
:102E60005B000F900FBE0F901F9018951F920F924E
:102E70000FB60F9200905B000F9211248F939F93D7
:102E8000EF93FF93DF93CF930F92CDB7DEB7E6E3D7
:102E9000F1E0808189838981843239F480915A04F8
:102EA000882319F481E080935C0480915C04813074
:102EB00019F580915E04882F90E0FC01E050FE4FF0
:102EC0008981808380915E048F5F80935E0480910E
:102ED0005E04853039F48981873421F010925E04D4
:102EE00010925C0489818A3039F481E080935A041D
:102EF00010925C0410925E040F90CF91DF91FF91CD
:102F0000EF919F918F910F9000925B000F900FBEF9
:102F10000F901F9018951F920F920FB60F9200906E
:102F20005B000F9211242F938F939F93EF93FF9346
:102F3000DF93CF93CDB7DEB7E6EDF0E080818093ED
:102F4000720480917204833739F480915B04882382
:102F500019F481E080935D0480915D04813039F53E
:102F600080915F04882F90E020917204FC01E05B67
:102F7000FD4F208380915F048F5F80935F04809179
:102F80005F04843049F480917204873B29F01092E9
:102F90005F0410925D040BC080915F048F3039F4A0
:102FA00081E080935B0410925D0410925F04CF91E6
:102FB000DF91FF91EF919F918F912F910F90009250
:102FC0005B000F900FBE0F901F9018951F920F92ED
:102FD0000FB60F9200905B000F9211242F933F9336
:102FE0004F935F936F937F938F939F93AF93BF9311
:102FF000EF93FF93DF93CF93CDB7DEB76197DEBF3B
:10300000CDBFE6ECF0E080818F87809170049091D5
:103010007104998B888B8889998982309105A1F0F8
:103020008889998983309105C9F088899989813087
:103030009105E9F480916A0490916B040196909354
:103040006B0480936A0413C080916C0490916D04AA
:10305000019690936D0480936C0409C080916E0476
:1030600090916F04019690936F0480936E04809109
:103070006204909163048130910591F48091600421
:1030800090916104FC01E454FD4F8F858083809111
:1030900060049091610401969093610480936004B0
:1030A0008F858F3F31F481E090E0909367048093A7
:1030B00066048F85893D39F481E090E0909369043E
:1030C00080936804A3C08F85863709F09BC08091E8
:1030D0006804909169048130910509F093C01092C1
:1030E00067041092660410926904109268041092AA
:1030F0004F0410924E048AE090E00E94242880E061
:1031000090E0A8ECB2E48B879C87AD87BE876B8587
:103110007C858D859E8520E030E04AE755E40E945D
:103120006722DC01CB018F839887A987BA876F81DB
:10313000788589859A8520E030E040E85FE30E9449
:103140006D2488232CF481E090E09E838D833FC022
:103150006F81788589859A8520E03FEF4FE757E4B6
:103160000E940D2418164CF56B857C858D859E85F7
:1031700020E030E040E251E40E946722DC01CB0114
:10318000BC01CD010E949120DC01CB019E838D8387
:103190000FC080E991E09C838B838B819C81019798
:1031A000F1F79C838B838D819E8101979E838D8314
:1031B0008D819E81009769F714C06F81788589851C
:1031C0009A850E949120DC01CB019E838D838D81A5
:1031D0009E819A83898389819A810197F1F79A83E5
:1031E000898380E090E00E946D1182E090E00E946F
:1031F0006D1183E090E00E946D1184E090E00E94E8
:103200006D1104C0109269041092680480916404E6
:10321000909165048130910559F4809166049091F4
:1032200067048130910521F4EEECF0E08F85808316
:103230006196DEBFCDBFCF91DF91FF91EF91BF913E
:10324000AF919F918F917F916F915F914F913F913E
:103250002F910F9000925B000F900FBE0F901F9068
:103260001895DF93CF930F920F92CDB7DEB78AE018
:1032700090E00E9424281A8219821EC089819A81B6
:10328000FC01E454FD4F8081282F30E000D00F92E4
:10329000EDB7FEB7319681EE92E091838083338360
:1032A00022830E9412280F900F900F900F90898117
:1032B0009A8101969A83898389819A8189309105BF
:1032C000ECF20F900F90CF91DF9108951F920F9223
:1032D0000FB60F9200905B000F9211242F933F9333
:1032E0004F935F936F937F938F939F93AF93BF930E
:1032F000EF93FF93DF93CF93CDB7DEB76197DEBF38
:10330000CDBFEEECF0E080818F8780914A049091F0
:103310004B048130910579F4E7E4F0E08F858083F8
:1033200081E090E090934D0480934C0410924B0404
:1033300010924A040FC080914C0490914D0481304A
:10334000910541F4E8E4F0E08F85808310924D040C
:1033500010924C048F85282F30E0398B288B888978
:1033600099898736910509F446C128893989283613
:103370003105F4F4888999898436910509F4D2C01D
:10338000288939892536310564F4888999898332F9
:10339000910509F4C0C0288939892336310539F1EE
:1033A0003CC1888999898636910509F42CC135C1BB
:1033B000288939892F36310509F409C18889998905
:1033C000803791053CF4288939892936310509F47B
:1033D0000DC123C1888999898237910509F410C1EB
:1033E000288939892337310509F48AC016C1E1E3F8
:1033F000F1E01082E1EDF0E0108281E090E0909346
:103400004F0480934E041092BB021092BA021092A5
:103410005B0410925A040E94780180E090E0A8ECCE
:10342000B2E48B879C87AD87BE876B857C858D8555
:103430009E8520E030E04AE755E40E946722DC01E7
:10344000CB018F839887A987BA876F817885898513
:103450009A8520E030E040E85FE30E946D248823F5
:103460002CF481E090E09E838D833FC06F8178854E
:1034700089859A8520E03FEF4FE757E40E940D24AD
:1034800018164CF56B857C858D859E8520E030E097
:1034900040E251E40E946722DC01CB01BC01CD0176
:1034A0000E949120DC01CB019E838D830FC080E9B7
:1034B00091E09C838B838B819C810197F1F79C83A6
:1034C0008B838D819E8101979E838D838D819E81CB
:1034D000009769F7A2C06F81788589859A850E94D7
:1034E0009120DC01CB019E838D838D819E819A8307
:1034F000898389819A810197F1F79A8389838DC0A5
:1035000081E090E0909349048093480485EE92E036
:103510000E942B2882C081E090E090934B0480931E
:103520004A047BC020916A0430916B0400D00F9252
:10353000EDB7FEB731968CEE92E0918380833383B2
:1035400022830E9412280F900F900F900F902091CD
:103550006C0430916D0400D00F92EDB7FEB7319638
:103560008BEF92E091838083338322830E94122821
:103570000F900F900F900F9020916E0430916F0478
:1035800000D00F92EDB7FEB731968AE093E09183B9
:103590008083338322830E9412280F900F900F9014
:1035A0000F90209148043091490400D00F92EDB75C
:1035B000FEB731968EE193E091838083338322833B
:1035C0000E9412280F900F900F900F9026C083E05A
:1035D00090E00E94261B82E090E00E94261B81E082
:1035E00090E09093BB028093BA0217C082E090E013
:1035F0000E94261B12C083E090E00E94261B0DC093
:103600000C9400000AC0E1E3F1E01082E1EDF0E08B
:1036100010821092BB021092BA026196DEBFCDBF3B
:10362000CF91DF91FF91EF91BF91AF919F918F91DA
:103630007F916F915F914F913F912F910F900092E9
:103640005B000F900FBE0F901F901895DF93CF93E4
:10365000CDB7DEB7A0970FB6F894DEBF0FBECDBFD3
:103660009E8F8D8F8D8D9E8D98A38F8F8F8D98A11E
:103670008230910509F47DC08F8D98A1833091052A
:1036800009F0EDC0E1E3F1E088E9808380E090E0BB
:10369000A0E0B0E4898F9A8FAB8FBC8F698D7A8D53
:1036A0008B8D9C8D20E030E04AE755E40E94672234
:1036B000DC01CB018D8B9E8BAF8BB88F6D897E89A2
:1036C0008F89988D20E030E040E85FE30E946D2410
:1036D00088232CF481E090E09C8B8B8B3FC06D891C
:1036E0007E898F89988D20E03FEF4FE757E40E9455
:1036F0000D2418164CF5698D7A8D8B8D9C8D20E0EC
:1037000030E040E251E40E946722DC01CB01BC01C1
:10371000CD010E949120DC01CB019C8B8B8B0FC0D3
:1037200080E991E09A8B898B89899A890197F1F7D1
:103730009A8B898B8B899C8901979C8B8B8B8B892E
:103740009C89009769F78BC06D897E898F89988DD8
:103750000E949120DC01CB019C8B8B8B8B899C89F7
:10376000988B8F878F8598890197F1F7988B8F8732
:1037700076C0E1EDF0E088E9808380E090E0A0E0B1
:10378000B0E48B879C87AD87BE876B857C858D85F4
:103790009E8520E030E04AE755E40E946722DC0184
:1037A000CB018F839887A987BA876F8178858985B0
:1037B0009A8520E030E040E85FE30E946D24882392
:1037C0002CF481E090E09E838D833FC06F817885EB
:1037D00089859A8520E03FEF4FE757E40E940D244A
:1037E00018164CF56B857C858D859E8520E030E034
:1037F00040E251E40E946722DC01CB01BC01CD0113
:103800000E949120DC01CB019E838D830FC080E953
:1038100091E09C838B838B819C810197F1F79C8342
:103820008B838D819E8101979E838D838D819E8167
:10383000009769F714C06F81788589859A850E9401
:103840009120DC01CB019E838D838D819E819A83A3
:10385000898389819A810197F1F79A838983A09658
:103860000FB6F894DEBF0FBECDBFCF91DF910895A4
:10387000DF93CF9300D000D0CDB7DEB79C838B838E
:103880008B819C819E838D838D819E818230910569
:1038900089F08D819E818330910509F041C080E0DF
:1038A00092E00E942B2883E090E00E946D1110921C
:1038B0005A0436C01A82198222C089819A818330C3
:1038C000910549F420919404309195048AE090E0A8
:1038D000B9010E94E62789819A81FC01E05BFD4FD6
:1038E0008081882F90E02091940430919504B90153
:1038F0000E94E62789819A8101969A83898389812A
:103900009A818F309105CCF28AE090E00E942428C1
:1039100082E090E00E946D1110925B0410925F04AF
:1039200026960FB6F894DEBF0FBECDBFCF91DF91C4
:103930000895EF92FF920F931F93DF93CF93CDB72C
:10394000DEB72E970FB6F894DEBF0FBECDBF8091C5
:103950005004909151042FEF8D3492075CF18091C7
:1039600050049091510499232CF58091500490912A
:10397000510488599E4FAA2797FDA095BA2FBC01E4
:10398000CD010E949D24DC01CB01BC01CD012BE7C0
:1039900034E14EE450E40E946123DC01CB01BC0120
:1039A000CD010E94FB24DC01CB0190935104809354
:1039B000500422C08091500490915104AA2797FD91
:1039C000A095BA2FBC01CD010E949D24DC01CB0142
:1039D000BC01CD012BE734E14EE450E40E946123A9
:1039E000DC01CB01BC01CD010E94FB24DC01CB0139
:1039F000909351048093500480E090E0A0E0B0E008
:103A00008D839E83AF83B88780E090E0A0E0B0E034
:103A100089839A83AB83BC832091760430917704A9
:103A20004091780450917904E0908604F0908704E6
:103A300000918804109189048DB79EB70A970FB63C
:103A4000F8949EBF0FBE8DBFEDB7FEB731968FE2E3
:103A500093E0918380832283338344835583E6827A
:103A6000F782008711870E941228EDB7FEB73A96B9
:103A70000FB6F894FEBF0FBEEDBF80917604909113
:103A80007704A0917804B09179042091AE0230912E
:103A9000AF024091B0025091B102BC01CD010E9431
:103AA0000922DC01CB017C018D018091860490917B
:103AB0008704A0918804B09189042091B2023091CA
:103AC000B3024091B4025091B502BC01CD010E94F5
:103AD0000922DC01CB019C01AD01C801B7010E94A4
:103AE0006123DC01CB01BC01CD010E946028DC0117
:103AF000CB01BC01CD0120E030E044E353E40E945F
:103B00006722DC01CB01BC01CD0128ED3FE049E497
:103B100050E40E946123DC01CB01BC01CD012BE705
:103B200034E14EE450E40E946123DC01CB018D833B
:103B30009E83AF83B8878091760490917704A0919B
:103B40007804B09179042091AE023091AF02409197
:103B5000B0025091B1021E86BC01CD010E946D24BD
:103B6000882314F4F1E0FE8781E02E8582278823E4
:103B700009F03DC08091860490918704A09188044B
:103B8000B09189042091B2023091B3024091B40205
:103B90005091B5021D86BC01CD010E946D24882381
:103BA00014F481E08D8781E09D8589278823F9F4CD
:103BB000809150049091510485549F4FAA2797FDFE
:103BC000A095BA2FBC01CD010E949D24DC01CB0140
:103BD000BC01CD012D813E814F8158850E943A2242
:103BE000DC01CB0189839A83AB83BC8302C18091C2
:103BF000760490917704A0917804B0917904209193
:103C0000AE023091AF024091B0025091B1021C86D9
:103C1000BC01CD010E946D24882314F4E1E0EC87FF
:103C200081E0FC858F27882309F03DC080918604C0
:103C300090918704A0918804B09189042091B202E8
:103C40003091B3024091B4025091B5021B86BC0181
:103C5000CD010E940D24181614F421E02B8781E079
:103C60009B8589278823F9F4809150049091510411
:103C70008B579F4FAA2797FDA095BA2FBC01CD0166
:103C80000E949D24DC01CB01BC01CD012D813E8130
:103C90004F8158850E943A22DC01CB0189839A83A7
:103CA000AB83BC83A6C08091760490917704A091E9
:103CB0007804B09179042091AE023091AF02409126
:103CC000B0025091B1021A86BC01CD010E940D24B0
:103CD000181614F4E1E0EA8781E0FA858F2788233B
:103CE00009F03DC08091860490918704A0918804DA
:103CF000B09189042091B2023091B3024091B40294
:103D00005091B5021986BC01CD010E940D241816F0
:103D100014F421E0298781E0998589278823F9F423
:103D200080915004909151048B579F4FAA2797FD83
:103D3000A095BA2FBC01CD010E949D24DC01CB01CE
:103D4000BC01CD012D813E814F8158850E943A22D0
:103D5000DC01CB0189839A83AB83BC834AC0809109
:103D6000760490917704A0917804B0917904209121
:103D7000AE023091AF024091B0025091B102BC014D
:103D8000CD010E940D241816A4F58091860490910F
:103D90008704A0918804B09189042091B2023091E7
:103DA000B3024091B4025091B502BC01CD010E9412
:103DB0006D248823F4F4809150049091510485542B
:103DC0009F4FAA2797FDA095BA2FBC01CD010E9455
:103DD0009D24DC01CB01BC01CD012D813E814F81B1
:103DE00058850E943A22DC01CB0189839A83AB83F8
:103DF000BC8369817A818B819C8120E030E047E53A
:103E000053E40E940D2418163CF569817A818B8158
:103E10009C8120E030E047E553E40E940922DC0168
:103E2000CB0189839A83AB83BC8307E410E069816B
:103E30007A818B819C8120E030E042ED52E40E9447
:103E40003A22DC01CB01BC01CD010E949120DC01B2
:103E5000CB01F80180833FC069817A818B819C818D
:103E600020E030E042ED52E40E946D2488233CF5CE
:103E700060E070E082ED92E429813A814B815C81BF
:103E80000E940922DC01CB0189839A83AB83BC8326
:103E900007E410E060E070E087E593E429813A816F
:103EA0004B815C810E940922DC01CB01BC01CD0168
:103EB0000E949120DC01CB01F80180830CC007E453
:103EC00010E069817A818B819C810E949120DC01C4
:103ED000CB01F80180832E960FB6F894DEBF0FBE9B
:103EE000CDBFCF91DF911F910F91FF90EF9008957B
:103EF000EF92FF920F931F93DF93CF93CDB7DEB76F
:103F00002E970FB6F894DEBF0FBECDBF809176041A
:103F100090917704A0917804B09179042091AE0239
:103F20003091AF024091B0025091B102BC01CD017D
:103F30000E940922DC01CB01BC01CD0120E030E46C
:103F400047EE54E40E946722DC01CB019C01AD01E5
:103F5000CA01B9010E946722DC01CB017C018D01FD
:103F60008091860490918704A0918804B09189047F
:103F70002091B2023091B3024091B4025091B50247
:103F8000BC01CD010E940922DC01CB01BC01CD01A5
:103F900020E030E049EB54E40E946722DC01CB01D1
:103FA0009C01AD01CA01B9010E946722DC01CB016D
:103FB0009C01AD01C801B7010E943A22DC01CB018E
:103FC000BC01CD010E942A29DC01CB018B879C8793
:103FD000AD87BE872091B8023091B9028091B602B8
:103FE0009091B702A901481B590BCA01AA2797FD56
:103FF000A095BA2FBC01CD010E949D24DC01CB010C
:104000008F839887A987BA876F81788589859A85F4
:104010002B853C854D855E850E946123DC01CB01AB
:10402000BC01CD010E946028DC01CB01BC01CD01A7
:1040300020E030E044E353E40E946722DC01CB013E
:10404000BC01CD0128ED3FE049E450E40E9461232A
:10405000DC01CB01BC01CD0126E636E646EE5FE38E
:104060000E946123DC01CB018B839C83AD83BE83E3
:104070001A8219828091520490915304AA2797FDC5
:10408000A095BA2FBC01CD010E949D24DC01CB017B
:10409000BC01CD012AE939E949ED5FE30E946123C2
:1040A000DC01CB01BC01CD010E94FB24DC01CB0172
:1040B0009C0180EA90E08C01021B130B6B817C81D8
:1040C0008D819E810E94FB24DC01CB019801281B7D
:1040D000390BC9019A83898389819A81883D910529
:1040E0002CF0E8E4F0E087ED80830EC089819A81AE
:1040F000803A91052CF4E8E4F0E080EA808304C083
:10410000E8E4F0E0898180832E960FB6F894DEBF54
:104110000FBECDBFCF91DF911F910F91FF90EF9018
:104120000895EF92FF920F931F937B018C0120E083
:1041300030E040E05FE40E943D2488238CF0C80119
:10414000B70120E030E040E05FE40E9409220E94D5
:10415000FB249B01AC01205030404040504806C039
:10416000C801B7010E94FB249B01AC01B901CA013F
:104170001F910F91FF90EF900895A0E0B0E0E3EC65
:10418000F0E20C946327DC012B01FA019C91923040
:1041900008F439C1EB018881823008F433C19430CE
:1041A00069F4843009F02FC111969C91119789818F
:1041B000981709F428C1AAE3B3E025C1843009F4B3
:1041C00021C18230A9F4923009F01DC19A01AD01DC
:1041D00088E0EA010990AE01E90109929E0181504F
:1041E000C1F7E201898111969C918923818308C1DD
:1041F000923009F407C112962D903C901397EB0171
:104200008A819B811496AD90BD90CD90DC901797DC
:10421000EC80FD800E811F819101281B390BB901B3
:1042200037FF04C066277727621B730B6032710566
:104230000CF061C0121613066CF537014801062E0A
:1042400004C096948794779467940A94D2F721E0F7
:1042500030E040E050E004C0220F331F441F551FE0
:104260006A95D2F721503040404050402E213F21E6
:1042700040235123211531054105510521F021E04D
:1042800030E040E050E079018A01E628F72808296B
:1042900019293CC0232BD1F1260E371E35014601CA
:1042A000062E04C096948794779467940A94D2F764
:1042B00021E030E040E050E004C0220F331F441FF3
:1042C000551F6A95D2F721503040404050402A2176
:1042D0003B214C215D21211531054105510521F07E
:1042E00021E030E040E050E059016A01A628B728FB
:1042F000C828D9280BC0821593052CF01C01AA24CC
:10430000BB24650103C0EE24FF24870111969C9114
:10431000D20111968C91981709F445C0992339F070
:10432000A80197012A193B094C095D0906C0A6019D
:1043300095012E193F09400B510B57FD08C0118202
:104340003382228224833583468357831DC081E0D4
:1043500081833382228288279927DC01821B930B79
:10436000A40BB50B84839583A683B7830DC0220F5E
:10437000331F441F551F248335834683578382810F
:10438000938101979383828324813581468157816C
:10439000DA01C9010197A109B1098F5F9F4FAF4FA2
:1043A000BF4328F30BC0918333822282EA0CFB1CAB
:1043B0000C1D1D1DE482F5820683178383E0808334
:1043C000248135814681578157FF1AC0C901AA2728
:1043D00097FDA095BA2F81709070A070B07056951F
:1043E000479537952795822B932BA42BB52B848348
:1043F0009583A683B7838281938101969383828379
:10440000DF0101C0D201CD01CDB7DEB7E2E10C94EE
:104410007F27A0E2B0E0EFE0F2E20C946F2769831F
:104420007A838B839C832D833E834F835887E9E077
:10443000EE2EF12CEC0EFD1ECE010196B7010E946E
:1044400073268E010F5E1F4FCE010596B8010E94A4
:1044500073268A8991E089278A8BC701B801AE014A
:10446000475E5F4F0E94BD200E949E25A096E6E019
:104470000C948B27A0E2B0E0E0E4F2E20C946F270A
:1044800069837A838B839C832D833E834F835887F4
:10449000F9E0EF2EF12CEC0EFD1ECE010196B701D6
:1044A0000E9473268E010F5E1F4FCE010596B80144
:1044B0000E947326C701B801AE01475E5F4F0E949C
:1044C000BD200E949E25A096E6E00C948B27A0E2DA
:1044D000B0E0EDE6F2E20C94632769837A838B8384
:1044E0009C832D833E834F835887CE010196BE0166
:1044F000675F7F4F0E947326CE010596BE016F5EF7
:104500007F4F0E9473269985923088F08989823086
:10451000C8F0943019F4823051F404C0843029F486
:10452000923081F48AE393E0C6C0923049F420E0EF
:104530009A858A89981321E02A87CE010996BBC003
:10454000823049F420E09A858A89981321E02A8BE9
:10455000CE014196B0C02D843E844F8458886D882A
:104560007E888F88988CEE24FF248701AA24BB24A0
:10457000650140E050E060E070E0E0E0F0E0C101A3
:1045800081709070892BE9F0E60CF71C081D191D4D
:104590009A01AB012A0D3B1D4C1D5D1D80E090E092
:1045A000A0E0B0E0E614F7040805190520F481E066
:1045B00090E0A0E0B0E0BA01A901480F591F6A1FBE
:1045C0007B1FAA0CBB1CCC1CDD1C97FE08C081E025
:1045D00090E0A0E0B0E0A82AB92ACA2ADB2A3196E6
:1045E000E032F10549F0660C771C881C991C569442
:1045F000479437942794C3CFFA85EA892B893C895D
:104600008B859C85280F391F2E5F3F4F17C0CA012D
:1046100081709070892B61F016950795F794E79457
:1046200080E090E0A0E0B0E8E82AF92A0A2B1B2BF2
:1046300076956795579547952F5F3F4F77FDE7CF65
:104640000CC0440F551F661F771F17FD4160EE0C0D
:10465000FF1C001F111F21503040403090E05907CF
:1046600090E0690790E4790760F32B8F3C8FDB01C2
:10467000CA018F779070A070B07080349105A10549
:10468000B10561F447FD0AC0E114F104010511050B
:1046900029F0405C5F4F6F4F7F4F40781A8EFE17B6
:1046A00011F081E08A8F4D8F5E8F6F8F78A383E04A
:1046B000898FCE0149960E949E25A096E2E10C9436
:1046C0007F27A8E1B0E0E7E6F3E20C946B2769836B
:1046D0007A838B839C832D833E834F835887B9E0F5
:1046E000EB2EF12CEC0EFD1ECE010196B7010E94BF
:1046F00073268E010F5E1F4FCE010596B8010E94F2
:1047000073262985223008F47EC03989323010F4AE
:10471000B8017CC08A859A8989278A87243011F05C
:10472000223031F4231709F06EC06AE373E06EC0E3
:10473000343039F41D861E861F86188A1C861B8617
:1047400004C0323021F484E08987B7015FC02B8533
:104750003C858B899C89281B390B3C872B87ED84F2
:10476000FE840F851889AD88BE88CF88D88CEA145E
:10477000FB040C051D0540F4EE0CFF1C001F111F6F
:10478000215030403C872B8720E030E040E050E073
:1047900080E090E0A0E0B0E460E070E0EA14FB04A8
:1047A0000C051D0540F0282B392B4A2B5B2BEA18F2
:1047B000FB080C091D09B695A79597958795EE0CF2
:1047C000FF1C001F111F6F5F7F4F6F31710531F7A5
:1047D000DA01C9018F779070A070B07080349105B4
:1047E000A105B10561F427FD0AC0E114F10401053A
:1047F000110529F0205C3F4F4F4F5F4F20782D87E8
:104800003E874F87588BBE01675F7F4FCB010E9469
:104810009E256896EAE00C948727A8E1B0E0E3E1E2
:10482000F4E20C946F2769837A838B839C832D83B6
:104830003E834F83588789E0E82EF12CEC0EFD1E55
:10484000CE010196B7010E9473268E010F5E1F4FA5
:10485000CE010596B8010E9473268985823040F00A
:104860008989823028F0C701B8010E94EB2601C077
:104870008FEF6896E6E00C948B27A8E1B0E0E3E4C4
:10488000F4E20C946F2769837A838B839C832D8356
:104890003E834F83588789E0E82EF12CEC0EFD1EF5
:1048A000CE010196B7010E9473268E010F5E1F4F45
:1048B000CE010596B8010E9473268985823040F0AA
:1048C0008989823028F0C701B8010E94EB2601C017
:1048D0008FEF6896E6E00C948B27A8E1B0E0E3E761
:1048E000F4E20C946F2769837A838B839C832D83F6
:1048F0003E834F83588789E0E82EF12CEC0EFD1E95
:10490000CE010196B7010E9473268E010F5E1F4FE4
:10491000CE010596B8010E9473268985823040F049
:104920008989823028F0C701B8010E94EB2601C0B6
:1049300081E06896E6E00C948B27A8E0B0E0E3EA1B
:10494000F4E20C946C279B01AC0183E08983DA01CB
:10495000C9018827B7FD83959927AA27BB27B82EB9
:10496000211531054105510519F482E089833AC0CA
:104970008823A9F0203080E0380780E0480780E8ED
:10498000580729F460E070E080E09FEC30C0EE242E
:10499000FF248701E21AF30A040B150B02C0790108
:1049A0008A018EE1C82ED12CDC82CB82ED82FE8280
:1049B0000F831887C801B7010E944F250197181669
:1049C000190684F4082E04C0EE0CFF1C001F111FF2
:1049D0000A94D2F7ED82FE820F831887C81AD90A8B
:1049E000DC82CB82BA82CE0101960E949E25289657
:1049F000E9E00C948827ACE0B0E0E1E0F5E20C944B
:104A0000732769837A838B839C83CE010196BE01D1
:104A10006B5F7F4F0E9473268D81823061F18230FF
:104A200050F1843021F48E81882351F12EC02F81E2
:104A3000388537FD20C06E812F3131051CF066238B
:104A4000F9F023C08EE190E0821B930B29853A8513
:104A50004B855C8504C056954795379527958A9573
:104A6000D2F76623B1F050954095309521953F4F90
:104A70004F4F5F4F0EC020E030E040E050E009C0F3
:104A80002FEF3FEF4FEF5FE704C020E030E040E062
:104A900050E8B901CA012C96E2E00C948F27EF92FE
:104AA000FF920F931F937B018C0180E0E81680E05A
:104AB000F80681E0080780E0180788F48FEFE81611
:104AC000F1040105110531F028F088E090E0A0E044
:104AD000B0E017C080E090E0A0E0B0E012C080E05D
:104AE000E81680E0F80680E0080781E0180728F063
:104AF00088E190E0A0E0B0E004C080E190E0A0E0B8
:104B0000B0E020E230E040E050E0281B390B4A0BD7
:104B10005B0B04C016950795F794E7948A95D2F736
:104B2000F701EE5BFC4F8081281B310941095109D7
:104B3000C9011F910F91FF90EF900895DF92EF92BE
:104B4000FF920F931F93FC01E480F580068117818B
:104B5000D1808081823048F480E090E0A0E1B0E034
:104B6000E82AF92A0A2B1B2BA5C0843009F49FC020
:104B7000823021F4EE24FF24870105C0E114F10402
:104B80000105110519F4E0E0F0E096C0628173813F
:104B90009FEF623879070CF05BC022E83FEF261BDD
:104BA000370B2A3131052CF020E030E040E050E0B6
:104BB0002AC0B801A701022E04C0769567955795C3
:104BC00047950A94D2F781E090E0A0E0B0E004C0FD
:104BD000880F991FAA1FBB1F2A95D2F70197A10919
:104BE000B1098E219F21A023B1230097A105B10512
:104BF00021F081E090E0A0E0B0E09A01AB01282B29
:104C0000392B4A2B5B2BDA01C9018F779070A0708A
:104C1000B07080349105A105B10539F427FF09C0B2
:104C2000205C3F4F4F4F5F4F04C0215C3F4F4F4FC1
:104C30005F4FE0E0F0E02030A0E03A07A0E04A0754
:104C4000A0E45A0710F0E1E0F0E079018A0127C002
:104C50006038710564F5FB01E158FF4FD801C701C9
:104C60008F779070A070B07080349105A105B10568
:104C700039F4E7FE0DC080E490E0A0E0B0E004C0AD
:104C80008FE390E0A0E0B0E0E80EF91E0A1F1B1FC2
:104C900017FF05C016950795F794E794319687E0BE
:104CA00016950795F794E7948A95D1F705C0EE24F9
:104CB000FF248701EFEFF0E06E2F67956627679579
:104CC000902F9F77D794DD24D7948E2F8695492FE8
:104CD000462B582F5D29B701CA011F910F91FF90F4
:104CE000EF90DF900895FC01DB014081518122812A
:104CF000622F6F7770E0221F2227221F9381892F56
:104D0000880F822B282F30E0991F9927991F119621
:104D10009C93119721153105A9F5411551056105A0
:104D2000710511F482E037C082E89FEF13969C93DF
:104D30008E9312979A01AB0167E0220F331F441F35
:104D4000551F6A95D1F783E08C930DC0220F331F56
:104D5000441F551F12968D919C911397019713969E
:104D60009C938E931297203080E0380780E04807AC
:104D700080E4580758F314962D933D934D935C931C
:104D8000179708952F3F310579F4411551056105B5
:104D9000710519F484E08C93089564FF03C081E0E9
:104DA0008C9312C01C9210C02F57304013963C9326
:104DB0002E93129783E08C9387E0440F551F661F54
:104DC000771F8A95D1F7706414964D935D936D9318
:104DD0007C93179708951F93DC01FB019C919230FF
:104DE00008F447C08081823008F443C0943051F405
:104DF00011961C91843099F58181682F70E0611BB8
:104E000071093FC0843021F0923031F48230B9F121
:104E10008181882389F12DC011961C9111978230D0
:104E2000F1F081811817D9F412962D913C911397C6
:104E3000828193818217930794F028173907BCF079
:104E400014968D919D910D90BC91A02D248135815A
:104E500046815781281739074A075B0718F4112341
:104E600041F00AC082179307A407B50740F4112345
:104E700019F061E070E005C06FEF7FEF02C060E005
:104E800070E0CB011F910895629FD001739FF001E4
:104E9000829FE00DF11D649FE00DF11D929FF00DCA
:104EA000839FF00D749FF00D659FF00D9927729F01
:104EB000B00DE11DF91F639FB00DE11DF91FBD018C
:104EC000CF01112408952F923F924F925F926F92DB
:104ED0007F928F929F92AF92BF92CF92DF92EF928A
:104EE000FF920F931F93CF93DF93CDB7DEB7CA1B0B
:104EF000DB0B0FB6F894DEBF0FBECDBF19942A8826
:104F0000398848885F846E847D848C849B84AA84DD
:104F1000B984C884DF80EE80FD800C811B81AA816A
:104F2000B981CE0FD11D0FB6F894DEBF0FBECDBF35
:104F3000ED0108950F931F93CF93DF938C01EB0145
:104F4000009731F46115710519F420E030E038C0A4
:104F500081E090E06EE070E00E94712BFC019C010A
:104F6000009771F180E88383209771F0D387C2871F
:104F700081E883838091920490919304892B21F49A
:104F8000F0939304E093920401151105C9F0118781
:104F9000008783818260838380919404909195043B
:104FA000892B71F4F0939504E09394048091960416
:104FB00090919704892B21F4F0939704E093960441
:104FC000C901DF91CF911F910F9108950F931F9306
:104FD000CF93DF938C01EB018B8181FF1BC082FF9C
:104FE0000DC02E813F818C819D812817390764F483
:104FF000E881F9810193F983E88306C0E885F985A2
:10500000802F1995892B31F48E819F8101969F8382
:105010008E8302C00FEF1FEFC801DF91CF911F9168
:105020000F910895DF93CF93CDB7DEB7FE0136968B
:10503000619171918091940490919504AF010E94C7
:105040006B29CF91DF91089560919404709195043C
:105050000E94E62708950F931F93CF93DF938C014F
:10506000E0919404F0919504838181FF21C0C0E018
:10507000D0E00DC0E0919404F09195042085318535
:10508000BF01F9011995892B11F0CFEFDFEFF8017E
:1050900081918F01882371F7E0919404F091950438
:1050A000208531858AE0BF01F9011995892B11F01E
:1050B000CFEFDFEFCE01DF91CF911F910F910895D8
:1050C000DF93DD27B92FBF7740E85FE31616170699
:1050D00048075B0710F4D92F51D09F938F937F938C
:1050E0006F93F6D0E4EEF0E013D037D02F913F91DC
:1050F0004F915F9154D0DD2349F09058A2EA2AEDF8
:105100003FE049EC5FE3D0785D2794D4DF9125C080
:10511000DF93CF931F930F93FF92EF92DF927B0168
:105120008C01689405C0DA2EEF0139D0FE01E894B5
:10513000A5912591359145915591AEF3EF017AD422
:10514000FE019701A801DA9479F7DF90EF90FF90C4
:105150000F911F91CF91DF910895092E0394000CB8
:1051600011F4882352F0BB0F40F4BF2B11F460FF01
:1051700004C06F5F7F4F8F4F9F4F08959B01AC011D
:1051800060E070E080E89FE39CCAC5D428F0CAD4F0
:1051900018F0952309F0A1C4B4C41124EDC4C9D4F6
:1051A000A0F3959FD1F3950F50E0551F629FF0013A
:1051B000729FBB27F00DB11D639FAA27F00DB11D93
:1051C000AA1F649F6627B00DA11D661F829F22271C
:1051D000B00DA11D621F739FB00DA11D621F839FA3
:1051E000A00D611D221F749F3327A00D611D231F79
:1051F000849F600D211D822F762F6A2F11249F57C7
:1052000050408AF0E1F088234AF0EE0FFF1FBB1FE9
:10521000661F771F881F91505040A9F79E3F510588
:1052200070F05BC4A9C45F3FECF3983EDCF3869555
:1052300077956795B795F795E7959F5FC1F7FE2B33
:10524000880F911D9695879597F9089511F40EF49E
:1052500058C449C476D4D0F39923D9F3CEF39F57D9
:10526000550B87FF51D40024A0E640EA90018058F6
:105270005695979528F4805C660F771F881F20F05D
:1052800026173707480730F4621B730B840B20295D
:1052900031294A2BA69517940794202531254A27B2
:1052A00058F7660F771F881F20F026173707480723
:1052B00030F4620B730B840B200D311D411DA09542
:1052C00081F7B901842F9158880F96958795089595
:1052D0009B01AC01FCC82F923F924F925F926F925C
:1052E0007F928F929F92AF92BF92CF92DF92EF9276
:1052F000FF920F931F93DF93CF93CDB7DEB72B971A
:105300000FB6F894DEBF0FBECDBF3C012B015A0192
:10531000FC0117821682838181FD03C06FEF7FEF4E
:10532000C6C19AE0892E1E010894211C311CF3018C
:105330002381F20123FD859123FF81912F01882391
:1053400009F4B2C1853239F423FD859123FF81919F
:105350002F01853229F490E0B3010E94E627E7CFC0
:10536000982FFF24EE249924FFE1FF15D0F09B3203
:1053700069F09C3228F4903259F0933291F40EC0C7
:105380009D3249F0903369F441E024C052E0F52A9F
:1053900084E0F82A28C098E0F92A25C0E0E1FE2A36
:1053A00022C0F7FC29C0892F80538A3070F4F6FEA2
:1053B00005C0989C902C1124980E15C0E89CE02CF8
:1053C0001124E80EF0E2FF2A0EC09E3229F4F6FC0A
:1053D0006BC140E4F42A07C09C3619F450E8F52A62
:1053E00002C0983649F4F20123FD959123FF919173
:1053F0002F01992309F0B8CF892F8554833018F0F5
:105400008052833038F444E050E0A40EB51E5FE3D0
:1054100059830FC0933631F0933779F0933509F003
:1054200056C020C0F5018081898342E050E0A40E7F
:10543000B51E610101E010E012C0F501C080D1800D
:10544000F6FC03C06FEF7FEF02C0692D70E042E011
:1054500050E0A40EB51EC6010E94A42C8C015FE78B
:10546000F52214C0F501C080D180F6FC03C06FEFB7
:105470007FEF02C0692D70E042E050E0A40EB51E3F
:10548000C6010E94922C8C0150E8F52AF3FE07C059
:105490001AC080E290E0B3010E94E627EA948E2DC4
:1054A00090E008171907A8F30EC0F601F7FC8591E4
:1054B000F7FE81916F0190E0B3010E94E627E110B1
:1054C000EA94015010400115110579F7EAC09436AD
:1054D00011F0993669F5F7FE08C0F5012081318198
:1054E0004281538184E090E00AC0F501808191817E
:1054F0009C01442737FD4095542F82E090E0A80E90
:10550000B91E9FE6F92257FF09C050954095309586
:1055100021953F4F4F4F5F4FE0E8FE2ACA01B90186
:10552000A1012AE030E00E94AF2CD82ED21840C052
:10553000953729F41F2D1F7E2AE030E01DC01F2D56
:10554000197F9F3661F0903720F4983509F0ACC090
:105550000FC0903739F0983709F0A6C004C028E092
:1055600030E00AC0106114FD146020E130E004C096
:1055700014FD166020E132E017FF08C0F5016081DC
:1055800071818281938144E050E008C0F5018081FF
:105590009181BC0180E090E042E050E0A40EB51E95
:1055A000A1010E94AF2CD82ED2188FE7F82EF1223D
:1055B000F6FE0BC05EEFF522D91438F4F4FE07C0F6
:1055C000F2FC05C08FEEF82202C01D2D01C0192D7E
:1055D000F4FE0DC0FE01ED0DF11D8081803319F444
:1055E00099EEF92208C01F5FF2FE05C003C08F2D9F
:1055F000867809F01F5F0F2DF3FC14C0F0FE0FC07A
:105600001E1510F09D2C0BC09D2C9E0C911A1E2D6A
:1056100006C080E290E0B3010E94E6271F5F1E15DE
:10562000C0F304C01E1510F4E11A01C0EE2404FFFB
:105630000FC080E390E0B3010E94E62702FF1DC087
:1056400001FD03C088E790E00EC088E590E00BC044
:10565000802F867891F001FF02C08BE201C080E2CA
:10566000F7FC8DE290E0B3010E94E62706C080E3DC
:1056700090E0B3010E94E6279A94D914C0F3DA941B
:10568000F101ED0DF11D808190E0B3010E94E6274C
:10569000DD20A9F706C080E290E0B3010E94E62772
:1056A000EA94EE20C1F743CEF30166817781CB0106
:1056B0002B960FB6F894DEBF0FBECDBFCF91DF9112
:1056C0001F910F91FF90EF90DF90CF90BF90AF9020
:1056D0009F908F907F906F905F904F903F902F9012
:1056E00008950F931F93CF93DF93689F8001699F65
:1056F000100D789F100D1124C8010E948D2BEC0114
:10570000009729F060E070E0A8010E949D2CCE0176
:10571000DF91CF911F910F910895CF93DF93BC013B
:105720008230910510F462E070E0A0919A04B0918B
:105730009B04ED01E0E0F0E040E050E021C0888112
:1057400099818617970769F48A819B81309719F0B0
:105750009383828304C090939B0480939A04FE01F8
:1057600034C06817790738F44115510519F08417CA
:10577000950708F4AC01FE018A819B819C01E90137
:105780002097E9F641155105A9F1CA01861B970B2F
:10579000049708F4BA01E0E0F0E02AC08D919C91F2
:1057A000119784179507F9F46417750781F4129619
:1057B0008D919C911397309719F09383828304C045
:1057C00090939B0480939A04FD0132964FC0CA01C6
:1057D000861B970BFD01E80FF91F619371930297E8
:1057E0008D939C9343C0FD01828193819C01D901DB
:1057F0001097A1F68091980490919904892B41F417
:105800008091440490914504909399048093980466
:1058100040914604509147044115510541F44DB75C
:105820005EB78091420490914304481B590B20912C
:1058300098043091990424173507B0F4CA01821BEB
:10584000930B8617970780F0AB014E5F5F4F84176D
:10585000950750F0420F531F5093990440939804BA
:10586000F9016193719302C0E0E0F0E0CF01DF91B4
:10587000CF910895CF93DF93009709F450C0EC01C6
:1058800022971B821A82A0919A04B0919B041097D0
:1058900009F140E050E0AC17BD0708F1BB83AA83D3
:1058A000FE0121913191E20FF31FAE17BF0779F48A
:1058B0008D919C911197280F391F2E5F3F4F39838F
:1058C000288312968D919C9113979B838A8341150F
:1058D000510571F4D0939B04C0939A0420C0129692
:1058E0008D919C911397AD01009711F0DC01D3CFFE
:1058F000FA01D383C28321913191E20FF31FCE17B6
:10590000DF0769F488819981280F391F2E5F3F4F87
:10591000FA01318320838A819B8193838283DF9183
:10592000CF910895FC010590615070400110D8F7A7
:10593000809590958E0F9F1F0895DC0101C06D9397
:1059400041505040E0F70895FC01615070400190D3
:105950000110D8F7809590958E0F9F1F0895FA013A
:10596000AA27283051F1203181F1E8946F936E7F9E
:105970006E5F7F4F8F4F9F4FAF4FB1E03ED0B4E08F
:105980003CD0670F781F891F9A1FA11D680F791FD0
:105990008A1F911DA11D6A0F711D811D911DA11DE1
:1059A00020D009F468943F912AE0269F11243019F1
:1059B000305D3193DEF6CF010895462F4770405D8C
:1059C0004193B3E00FD0C9F7F6CF462F4F70405D3B
:1059D0004A3318F0495D31FD4052419302D0A9F796
:1059E000EACFB4E0A6959795879577956795BA9590
:1059F000C9F700976105710508959B01AC010A2E56
:105A000006945795479537952795BA95C9F7620F2C
:105A1000731F841F951FA01D08957DD030F082D084
:105A200020F031F49F3F11F41EF46BC00EF4E095AA
:105A3000E7FB53C0E92F7DD080F3BA1762077307E5
:105A40008407950718F071F49EF595C00EF4E09563
:105A50000B2EBA2FA02D0B01B90190010C01CA0128
:105A6000A0011124FF27591B99F0593F50F4503ED3
:105A700068F11A16F040A22F232F342F4427585FC5
:105A8000F3CF469537952795A795F0405395C9F7DD
:105A90007EF41F16BA0B620B730B840BBAF0915095
:105AA000A1F0FF0FBB1F661F771F881FC2F70EC034
:105AB000BA0F621F731F841F48F487957795679507
:105AC000B795F7959E3F08F0B3CF9395880F08F0F0
:105AD0009927EE0F97958795089597F99F6780E826
