:100000000C9446000C9465000C9465000C946500FB
:100010000C9465000C9465000C9465000C946500CC
:100020000C9465000C9465000C9465000C946500BC
:100030000C9465000C9465000C9465000C946500AC
:100040000C9465000C9465000C9465000C9465009C
:100050000C9465000C9465000C9465000C9465008C
:100060000C9465000C9465000C9465000C9465007C
:100070000C9465000C9465000C9465000C9465006C
:100080000C9465000C9465000C94650011241FBE4F
:10009000CFEFD0E1DEBFCDBF11E0A0E0B1E0E4E6FC
:1000A000F1E000E00BBF02C007900D92A830B1074D
:1000B000D9F711E0A8E0B1E001C01D92AA30B10764
:1000C000E1F70E9467000C94B0000C9400008FEFE1
:1000D0008ABB17BA2091080130910901F901E0505B
:1000E000FF4F80818BBB49E150E064EC79E086B33F
:1000F0008130B1F480E29EE4FA013197F1F7019783
:10010000D9F72F5F3F4F2830310514F020E030E061
:1001100080E29EE4FA013197F1F70197D9F717C011
:1001200086B38230A1F480E29EE4FA013197F1F7C0
:100130000197D9F72150304037FF02C027E030E067
:1001400080E29EE4FA013197F1F70197D9F7F901BE
:10015000E050FF4F80818BBBCB010197F1F7C7CFF8
:04016000F894FFCF41
:08016400FEFDFBF7EFDFBF7F9A
:00000001FF
