:100000000C9446000C945D000C945D000C945D0013
:100010000C945D000C945D000C945D000C945D00EC
:100020000C945D000C945D000C945D000C945D00DC
:100030000C945D000C945D000C945D000C945D00CC
:100040000C945D000C945D000C945D000C945D00BC
:100050000C945D000C945D000C945D000C945D00AC
:100060000C945D000C945D000C945D000C945D009C
:100070000C945D000C945D000C945D000C945D008C
:100080000C945D000C945D000C945D0011241FBE67
:10009000CFEFD0E1DEBFCDBF11E0A0E0B1E0E4E002
:1000A000F1E000E00BBF02C007900D92A830B1074D
:1000B000D9F70E945F000C9480000C9400008FEF31
:1000C0008ABB11BA809100018BBB20E030E048E888
:1000D00053E18099FECFCA010197F1F72F5F3F4F9F
:1000E0002830310511F420E030E0F901E050FF4FF5
:1000F00080818BBB809BFECFCA010197F1F7E9CFCE
:04010000F894FFCFA1
:08010400FEFDFBF7EFDFBF7FFA
:00000001FF
