:100000000C9446000C9465000C9465000C946500FB
:100010000C9465000C9465000C9465000C946500CC
:100020000C9465000C9465000C9465000C946500BC
:100030000C9465000C9465000C94E2000C9465002F
:100040000C9465000C9465000C9465000C9465009C
:100050000C9465000C9465000C9465000C9465008C
:100060000C9465000C9465000C9465000C9465007C
:100070000C9465000C9465000C9465000C9465006C
:100080000C9465000C9465000C94650011241FBE4F
:10009000CFEFD0E1DEBFCDBF11E0A0E0B1E0E6E5FB
:1000A000FDE000E00BBF02C007900D92A634B1073F
:1000B000D9F711E0A6E4B1E001C01D92AB35B1075C
:1000C000E1F70E94AF010C94A9060C940000DF93A5
:1000D000CF93CDB7DEB7CF91DF910895DF93CF9364
:1000E00000D00F92CDB7DEB789837B836A83898185
:1000F0008A3029F48DE060E070E00E946E00EBE948
:10010000F0E08081882F90E0807290700097B9F3C2
:10011000ECE9F0E08981808380E090E00F900F901F
:100120000F90CF91DF910895DF93CF9300D0CDB79B
:10013000DEB79A838983EBE9F0E080818823DCF7DE
:10014000ECE9F0E08081882F90E00F900F90CF9144
:10015000DF910895DF93CF93CDB7DEB7EAE2F0E009
:100160001082EBE2F0E01082E5E9F0E086E08083C7
:10017000E9E2F0E088E08083E0E9F0E01082EAE282
:10018000F0E088E98083CF91DF910895DF93CF93EA
:10019000CDB7DEB7EAE9F0E01082EBE9F0E01082DB
:1001A000EDE9F0E086E08083E9E9F0E088E0808333
:1001B000E8E9F0E01082EAE9F0E088E98083CF9195
:1001C000DF9108951F920F920FB60F9200905B007F
:1001D0000F9211248F939F93EF93FF93DF93CF930D
:1001E00000D0CDB7DEB7E6E2F0E08FEF80838091FC
:1001F0004C0190914D019A83898389819A81813044
:10020000910571F189819A818230910509F44BC081
:1002100089819A81009709F063C0E7E2F0E080EC01
:100220008083E6E2F0E08081882F90E0807190701A
:100230000097B9F3E4E2F0E0808191819093470167
:1002400080934601E4E2F0E01182108280914C013B
:1002500090914D01019690934D0180934C0140C0C7
:10026000E7E2F0E081EC8083E6E2F0E08081882F35
:1002700090E0807190700097B9F3E4E2F0E0808143
:1002800091819093490180934801E4E2F0E011826A
:10029000108280914C0190914D01019690934D01F7
:1002A00080934C011DC0E7E2F0E082EC8083E6E23F
:1002B000F0E08081882F90E0807190700097B9F312
:1002C000E4E2F0E08081918190934B0180934A01B8
:1002D000E4E2F0E01182108210924D0110924C0184
:1002E000E6E2F0E010820F900F90CF91DF91FF9146
:1002F000EF919F918F910F9000925B000F900FBE36
:100300000F901F901895DF93CF93CDB7DEB7F89479
:100310000E9467000E94AA000E94C6008EE690E03C
:1003200024E930E0B9010E9448027894E1E6F0E067
:1003300088EF8083E6E2F0E01082EAE3F0E087E015
:100340008083E7E5F0E084E08083EFE4F0E0108272
:10035000EEE4F0E083E08083CF91DF910895DF93B6
:10036000CF93CDB7DEB70E94830180E091E00E9479
:10037000A602809148019091490121E08D329207B7
:100380005CF0ABE3B0E0EBE3F0E0808182608C9363
:1003900081E080934E010EC080914E01813051F476
:1003A000ABE3B0E0EBE3F0E0908182E089278C934F
:1003B00010924E01809146019091470121E08D32CB
:1003C00092075CF0ABE3B0E0EBE3F0E080818160AA
:1003D0008C9381E080934F010EC080914F0181305A
:1003E00051F4ABE3B0E0EBE3F0E0908181E08927EA
:1003F0008C9310924F0180914A0190914B0121E022
:10040000853F92075CF0ABE3B0E0EBE3F0E0808186
:1004100083608C9381E0809350010EC080915001E5
:10042000813051F4ABE3B0E0EBE3F0E0908183E0A6
:1004300089278C93109250012091460130914701F9
:10044000409148015091490160914A0170914B01DE
:100450008DB79EB708970FB6F8949EBF0FBE8DBF9D
:10046000EDB7FEB731968CE191E0918380833383C1
:10047000228355834483778366830E9494028DB7D9
:100480009EB708960FB6F8949EBF0FBE8DBF71CF72
:100490000F931F93CF93DF938C01EB01009731F4FF
:1004A0006115710519F420E030E038C081E090E07A
:1004B0006EE070E00E94E104FC019C01009771F184
:1004C00080E88383209771F0D387C28781E8838394
:1004D0008091510190915201892B21F4F0935201A6
:1004E000E093510101151105C9F01187008783813F
:1004F000826083838091530190915401892B71F420
:10050000F0935401E093530180915501909156016D
:10051000892B21F4F0935601E0935501C901DF9135
:10052000CF911F910F910895DF93CF93CDB7DEB791
:10053000FE01359661917191809153019091540122
:10054000AF010E94DB02CF91DF9108950F931F93BB
:10055000CF93DF938C01E0915301F091540183819B
:1005600081FF21C0C0E0D0E00DC0E0915301F091C7
:10057000540120853185BF01F9010995892B11F0BE
:10058000CFEFDFEFF80181918F01882371F7E091C0
:100590005301F0915401208531858AE0BF01F901B2
:1005A0000995892B11F0CFEFDFEFCE01DF91CF91CD
:1005B0001F910F9108952F923F924F925F926F92E9
:1005C0007F928F929F92AF92BF92CF92DF92EF92E3
:1005D000FF920F931F93DF93CF93CDB7DEB72B9787
:1005E0000FB6F894DEBF0FBECDBF3C012B015A0100
:1005F000FC0117821682838181FD03C06FEF7FEFBC
:10060000C6C19AE0892E1E010894211C311CF301F9
:100610002381F20123FD859123FF81912F018823FE
:1006200009F4B2C1853239F423FD859123FF81910C
:100630002F01853229F490E0B3010E941F06E7CF15
:10064000982FFF24EE249924FFE1FF15D0F09B3270
:1006500069F09C3228F4903259F0933291F40EC034
:100660009D3249F0903369F441E024C052E0F52A0C
:1006700084E0F82A28C098E0F92A25C0E0E1FE2AA3
:1006800022C0F7FC29C0892F80538A3070F4F6FE0F
:1006900005C0989C902C1124980E15C0E89CE02C65
:1006A0001124E80EF0E2FF2A0EC09E3229F4F6FC77
:1006B0006BC140E4F42A07C09C3619F450E8F52ACF
:1006C00002C0983649F4F20123FD959123FF9191E0
:1006D0002F01992309F0B8CF892F8554833018F062
:1006E0008052833038F444E050E0A40EB51E5FE33E
:1006F00059830FC0933631F0933779F0933509F071
:1007000056C020C0F5018081898342E050E0A40EEC
:10071000B51E610101E010E012C0F501C080D1807A
:10072000F6FC03C06FEF7FEF02C0692D70E042E07E
:1007300050E0A40EB51EC6010E9414068C015FE7AE
:10074000F52214C0F501C080D180F6FC03C06FEF24
:100750007FEF02C0692D70E042E050E0A40EB51EAC
:10076000C6010E9402068C0150E8F52AF3FE07C07C
:100770001AC080E290E0B3010E941F06EA948E2D19
:1007800090E008171907A8F30EC0F601F7FC859151
:10079000F7FE81916F0190E0B3010E941F06E11006
:1007A000EA94015010400115110579F7EAC094361A
:1007B00011F0993669F5F7FE08C0F5012081318105
:1007C0004281538184E090E00AC0F50180819181EB
:1007D0009C01442737FD4095542F82E090E0A80EFD
:1007E000B91E9FE6F92257FF09C0509540953095F4
:1007F00021953F4F4F4F5F4FE0E8FE2ACA01B901F4
:10080000A1012AE030E00E944B06D82ED21840C049
:10081000953729F41F2D1F7E2AE030E01DC01F2DC3
:10082000197F9F3661F0903720F4983509F0ACC0FD
:100830000FC0903739F0983709F0A6C004C028E0FF
:1008400030E00AC0106114FD146020E130E004C003
:1008500014FD166020E132E017FF08C0F501608149
:1008600071818281938144E050E008C0F50180816C
:100870009181BC0180E090E042E050E0A40EB51E02
:10088000A1010E944B06D82ED2188FE7F82EF12234
:10089000F6FE0BC05EEFF522D91438F4F4FE07C063
:1008A000F2FC05C08FEEF82202C01D2D01C0192DEB
:1008B000F4FE0DC0FE01ED0DF11D8081803319F4B1
:1008C00099EEF92208C01F5FF2FE05C003C08F2D0C
:1008D000867809F01F5F0F2DF3FC14C0F0FE0FC0E7
:1008E0001E1510F09D2C0BC09D2C9E0C911A1E2DD8
:1008F00006C080E290E0B3010E941F061F5F1E1534
:10090000C0F304C01E1510F4E11A01C0EE2404FF68
:100910000FC080E390E0B3010E941F0602FF1DC0DC
:1009200001FD03C088E790E00EC088E590E00BC0B1
:10093000802F867891F001FF02C08BE201C080E237
:10094000F7FC8DE290E0B3010E941F0606C080E331
:1009500090E0B3010E941F069A94D914C0F3DA9470
:10096000F101ED0DF11D808190E0B3010E941F06A1
:10097000DD20A9F706C080E290E0B3010E941F06C7
:10098000EA94EE20C1F743CEF30166817781CB0173
:100990002B960FB6F894DEBF0FBECDBFCF91DF917F
:1009A0001F910F91FF90EF90DF90CF90BF90AF908D
:1009B0009F908F907F906F905F904F903F902F907F
:1009C00008950F931F93CF93DF93689F8001699FD2
:1009D000100D789F100D1124C8010E94FD04EC0138
:1009E000009729F060E070E0A8010E940D06CE019A
:1009F000DF91CF911F910F910895CF93DF93BC01A9
:100A00008230910510F462E070E0A0915901B0913C
:100A10005A01ED01E0E0F0E040E050E021C08881C3
:100A200099818617970769F48A819B81309719F01D
:100A30009383828304C090935A0180935901FE01ED
:100A400034C06817790738F44115510519F0841737
:100A5000950708F4AC01FE018A819B819C01E901A4
:100A60002097E9F641155105A9F1CA01861B970B9C
:100A7000049708F4BA01E0E0F0E02AC08D919C915F
:100A8000119784179507F9F46417750781F4129686
:100A90008D919C911397309719F09383828304C0B2
:100AA00090935A0180935901FD0132964FC0CA01BB
:100AB000861B970BFD01E80FF91F61937193029755
:100AC0008D939C9343C0FD01828193819C01D90148
:100AD0001097A1F68091570190915801892B41F40C
:100AE0008091420190914301909358018093570166
:100AF00040914401509145014115510541F44DB7D4
:100B00005EB78091400190914101481B590B2091A3
:100B100057013091580124173507B0F4CA01821BE0
:100B2000930B8617970780F0AB014E5F5F4F8417DA
:100B3000950750F0420F531F5093580140935701AF
:100B4000F9016193719302C0E0E0F0E0CF01DF9121
:100B5000CF910895CF93DF93009709F450C0EC0133
:100B600022971B821A82A0915901B0915A011097C5
:100B700009F140E050E0AC17BD0708F1BB83AA8340
:100B8000FE0121913191E20FF31FAE17BF0779F4F7
:100B90008D919C911197280F391F2E5F3F4F3983FC
:100BA000288312968D919C9113979B838A8341157C
:100BB000510571F4D0935A01C093590120C0129687
:100BC0008D919C911397AD01009711F0DC01D3CF6B
:100BD000FA01D383C28321913191E20FF31FCE1723
:100BE000DF0769F488819981280F391F2E5F3F4FF5
:100BF000FA01318320838A819B8193838283DF91F1
:100C0000CF910895FC010590615070400110D8F714
:100C1000809590958E0F9F1F0895DC0101C06D9304
:100C200041505040E0F70895FC0161507040019040
:100C30000110D8F7809590958E0F9F1F08950F9300
:100C40001F93CF93DF938C01EB018B8181FF1BC03E
:100C500082FF0DC02E813F818C819D81281739072D
:100C600064F4E881F9810193F983E88306C0E8859B
:100C7000F985802F0995892B31F48E819F8101960A
:100C80009F838E8302C00FEF1FEFC801DF91CF91CA
:100C90001F910F910895FA01AA27283051F12031B0
:100CA00081F1E8946F936E7F6E5F7F4F8F4F9F4F00
:100CB000AF4FB1E03ED0B4E03CD0670F781F891F42
:100CC0009A1FA11D680F791F8A1F911DA11D6A0F10
:100CD000711D811D911DA11D20D009F468943F91C3
:100CE0002AE0269F11243019305D3193DEF6CF01C2
:100CF0000895462F4770405D4193B3E00FD0C9F788
:100D0000F6CF462F4F70405D4A3318F0495D31FDF4
:100D10004052419302D0A9F7EACFB4E0A695979547
:100D2000879577956795BA95C9F70097610571051D
:100D300008959B01AC010A2E069457954795379567
:100D40002795BA95C9F7620F731F841F951FA01DC1
:060D50000895F894FFCFA6
:100D56000D0A0D0A436F6E6E6563742077697468B9
:100D66002054696D65725F4144430D0076616C30B5
:100D7600203A202533642C2076616C31203A2025D8
:100D860033642C2076616C32203A202533640A00C5
:060D960020005B010000DB
:00000001FF
