:100000000C9446000C9465000C9465000C946500FB
:100010000C9465000C9467000C9465000C946500CA
:100020000C9465000C9465000C9465000C946500BC
:100030000C9465000C9465000C9465000C946500AC
:100040000C9465000C9465000C94290A0C946500CE
:100050000C9465000C9465000C9465000C9465008C
:100060000C9465000C9465000C9465000C9465007C
:100070000C9465000C9465000C94640B0C94650062
:100080000C9465000C9465000C94650011241FBE4F
:10009000CFEFD0E1DEBFCDBF12E0A0E0B1E0E6EFF0
:1000A000FBE200E00BBF02C007900D92AE30B1073B
:1000B000D9F712E0AEE0B2E001C01D92A533B1075E
:1000C000E1F70E940D090C94F9150C9400001F92A1
:1000D0000F920FB60F9200905B000F9211242F9396
:1000E0003F934F935F936F937F938F939F93AF93C0
:1000F000BF93EF93FF93DF93CF93CDB7DEB76C97AA
:10010000DEBFCDBF89E091E00E94F61180E090E073
:10011000A0EAB1E4898F9A8FAB8FBC8F698D7A8DFD
:100120008B8D9C8D20E030E04AE755E40E94D60D8F
:10013000DC01CB018D8B9E8BAF8BB88F6D897E8957
:100140008F89988D20E030E040E85FE30E94300F17
:1001500088232CF481E090E09C8B8B8B3FC06D89D1
:100160007E898F89988D20E03FEF4FE757E40E940A
:10017000D00E18164CF5698D7A8D8B8D9C8D20E0F4
:1001800030E040E251E40E94D60DDC01CB01BC011D
:10019000CD010E94000CDC01CB019C8B8B8B0FC02E
:1001A00080E991E09A8B898B89899A890197F1F787
:1001B0009A8B898B8B899C8901979C8B8B8B8B89E4
:1001C0009C89009769F714C06D897E898F89988D05
:1001D0000E94000CDC01CB019C8B8B8B8B899C8952
:1001E000988B8F878F8598890197F1F7988B8F87E8
:1001F000E1E2F0E08081882F90E0807190700097BC
:10020000B9F380E090E0A0EAB1E48B879C87AD87EA
:10021000BE876B857C858D859E8520E030E04AE732
:1002200055E40E94D60DDC01CB018F839887A98706
:10023000BA876F81788589859A8520E030E040E82B
:100240005FE30E94300F88232CF481E090E09E83CE
:100250008D833FC06F81788589859A8520E03FEF47
:100260004FE757E40E94D00E18164CF56B857C853D
:100270008D859E8520E030E040E251E40E94D60D5D
:10028000DC01CB01BC01CD010E94000CDC01CB01E3
:100290009E838D830FC080E991E09C838B838B814B
:1002A0009C810197F1F79C838B838D819E810197BF
:1002B0009E838D838D819E81009769F714C06F8125
:1002C000788589859A850E94000CDC01CB019E838C
:1002D0008D838D819E819A83898389819A810197FB
:1002E000F1F79A838983E9E5F0E01082E6E2F0E035
:1002F00010820E943202E8E5F0E080E180836C9693
:10030000DEBFCDBFCF91DF91FF91EF91BF91AF9154
:100310009F918F917F916F915F914F913F912F911D
:100320000F9000925B000F900FBE0F901F901895DA
:10033000DF93CF930F92CDB7DEB78983EBE2F0E086
:100340008081882F90E0807290700097B9F3ECE282
:10035000F0E08981808380E090E00F90CF91DF9181
:100360000895DF93CF93CDB7DEB700D0EDB7FEB7DA
:10037000319686E191E0918380830E94DD110F9098
:100380000F9086E50E94980180E00E94980186E225
:100390000E94980180E00E94980110921A02109227
:1003A0001902CF91DF910895DF93CF93CDB7DEB7D8
:1003B00000D0EDB7FEB7319680E291E09183808363
:1003C0000E94DD110F900F9086E50E94980180E059
:1003D0000E94980181E30E94980185E00E949801A3
:1003E00084E00E94980181E00E94980180E00E94D0
:1003F000980189E10E94980181E10E949801109280
:100400001A0210921902CF91DF910895DF93CF93D2
:10041000CDB7DEB700D0EDB7FEB731968BE291E0F5
:10042000918380830E94DD110F900F9086E50E94DA
:10043000980180E00E94980184E20E94980183E084
:100440000E94980181E00E9498018DE00E9498012D
:1004500086EA0E94980110921A0210921902CF9116
:10046000DF9108950F931F93DF93CF93CDB7DEB73E
:10047000C654D0400FB6F894DEBF0FBECDBF00D03B
:10048000EDB7FEB7319687E391E0918380830E94B8
:10049000DD110F900F9080E090E00E94E70881E06E
:1004A00090E090932A0280932902109224021092E5
:1004B000230210921A021092190210921E02109238
:1004C0001D021092200210921F0286E50E949801E0
:1004D000FE01ED5BFF4F80E090E0A0E8BFE380838A
:1004E0009183A283B3838E01015C1F4FFE01ED5BFC
:1004F000FF4F608171818281938120E030E04AE783
:1005000055E40E94D60DDC01CB01F8018083918374
:10051000A283B383FE01FF96608171818281938102
:1005200020E030E040E85FE30E94300F88232CF4A5
:1005300081E090E09EAF8DAF46C0FE01FF966081E6
:1005400071818281938120E03FEF4FE757E40E9461
:10055000D00E181664F5FE01ED5BFF4F60817181CE
:100560008281938120E030E040E251E40E94D60D88
:10057000DC01CB01BC01CD010E94000CDC01CB01F0
:100580009EAF8DAF0FC080E991E09CAF8BAF8BAD7C
:100590009CAD0197F1F79CAF8BAF8DAD9EAD0197F0
:1005A0009EAF8DAF8DAD9EAD009769F716C0FE0171
:1005B000FF9660817181828193810E94000CDC0131
:1005C000CB019EAF8DAF8DAD9EAD9AAF89AF89AD9A
:1005D0009AAD0197F1F79AAF89AF80E00E94980138
:1005E00080E090E0A0E8BFE38DAB9EABAFABB8AFCF
:1005F0006DA97EA98FA998AD20E030E04AE755E4C7
:100600000E94D60DDC01CB0189AB9AABABABBCAB86
:1006100069A97AA98BA99CA920E030E040E85FE3B2
:100620000E94300F88232CF481E090E098AB8FA7D4
:100630003FC069A97AA98BA99CA920E03FEF4FE7A9
:1006400057E40E94D00E18164CF56DA97EA98FA90B
:1006500098AD20E030E040E251E40E94D60DDC018C
:10066000CB01BC01CD010E94000CDC01CB0198AB99
:100670008FA70FC080E991E09EA78DA78DA59EA5AD
:100680000197F1F79EA78DA78FA598A9019798AB21
:100690008FA78FA598A9009769F714C069A97AA9AF
:1006A0008BA99CA90E94000CDC01CB0198AB8FA701
:1006B0008FA598A99CA78BA78BA59CA50197F1F75F
:1006C0009CA78BA786E30E94980180E090E0A0E8B9
:1006D000BFE38FA398A7A9A7BAA76FA178A589A5FB
:1006E0009AA520E030E04AE755E40E94D60DDC01EF
:1006F000CB018BA39CA3ADA3BEA36BA17CA18DA1B9
:100700009EA120E030E040E85FE30E94300F8823A4
:100710002CF481E090E09AA389A33FC06BA17CA157
:100720008DA19EA120E03FEF4FE757E40E94D00E3D
:1007300018164CF56FA178A589A59AA520E030E0A0
:1007400040E251E40E94D60DDC01CB01BC01CD0199
:100750000E94000CDC01CB019AA389A30FC080E9A1
:1007600091E098A38F8F8F8D98A10197F1F798A3AF
:100770008F8F89A19AA101979AA389A389A19AA190
:10078000009769F714C06BA17CA18DA19EA10E9466
:10079000000CDC01CB019AA389A389A19AA19E8FA9
:1007A0008D8F8D8D9E8D0197F1F79E8F8D8F81E0BE
:1007B0000E94980180E090E0A0E8BFE3898F9A8FC3
:1007C000AB8FBC8F698D7A8D8B8D9C8D20E030E056
:1007D0004AE755E40E94D60DDC01CB018D8B9E8B40
:1007E000AF8BB88F6D897E898F89988D20E030E03E
:1007F00040E85FE30E94300F88232CF481E090E012
:100800009C8B8B8B3FC06D897E898F89988D20E072
:100810003FEF4FE757E40E94D00E18164CF5698D54
:100820007A8D8B8D9C8D20E030E040E251E40E9477
:10083000D60DDC01CB01BC01CD010E94000CDC0116
:10084000CB019C8B8B8B0FC080E991E09A8B898BBD
:1008500089899A890197F1F79A8B898B8B899C8971
:1008600001979C8B8B8B8B899C89009769F714C0AF
:100870006D897E898F89988D0E94000CDC01CB01E7
:100880009C8B8B8B8B899C89988B8F878F85988984
:100890000197F1F7988B8F8783E00E94980180E0A1
:1008A00090E0A0E8BFE38B879C87AD87BE876B8510
:1008B0007C858D859E8520E030E04AE755E40E94E6
:1008C000D60DDC01CB018F839887A987BA876F810A
:1008D000788589859A8520E030E040E85FE30E94D2
:1008E000300F88232CF481E090E09E838D833FC0FD
:1008F0006F81788589859A8520E03FEF4FE757E43F
:100900000E94D00E18164CF56B857C858D859E85D2
:1009100020E030E040E251E40E94D60DDC01CB0142
:10092000BC01CD010E94000CDC01CB019E838D83B4
:100930000FC080E991E09C838B838B819C81019720
:10094000F1F79C838B838D819E8101979E838D839C
:100950008D819E81009769F714C06F8178858985A4
:100960009A850E94000CDC01CB019E838D838D81D2
:100970009E819A83898389819A810197F1F79A836D
:100980008983CA5BDF4F0FB6F894DEBF0FBECDBFC1
:10099000CF91DF911F910F910895DF93CF93CDB742
:1009A000DEB700D0EDB7FEB7319680E491E09183D9
:1009B00080830E94DD110F900F9082E090E0909371
:1009C0002A0280932902109224021092230210928C
:1009D00026021092250286E50E94980180E00E947E
:1009E000980186E30E94980181E00E94980180E0CE
:1009F0000E94980110921A0210921902CF91DF9171
:100A00000895DF93CF93CDB7DEB700D0EDB7FEB733
:100A1000319689E491E0918380830E94DD110F90EB
:100A20000F9083E090E090932A0280932902109225
:100A3000260210922502109228021092270281E0CD
:100A400090E090931C0280931B0286E50E9498011F
:100A500080E00E94980184E30E94980181E00E9456
:100A6000980180E00E949801CF91DF910895DF9373
:100A7000CF93CDB7DEB700D0EDB7FEB7319686E5A0
:100A800091E0918380830E94DD110F900F9010926E
:100A90002A021092290210921C0210921B0281E07D
:100AA00090E090931E0280931D02109220021092FB
:100AB0001F0286E50E94980180E00E94980182E36F
:100AC0000E9498018CE00E94980180E00E949801A9
:100AD0008AE00E94980180E00E94980180E00E94D4
:100AE000980180E00E94980180E00E94980180E0D7
:100AF0000E94980180E00E949801809107010E9465
:100B00009801809108010E94980180E00E9498015C
:100B10008AE00E94980110921A0210921902CF9155
:100B2000DF910895DF93CF93CDB7DEB700D0EDB757
:100B3000FEB7319682E691E0918380830E94DD11B9
:100B40000F900F9086E50E94980180E00E94980126
:100B500081E30E94980185E00E94980181E00E9453
:100B6000980181E00E94980182E10E94980184E04E
:100B70000E9498018FEF0E94980110921A02109221
:100B80001902CF91DF9108950F931F93DF93CF93B5
:100B9000CDB7DEB7C654D0400FB6F894DEBF0FBE57
:100BA000CDBF8AE691E00E94F6110E94B101FE01DC
:100BB000ED5BFF4F80E090E0AAE7B4E4808391838F
:100BC000A283B3838E01015C1F4FFE01ED5BFF4FDB
:100BD000608171818281938120E030E04AE755E4B1
:100BE0000E94D60DDC01CB01F80180839183A283A2
:100BF000B383FE01FF96608171818281938120E041
:100C000030E040E85FE30E94300F88232CF481E05D
:100C100090E09EAF8DAF46C0FE01FF96608171816E
:100C20008281938120E03FEF4FE757E40E94D00E8E
:100C3000181664F5FE01ED5BFF4F608171818281C2
:100C4000938120E030E040E251E40E94D60DDC01C7
:100C5000CB01BC01CD010E94000CDC01CB019EAF99
:100C60008DAF0FC080E991E09CAF8BAF8BAD9CAD99
:100C70000197F1F79CAF8BAF8DAD9EAD01979EAF05
:100C80008DAF8DAD9EAD009769F716C0FE01FF9642
:100C900060817181828193810E94000CDC01CB0113
:100CA0009EAF8DAF8DAD9EAD9AAF89AF89AD9AAD38
:100CB0000197F1F79AAF89AF0E94D40180E090E0EC
:100CC000A8E4B2E48DAB9EABAFABB8AF6DA97EA983
:100CD0008FA998AD20E030E04AE755E40E94D60D98
:100CE000DC01CB0189AB9AABABABBCAB69A97AA9F0
:100CF0008BA99CA920E030E040E85FE30E94300F20
:100D000088232CF481E090E098AB8FA73FC069A9BD
:100D10007AA98BA99CA920E03FEF4FE757E40E94F6
:100D2000D00E18164CF56DA97EA98FA998AD20E0BC
:100D300030E040E251E40E94D60DDC01CB01BC0161
:100D4000CD010E94000CDC01CB0198AB8FA70FC036
:100D500080E991E09EA78DA78DA59EA50197F1F74B
:100D60009EA78DA78FA598A9019798AB8FA78FA550
:100D700098A9009769F714C069A97AA98BA99CA9B9
:100D80000E94000CDC01CB0198AB8FA78FA598A91E
:100D90009CA78BA78BA59CA50197F1F79CA78BA778
:100DA0000E94920580E090E0A8E4B2E48FA398A7A7
:100DB000A9A7BAA76FA178A589A59AA520E030E0D8
:100DC0004AE755E40E94D60DDC01CB018BA39CA31E
:100DD000ADA3BEA36BA17CA18DA19EA120E030E0BC
:100DE00040E85FE30E94300F88232CF481E090E01C
:100DF0009AA389A33FC06BA17CA18DA19EA120E0F5
:100E00003FEF4FE757E40E94D00E18164CF56FA144
:100E100078A589A59AA520E030E040E251E40E943F
:100E2000D60DDC01CB01BC01CD010E94000CDC0120
:100E3000CB019AA389A30FC080E991E098A38F8F7B
:100E40008F8D98A10197F1F798A38F8F89A19AA10F
:100E500001979AA389A389A19AA1009769F714C061
:100E60006BA17CA18DA19EA10E94000CDC01CB0195
:100E70009AA389A389A19AA19E8F8D8F8D8D9E8D16
:100E80000197F1F79E8F8D8F0E94060280E090E01F
:100E9000A8E4B2E4898F9A8FAB8FBC8F698D7A8D6D
:100EA0008B8D9C8D20E030E04AE755E40E94D60D02
:100EB000DC01CB018D8B9E8BAF8BB88F6D897E89CA
:100EC0008F89988D20E030E040E85FE30E94300F8A
:100ED00088232CF481E090E09C8B8B8B3FC06D8944
:100EE0007E898F89988D20E03FEF4FE757E40E947D
:100EF000D00E18164CF5698D7A8D8B8D9C8D20E067
:100F000030E040E251E40E94D60DDC01CB01BC018F
:100F1000CD010E94000CDC01CB019C8B8B8B0FC0A0
:100F200080E991E09A8B898B89899A890197F1F7F9
:100F30009A8B898B8B899C8901979C8B8B8B8B8956
:100F40009C89009769F714C06D897E898F89988D77
:100F50000E94000CDC01CB019C8B8B8B8B899C89C4
:100F6000988B8F878F8598890197F1F7988B8F875A
:100F7000E9E2F0E088E0808300D0EDB7FEB731967B
:100F80008CE791E0918380830E94DD110F900F9098
:100F900080E090E0A8E4B2E48B879C87AD87BE87B1
:100FA0006B857C858D859E8520E030E04AE755E4A1
:100FB0000E94D60DDC01CB018F839887A987BA8761
:100FC0006F81788589859A8520E030E040E85FE38D
:100FD0000E94300F88232CF481E090E09E838D8363
:100FE0003FC06F81788589859A8520E03FEF4FE784
:100FF00057E40E94D00E18164CF56B857C858D85C4
:101000009E8520E030E040E251E40E94D60DDC01F4
:10101000CB01BC01CD010E94000CDC01CB019E8301
:101020008D830FC080E991E09C838B838B819C81B1
:101030000197F1F79C838B838D819E8101979E831D
:101040008D838D819E81009769F714C06F817885AB
:1010500089859A850E94000CDC01CB019E838D83DB
:101060008D819E819A83898389819A810197F1F785
:101070009A8389830E943202CA5BDF4F0FB6F894CD
:10108000DEBF0FBECDBFCF91DF911F910F910895AD
:10109000DF93CF93CDB7DEB7CF91DF910895DF9384
:1010A000CF9300D00F92CDB7DEB789837B836A835D
:1010B00089818A3029F48DE060E070E00E944F0859
:1010C000EBE9F0E08081882F90E0807290700097CB
:1010D000B9F3ECE9F0E08981808380E090E00F9043
:1010E0000F900F90CF91DF910895DF93CF9300D0B1
:1010F000CDB7DEB79A838983EBE9F0E0808188235E
:10110000DCF7ECE9F0E08081882F90E00F900F9001
:10111000CF91DF910895DF93CF93CDB7DEB7EAE2A9
:10112000F0E01082EBE2F0E01082E5E9F0E086E02A
:101130008083E9E2F0E088E08083E0E9F0E010827B
:10114000EAE2F0E088E98083CF91DF910895DF93B0
:10115000CF93CDB7DEB7EAE9F0E01082EBE9F0E03B
:101160001082EDE9F0E086E08083E9E9F0E088E0D4
:101170008083E8E9F0E01082EAE9F0E088E9808322
:10118000CF91DF910895DF93CF93CDB7DEB7F89479
:101190000E9448080E948B080E94A7088FE498E0EC
:1011A00025E738E0B9010E9491117894E2E2F0E07D
:1011B0001082EAE5F0E085E58083A9E5B0E0E9E5A5
:1011C000F0E0808180618C93CF91DF910895DF936F
:1011D000CF9300D000D0CDB7DEB79C838B838B81BB
:1011E0009C81009799F41A8219820BC089819A8197
:1011F000FC01E050FF4F108289819A8101969A8309
:10120000898389819A818930910584F30F900F90A9
:101210000F900F90CF91DF910895DF93CF93CDB7CB
:10122000DEB76C970FB6F894DEBF0FBECDBF0E943D
:10123000C3080E94C4058EE891E00E94F6118DEA71
:1012400091E00E94F6118091230290912402833054
:1012500091050CF474C080E090E0A4E3B2E4898FBF
:101260009A8FAB8FBC8F698D7A8D8B8D9C8D20E092
:1012700030E04AE755E40E94D60DDC01CB018D8BAE
:101280009E8BAF8BB88F6D897E898F89988D20E07A
:1012900030E040E85FE30E94300F88232CF481E0C7
:1012A00090E09C8B8B8B3FC06D897E898F89988D58
:1012B00020E03FEF4FE757E40E94D00E18164CF5A0
:1012C000698D7A8D8B8D9C8D20E030E040E251E479
:1012D0000E94D60DDC01CB01BC01CD010E94000CA7
:1012E000DC01CB019C8B8B8B0FC080E991E09A8B4A
:1012F000898B89899A890197F1F79A8B898B8B89D8
:101300009C8901979C8B8B8B8B899C89009769F7B3
:1013100014C06D897E898F89988D0E94000CDC0134
:10132000CB019C8B8B8B8B899C89988B8F878F852E
:1013300098890197F1F7988B8F870E94CD0480914F
:101340002502909126028530910511F40E94010535
:1013500080912702909128028930910509F073CF7E
:10136000109228021092270280E090E0A8E4B2E4F4
:101370008B879C87AD87BE876B857C858D859E8599
:1013800020E030E04AE755E40E94D60DDC01CB01B5
:101390008F839887A987BA876F81788589859A8591
:1013A00020E030E040E85FE30E94300F88232CF417
:1013B00081E090E09E838D833FC06F817885898531
:1013C0009A8520E03FEF4FE757E40E94D00E1816B1
:1013D0004CF56B857C858D859E8520E030E040E274
:1013E00051E40E94D60DDC01CB01BC01CD010E946D
:1013F000000CDC01CB019E838D830FC080E991E05E
:101400009C838B838B819C810197F1F79C838B83D9
:101410008D819E8101979E838D838D819E81009712
:1014200069F714C06F81788589859A850E94000CC0
:10143000DC01CB019E838D838D819E819A8389837C
:1014400089819A810197F1F79A8389830E943705F0
:10145000FACE1F920F920FB60F9200905B000F9280
:1014600011242F933F934F935F936F937F938F93A9
:101470009F93AF93BF93EF93FF93DF93CF93CDB73A
:10148000DEB76197DEBFCDBFECE2F0E080818F87F1
:101490008091290290912A02998B888B8889998959
:1014A00082309105A1F08889998983309105C9F02E
:1014B0008889998981309105E9F48091230290917E
:1014C00024020196909324028093230213C08091FA
:1014D0002502909126020196909326028093250280
:1014E00009C08091270290912802019690932802CA
:1014F0008093270280911B0290911C0281309105FC
:1015000091F48091190290911A02FC01E050FF4F72
:101510008F8580838091190290911A020196909391
:101520001A02809319028F858F3F31F481E090E099
:101530009093200280931F028F85893D39F481E0CA
:1015400090E0909322028093210293C08F8586378A
:1015500009F08BC080912102909122028130910587
:1015600009F083C01092200210921F0210922202F2
:10157000109221028AE090E00E94EF1180E090E05A
:10158000A8ECB2E48B879C87AD87BE876B857C8592
:101590008D859E8520E030E04AE755E40E94D60D17
:1015A000DC01CB018F839887A987BA876F81788503
:1015B00089859A8520E030E040E85FE30E94300FA3
:1015C00088232CF481E090E09E838D833FC06F815F
:1015D000788589859A8520E03FEF4FE757E40E94A0
:1015E000D00E18164CF56B857C858D859E8520E088
:1015F00030E040E251E40E94D60DDC01CB01BC0199
:10160000CD010E94000CDC01CB019E838D830FC0B5
:1016100080E991E09C838B838B819C810197F1F71A
:101620009C838B838D819E8101979E838D838D8189
:101630009E81009769F714C06F81788589859A85A6
:101640000E94000CDC01CB019E838D838D819E81E5
:101650009A83898389819A810197F1F79A83898393
:1016600080E090E00E94E70804C0109222021092ED
:10167000210280911D0290911E028130910559F442
:1016800080911F02909120028130910521F4ECE9B4
:10169000F0E08F8580836196DEBFCDBFCF91DF9173
:1016A000FF91EF91BF91AF919F918F917F916F913A
:1016B0005F914F913F912F910F9000925B000F909F
:1016C0000FBE0F901F9018951F920F920FB60F929A
:1016D00000905B000F9211242F933F934F935F93E1
:1016E0006F937F938F939F93AF93BF93EF93FF93EA
:1016F000DF93CF9300D00F92CDB7DEB7ECE9F0E0E7
:10170000808189838981282F30E03B832A838A81E5
:101710009B818336910531F02A813B812436310546
:1017200041F04AC08BEB91E00E94F6110E94320218
:1017300043C084E690E00E94EF1120912302309193
:10174000240200D000D0EDB7FEB731968DEB91E0CA
:1017500091838083338322830E94DD110F900F9049
:101760000F900F90209125023091260200D000D0DA
:10177000EDB7FEB731968CEC91E091838083338393
:1017800022830E94DD110F900F900F900F902091F7
:1017900027023091280200D000D0EDB7FEB7319675
:1017A0008BED91E091838083338322830E94DD114E
:1017B0000F900F900F900F90ECE9F0E08081882F50
:1017C00090E00E94EF118FEE91E00E94F6110F90D1
:1017D0000F900F90CF91DF91FF91EF91BF91AF915B
:1017E0009F918F917F916F915F914F913F912F9139
:1017F0000F9000925B000F900FBE0F901F901895F6
:10180000EF92FF920F931F937B018C0120E030E059
:1018100040E05FE40E94000F88238CF0C801B7010C
:1018200020E030E040E05FE40E94780D0E94600F0D
:101830009B01AC01205030404040504806C0C801D8
:10184000B7010E94600F9B01AC01B901CA011F9151
:101850000F91FF90EF900895A0E0B0E0E2E3FCE08C
:101860000C945A11DC012B01FA019C91923008F47E
:1018700039C1EB018881823008F433C1943069F4B6
:10188000843009F02FC111969C9111978981981786
:1018900009F428C1AFEFB1E025C1843009F421C1BA
:1018A0008230A9F4923009F01DC19A01AD0188E09F
:1018B000EA010990AE01E90109929E018150C1F748
:1018C000E201898111969C918923818308C192301C
:1018D00009F407C112962D903C901397EB018A8171
:1018E0009B811496AD90BD90CD90DC901797EC80C5
:1018F000FD800E811F819101281B390BB90137FF33
:1019000004C066277727621B730B603271050CF0E9
:1019100061C0121613066CF537014801062E04C08B
:1019200096948794779467940A94D2F721E030E0F4
:1019300040E050E004C0220F331F441F551F6A953A
:10194000D2F721503040404050402E213F214023CB
:101950005123211531054105510521F021E030E0E9
:1019600040E050E079018A01E628F7280829192982
:101970003CC0232BD1F1260E371E35014601062E21
:1019800004C096948794779467940A94D2F721E0E0
:1019900030E040E050E004C0220F331F441F551FC9
:1019A0006A95D2F721503040404050402A213B21D7
:1019B0004C215D21211531054105510521F021E022
:1019C00030E040E050E059016A01A628B728C82855
:1019D000D9280BC0821593052CF01C01AA24BB2426
:1019E000650103C0EE24FF24870111969C91D2016A
:1019F00011968C91981709F445C0992339F0A801E4
:101A000097012A193B094C095D0906C0A6019501F9
:101A10002E193F09400B510B57FD08C0118233822C
:101A2000228224833583468357831DC081E08183CE
:101A30003382228288279927DC01821B930BA40B17
:101A4000B50B84839583A683B7830DC0220F331F04
:101A5000441F551F24833583468357838281938196
:101A60000197938382832481358146815781DA01EE
:101A7000C9010197A109B1098F5F9F4FAF4FBF43C4
:101A800028F30BC0918333822282EA0CFB1C0C1DCD
:101A90001D1DE482F5820683178383E08083248101
:101AA00035814681578157FF1AC0C901AA2797FD82
:101AB000A095BA2F81709070A070B0705695479520
:101AC00037952795822B932BA42BB52B8483958355
:101AD000A683B78382819381019693838283DF01FA
:101AE00001C0D201CD01CDB7DEB7E2E10C94761191
:101AF000A0E2B0E0EEE7FDE00C94661169837A8322
:101B00008B839C832D833E834F835887E9E0EE2EA1
:101B1000F12CEC0EFD1ECE010196B7010E9489103A
:101B20008E010F5E1F4FCE010596B8010E948910ED
:101B30008A8991E089278A8BC701B801AE01475E87
:101B40005F4F0E942C0C0E94B40FA096E6E00C940C
:101B50008211A0E2B0E0EFEAFDE00C946611698327
:101B60007A838B839C832D833E834F835887F9E050
:101B7000EF2EF12CEC0EFD1ECE010196B7010E9456
:101B800089108E010F5E1F4FCE010596B8010E948D
:101B90008910C701B801AE01475E5F4F0E942C0C4F
:101BA0000E94B40FA096E6E00C948211A0E2B0E08F
:101BB000ECEDFDE00C945A1169837A838B839C834E
:101BC0002D833E834F835887CE010196BE01675F08
:101BD0007F4F0E948910CE010596BE016F5E7F4F38
:101BE0000E9489109985923088F089898230C8F0E6
:101BF000943019F4823051F404C0843029F49230C6
:101C000081F48FEF91E0C6C0923049F420E09A85CC
:101C10008A89981321E02A87CE010996BBC08230B9
:101C200049F420E09A858A89981321E02A8BCE0115
:101C30004196B0C02D843E844F8458886D887E883C
:101C40008F88988CEE24FF248701AA24BB24650189
:101C500040E050E060E070E0E0E0F0E0C101817061
:101C60009070892BE9F0E60CF71C081D191D9A01EC
:101C7000AB012A0D3B1D4C1D5D1D80E090E0A0E0F6
:101C8000B0E0E614F7040805190520F481E090E0BF
:101C9000A0E0B0E0BA01A901480F591F6A1F7B1FDD
:101CA000AA0CBB1CCC1CDD1C97FE08C081E090E098
:101CB000A0E0B0E0A82AB92ACA2ADB2A3196E0328D
:101CC000F10549F0660C771C881C991C56944794C2
:101CD00037942794C3CFFA85EA892B893C898B8571
:101CE0009C85280F391F2E5F3F4F17C0CA01817096
:101CF0009070892B61F016950795F794E79480E032
:101D000090E0A0E0B0E8E82AF92A0A2B1B2B769590
:101D10006795579547952F5F3F4F77FDE7CF0CC0ED
:101D2000440F551F661F771F17FD4160EE0CFF1C07
:101D3000001F111F21503040403090E0590790E0C3
:101D4000690790E4790760F32B8F3C8FDB01CA01B0
:101D50008F779070A070B07080349105A105B105A7
:101D600061F447FD0AC0E114F1040105110529F0F1
:101D7000405C5F4F6F4F7F4F40781A8EFE1711F017
:101D800081E08A8F4D8F5E8F6F8F78A383E0898F7C
:101D9000CE0149960E94B40FA096E2E10C94761110
:101DA000A8E1B0E0E6EDFEE00C94661169837A8369
:101DB0008B839C832D833E834F83588789E0E82E55
:101DC000F12CEC0EFD1ECE010196B7010E94891088
:101DD0008E010F5E1F4FCE010596B8010E9489103B
:101DE0008985823040F08989823028F0C701B801A6
:101DF0000E94011101C08FEF6896E6E00C948211F9
:101E0000A8E1B0E0E6E0FFE00C94661169837A8314
:101E10008B839C832D833E834F83588789E0E82EF4
:101E2000F12CEC0EFD1ECE010196B7010E94891027
:101E30008E010F5E1F4FCE010596B8010E948910DA
:101E40008985823040F08989823028F0C701B80145
:101E50000E94011101C08FEF6896E6E00C94821198
:101E6000A8E1B0E0E6E3FFE00C94661169837A83B1
:101E70008B839C832D833E834F83588789E0E82E94
:101E8000F12CEC0EFD1ECE010196B7010E948910C7
:101E90008E010F5E1F4FCE010596B8010E9489107A
:101EA0008985823040F08989823028F0C701B801E5
:101EB0000E94011101C081E06896E6E00C94821155
:101EC000ACE0B0E0E6E6FFE00C946A1169837A8347
:101ED0008B839C83CE010196BE016B5F7F4F0E9476
:101EE00089108D81823061F1823050F1843021F48B
:101EF0008E81882351F12EC02F81388537FD20C077
:101F00006E812F3131051CF06623F9F023C08EE17C
:101F100090E0821B930B29853A854B855C8504C034
:101F200056954795379527958A95D2F76623B1F050
:101F300050954095309521953F4F4F4F5F4F0EC0C4
:101F400020E030E040E050E009C02FEF3FEF4FEFDE
:101F50005FE704C020E030E040E050E8B901CA018A
:101F60002C96E2E00C948611DF92EF92FF920F9391
:101F70001F93FC01E480F58006811781D180808168
:101F8000823048F480E090E0A0E1B0E0E82AF92A4D
:101F90000A2B1B2BA5C0843009F49FC0823021F48A
:101FA000EE24FF24870105C0E114F10401051105A9
:101FB00019F4E0E0F0E096C0628173819FEF62382F
:101FC00079070CF05BC022E83FEF261B370B2A3164
:101FD00031052CF020E030E040E050E02AC0B801AC
:101FE000A701022E04C076956795579547950A94E8
:101FF000D2F781E090E0A0E0B0E004C0880F991F24
:10200000AA1FBB1F2A95D2F70197A109B1098E21FA
:102010009F21A023B1230097A105B10521F081E004
:1020200090E0A0E0B0E09A01AB01282B392B4A2BBD
:102030005B2BDA01C9018F779070A070B07080348B
:102040009105A105B10539F427FF09C0205C3F4F78
:102050004F4F5F4F04C0215C3F4F4F4F5F4FE0E059
:10206000F0E02030A0E03A07A0E04A07A0E45A07D9
:1020700010F0E1E0F0E079018A0127C060387105D5
:1020800064F5FB01E158FF4FD801C7018F779070CD
:10209000A070B07080349105A105B10539F4E7FE58
:1020A0000DC080E490E0A0E0B0E004C08FE390E0D9
:1020B000A0E0B0E0E80EF91E0A1F1B1F17FF05C0C5
:1020C00016950795F794E794319687E0169507954E
:1020D000F794E7948A95D1F705C0EE24FF24870191
:1020E000EFEFF0E06E2F679566276795902F9F774B
:1020F000D794DD24D7948E2F8695492F462B582FC1
:102100005D29B701CA011F910F91FF90EF90DF90F9
:102110000895FC01DB01408151812281622F6F779C
:1021200070E0221F2227221F9381892F880F822B84
:10213000282F30E0991F9927991F11969C9311978A
:1021400021153105A9F5411551056105710511F4F8
:1021500082E037C082E89FEF13969C938E9312978C
:102160009A01AB0167E0220F331F441F551F6A9588
:10217000D1F783E08C930DC0220F331F441F551FEE
:1021800012968D919C911397019713969C938E9321
:102190001297203080E0380780E0480780E4580735
:1021A00058F314962D933D934D935C931797089590
:1021B0002F3F310579F4411551056105710519F479
:1021C00084E08C93089564FF03C081E08C9312C077
:1021D0001C9210C02F57304013963C932E931297A9
:1021E00083E08C9387E0440F551F661F771F8A9505
:1021F000D1F7706414964D935D936D937C9317970C
:1022000008951F93DC01FB019C91923008F447C0B4
:102210008081823008F443C0943051F411961C91AF
:10222000843099F58181682F70E0611B71093FC08E
:10223000843021F0923031F48230B9F181818823E9
:1022400089F12DC011961C9111978230F1F0818196
:102250001817D9F412962D913C911397828193818E
:102260008217930794F028173907BCF014968D91C4
:102270009D910D90BC91A02D24813581468157817F
:10228000281739074A075B0718F4112341F00AC0E1
:1022900082179307A407B50740F4112319F061E0F2
:1022A00070E005C06FEF7FEF02C060E070E0CB012F
:1022B0001F9108952F923F924F925F926F927F925B
:1022C0008F929F92AF92BF92CF92DF92EF92FF9246
:1022D0000F931F93CF93DF93CDB7DEB7CA1BDB0BF2
:1022E0000FB6F894DEBF0FBECDBF09942A88398897
:1022F00048885F846E847D848C849B84AA84B9849E
:10230000C884DF80EE80FD800C811B81AA81B981A9
:10231000CE0FD11D0FB6F894DEBF0FBECDBFED01BD
:1023200008950F931F93CF93DF938C01EB010097D8
:1023300031F46115710519F420E030E038C081E016
:1023400090E06EE070E00E943114FC019C01009767
:1023500071F180E88383209771F0D387C28781E889
:10236000838380912B0290912C02892B21F4F0938E
:102370002C02E0932B0201151105C9F0118700878B
:1023800083818260838380912D0290912E02892B1C
:1023900071F4F0932E02E0932D0280912F02909120
:1023A0003002892B21F4F0933002E0932F02C9010F
:1023B000DF91CF911F910F910895DF93CF93CDB708
:1023C000DEB7FE0135966191719180912D02909159
:1023D0002E02AF010E942B12CF91DF9108956091E0
:1023E0002D0270912E020E946F1508950F931F9376
:1023F000CF93DF938C01E0912D02F0912E02838127
:1024000081FF21C0C0E0D0E00DC0E0912D02F0912D
:102410002E0220853185BF01F9010995892B11F024
:10242000CFEFDFEFF80181918F01882371F7E09101
:102430002D02F0912E02208531858AE0BF01F9013D
:102440000995892B11F0CFEFDFEFCE01DF91CF910E
:102450001F910F9108952F923F924F925F926F922A
:102460007F928F929F92AF92BF92CF92DF92EF9224
:10247000FF920F931F93DF93CF93CDB7DEB72B97C8
:102480000FB6F894DEBF0FBECDBF3C012B015A0141
:10249000FC0117821682838181FD03C06FEF7FEFFD
:1024A000C6C19AE0892E1E010894211C311CF3013B
:1024B0002381F20123FD859123FF81912F01882340
:1024C00009F4B2C1853239F423FD859123FF81914E
:1024D0002F01853229F490E0B3010E946F15E7CFF8
:1024E000982FFF24EE249924FFE1FF15D0F09B32B2
:1024F00069F09C3228F4903259F0933291F40EC076
:102500009D3249F0903369F441E024C052E0F52A4D
:1025100084E0F82A28C098E0F92A25C0E0E1FE2AE4
:1025200022C0F7FC29C0892F80538A3070F4F6FE50
:1025300005C0989C902C1124980E15C0E89CE02CA6
:102540001124E80EF0E2FF2A0EC09E3229F4F6FCB8
:102550006BC140E4F42A07C09C3619F450E8F52A10
:1025600002C0983649F4F20123FD959123FF919121
:102570002F01992309F0B8CF892F8554833018F0A3
:102580008052833038F444E050E0A40EB51E5FE37F
:1025900059830FC0933631F0933779F0933509F0B2
:1025A00056C020C0F5018081898342E050E0A40E2E
:1025B000B51E610101E010E012C0F501C080D180BC
:1025C000F6FC03C06FEF7FEF02C0692D70E042E0C0
:1025D00050E0A40EB51EC6010E9464158C015FE791
:1025E000F52214C0F501C080D180F6FC03C06FEF66
:1025F0007FEF02C0692D70E042E050E0A40EB51EEE
:10260000C6010E9452158C0150E8F52AF3FE07C05E
:102610001AC080E290E0B3010E946F15EA948E2DFB
:1026200090E008171907A8F30EC0F601F7FC859192
:10263000F7FE81916F0190E0B3010E946F15E110E8
:10264000EA94015010400115110579F7EAC094365B
:1026500011F0993669F5F7FE08C0F5012081318146
:102660004281538184E090E00AC0F501808191812C
:102670009C01442737FD4095542F82E090E0A80E3E
:10268000B91E9FE6F92257FF09C050954095309535
:1026900021953F4F4F4F5F4FE0E8FE2ACA01B90135
:1026A000A1012AE030E00E949B15D82ED21840C02C
:1026B000953729F41F2D1F7E2AE030E01DC01F2D05
:1026C000197F9F3661F0903720F4983509F0ACC03F
:1026D0000FC0903739F0983709F0A6C004C028E041
:1026E00030E00AC0106114FD146020E130E004C045
:1026F00014FD166020E132E017FF08C0F50160818B
:1027000071818281938144E050E008C0F5018081AD
:102710009181BC0180E090E042E050E0A40EB51E43
:10272000A1010E949B15D82ED2188FE7F82EF12216
:10273000F6FE0BC05EEFF522D91438F4F4FE07C0A4
:10274000F2FC05C08FEEF82202C01D2D01C0192D2C
:10275000F4FE0DC0FE01ED0DF11D8081803319F4F2
:1027600099EEF92208C01F5FF2FE05C003C08F2D4D
:10277000867809F01F5F0F2DF3FC14C0F0FE0FC028
:102780001E1510F09D2C0BC09D2C9E0C911A1E2D19
:1027900006C080E290E0B3010E946F151F5F1E1516
:1027A000C0F304C01E1510F4E11A01C0EE2404FFAA
:1027B0000FC080E390E0B3010E946F1502FF1DC0BF
:1027C00001FD03C088E790E00EC088E590E00BC0F3
:1027D000802F867891F001FF02C08BE201C080E279
:1027E000F7FC8DE290E0B3010E946F1506C080E314
:1027F00090E0B3010E946F159A94D914C0F3DA9453
:10280000F101ED0DF11D808190E0B3010E946F1583
:10281000DD20A9F706C080E290E0B3010E946F15A9
:10282000EA94EE20C1F743CEF30166817781CB01B4
:102830002B960FB6F894DEBF0FBECDBFCF91DF91C0
:102840001F910F91FF90EF90DF90CF90BF90AF90CE
:102850009F908F907F906F905F904F903F902F90C0
:1028600008950F931F93CF93DF93689F8001699F13
:10287000100D789F100D1124C8010E944D14EC0119
:10288000009729F060E070E0A8010E945D15CE017C
:10289000DF91CF911F910F910895CF93DF93BC01EA
:1028A0008230910510F462E070E0A0913302B091A3
:1028B0003402ED01E0E0F0E040E050E021C088812A
:1028C00099818617970769F48A819B81309719F05F
:1028D0009383828304C09093340280933302FE0179
:1028E00034C06817790738F44115510519F0841779
:1028F000950708F4AC01FE018A819B819C01E901E6
:102900002097E9F641155105A9F1CA01861B970BDD
:10291000049708F4BA01E0E0F0E02AC08D919C91A0
:10292000119784179507F9F46417750781F41296C7
:102930008D919C911397309719F09383828304C0F3
:102940009093340280933302FD0132964FC0CA0146
:10295000861B970BFD01E80FF91F61937193029796
:102960008D939C9343C0FD01828193819C01D90189
:102970001097A1F68091310290913202892B41F497
:102980008091090290910A02909332028093310261
:1029900040910B0250910C024115510541F44DB785
:1029A0005EB78091070290910802481B590B209155
:1029B00031023091320224173507B0F4CA01821B6C
:1029C000930B8617970780F0AB014E5F5F4F84171C
:1029D000950750F0420F531F50933202409331023B
:1029E000F9016193719302C0E0E0F0E0CF01DF9163
:1029F000CF910895CF93DF93009709F450C0EC0175
:102A000022971B821A82A0913302B0913402109750
:102A100009F140E050E0AC17BD0708F1BB83AA8381
:102A2000FE0121913191E20FF31FAE17BF0779F438
:102A30008D919C911197280F391F2E5F3F4F39833D
:102A4000288312968D919C9113979B838A834115BD
:102A5000510571F4D0933402C093330220C0129612
:102A60008D919C911397AD01009711F0DC01D3CFAC
:102A7000FA01D383C28321913191E20FF31FCE1764
:102A8000DF0769F488819981280F391F2E5F3F4F36
:102A9000FA01318320838A819B8193838283DF9132
:102AA000CF910895FC010590615070400110D8F756
:102AB000809590958E0F9F1F0895DC0101C06D9346
:102AC00041505040E0F70895FC0161507040019082
:102AD0000110D8F7809590958E0F9F1F08950F9342
:102AE0001F93CF93DF938C01EB018B8181FF1BC080
:102AF00082FF0DC02E813F818C819D81281739076F
:102B000064F4E881F9810193F983E88306C0E885DC
:102B1000F985802F0995892B31F48E819F8101964B
:102B20009F838E8302C00FEF1FEFC801DF91CF910B
:102B30001F910F910895FA01AA27283051F12031F1
:102B400081F1E8946F936E7F6E5F7F4F8F4F9F4F41
:102B5000AF4FB1E03ED0B4E03CD0670F781F891F83
:102B60009A1FA11D680F791F8A1F911DA11D6A0F51
:102B7000711D811D911DA11D20D009F468943F9104
:102B80002AE0269F11243019305D3193DEF6CF0103
:102B90000895462F4770405D4193B3E00FD0C9F7C9
:102BA000F6CF462F4F70405D4A3318F0495D31FD36
:102BB0004052419302D0A9F7EACFB4E0A695979589
:102BC000879577956795BA95C9F70097610571055F
:102BD00008959B01AC010A2E0694579547953795A9
:102BE0002795BA95C9F7620F731F841F951FA01D03
:062BF0000895F894FFCFE8
:102BF600000000000000000000494E5434204361EC
:102C06006C6C212121000D0A5245534554202000A9
:102C16000D0A524553495A452020000D0A53455482
:102C26005F5241544520000D0A49444C452020007E
:102C36000D0A53484F542020000D0A43414C4C5F67
:102C460053495A4520000D0A43414C4C5F494D47B4
:102C560020000D0A5A4950202000494E495420436D
:102C6600414D4552412043414C4C21000D0A206301
:102C760068616E6720626F756472617465000D0A23
:102C86000D0A436F6E6E6563742077697468204918
:102C9600726F6E4D616E5F537569740D004D4149DB
:102CA6004E2043414C4C5F4D452100630069646CE6
:102CB6006520636E74203A2025640A0073686F7479
:102CC6005F636E74203A2025640A0063616C6C5F52
:102CD60073697A655F636E74203A2025640A00552D
:102CE60053415254312052582043414C4C2100004C
:0E2CF600000000000000002000350200000079
:00000001FF
