:100000000C9446000C9465000C9465000C946500FB
:100010000C9465000C9465000C9465000C946500CC
:100020000C9465000C9465000C9465000C946500BC
:100030000C9465000C9465000C94FB000C94650016
:100040000C9465000C9465000C9424080C946500D5
:100050000C9465000C9465000C9465000C9465008C
:100060000C9465000C9465000C9465000C9465007C
:100070000C9465000C9465000C9463090C94650065
:100080000C9465000C9465000C94650011241FBE4F
:10009000CFEFD0E1DEBFCDBF11E0A0E0B1E0E0E105
:1000A000FEE200E00BBF02C007900D92AE37B10731
:1000B000D9F711E0AEE7B1E001C01D92A53AB10752
:1000C000E1F70E94F2090C9406170C940000DF93EC
:1000D000CF9300D00F92CDB7DEB789837B836A833D
:1000E00089818A3029F48DE060E070E00E94670029
:1000F000EBE9F0E08081882F90E0807290700097AB
:10010000B9F3ECE9F0E08981808380E090E00F9022
:100110000F900F90CF91DF910895DF93CF9300D090
:10012000CDB7DEB79A838983EBE9F0E0808188233D
:10013000DCF7ECE9F0E08081882F90E00F900F90E1
:10014000CF91DF910895DF93CF93CDB7DEB7E1E68E
:10015000F0E080EF8083E6E2F0E01082EAE3F0E096
:1001600087E08083E7E5F0E084E08083EFE4F0E07F
:100170001082EEE4F0E083E08083E7E3F0E01082B9
:10018000CF91DF910895DF93CF93CDB7DEB7EAE249
:10019000F0E01082EBE2F0E01082E5E9F0E086E0CA
:1001A0008083E9E2F0E089E18083E0E9F0E0108219
:1001B000EAE2F0E088E98083CF91DF910895DF9350
:1001C000CF93CDB7DEB7EAE9F0E01082EBE9F0E0DB
:1001D0001082EDE9F0E086E08083E9E9F0E088E074
:1001E0008083E8E9F0E01082EAE9F0E088E98083C2
:1001F000CF91DF9108951F920F920FB60F9200904A
:100200005B000F9211248F939F93EF93FF93DF93E3
:10021000CF9300D0CDB7DEB7E6E2F0E08FEF80837A
:1002200080918401909185019A83898389819A8143
:100230008130910571F189819A818230910509F4AB
:100240004BC089819A81009709F063C0E7E2F0E032
:1002500080EC8083E6E2F0E08081882F90E080717E
:1002600090700097B9F3E4E2F0E08081918190937F
:100270007F0180937E01E4E2F0E0118210828091A0
:10028000840190918501019690938501809384016A
:1002900040C0E7E2F0E081EC8083E6E2F0E08081BC
:1002A000882F90E0807190700097B9F3E4E2F0E05D
:1002B000808191819093810180938001E4E2F0E05C
:1002C0001182108280918401909185010196909312
:1002D0008501809384011DC0E7E2F0E082EC808319
:1002E000E6E2F0E08081882F90E0807190700097C6
:1002F000B9F3E4E2F0E080819181909383018093EF
:100300008201E4E2F0E011821082109285011092E5
:100310008401E6E2F0E010820F900F90CF91DF9120
:10032000FF91EF919F918F910F9000925B000F9042
:100330000FBE0F901F901895DF93CF93CDB7DEB708
:10034000F8940E94A3000E94C3000E94DF0087E689
:1003500090E02DE830E0B9010E949E1278940E944E
:10036000A300CF91DF910895DF93CF930F92CDB784
:10037000DEB78983EBE2F0E08081882F90E0807225
:1003800090700097B9F3ECE2F0E08981808380E01F
:1003900090E00F90CF91DF910895DF93CF93CDB789
:1003A000DEB786E50E94B40180E00E94B40186E2D7
:1003B0000E94B40180E00E94B40110928A01109260
:1003C0008901CF91DF910895DF93CF93CDB7DEB749
:1003D00086E50E94B40180E00E94B40181E30E949E
:1003E000B40185E00E94B40184E00E94B40181E080
:1003F0000E94B40180E00E94B40189E10E94B4012E
:1004000081E10E94B40110928A0110928901CF917A
:10041000DF910895DF93CF93CDB7DEB786E50E94D5
:10042000B40180E00E94B40184E20E94B40183E040
:100430000E94B40181E00E94B4018DE00E94B401E9
:1004400086EA0E94B40110928A0110928901CF912C
:10045000DF9108950F931F93DF93CF93CDB7DEB74E
:10046000C654D0400FB6F894DEBF0FBECDBF80E0BB
:1004700090E00E94FE0781E090E090939A018093C3
:100480009901109294011092930110928A01109296
:10049000890110928E0110928D011092900110929C
:1004A0008F0186E50E94B401FE01ED5BFF4F80E005
:1004B00090E0A0E8BFE380839183A283B3838E01A1
:1004C000015C1F4FFE01ED5BFF4F608171818281F6
:1004D000938120E030E04AE755E40E94E30EDC011E
:1004E000CB01F80180839183A283B383FE01FF9641
:1004F000608171818281938120E030E040E85FE398
:100500000E943D1088232CF481E090E09EAF8DAFD7
:1005100046C0FE01FF96608171818281938120E057
:100520003FEF4FE757E40E94DD0F181664F5FE0118
:10053000ED5BFF4F608171818281938120E030E02B
:1005400040E251E40E94E30EDC01CB01BC01CD018D
:100550000E940D0DDC01CB019EAF8DAF0FC080E975
:1005600091E09CAF8BAF8BAD9CAD0197F1F79CAF49
:100570008BAF8DAD9EAD01979EAF8DAF8DAD9EAD16
:10058000009769F716C0FE01FF9660817181828134
:1005900093810E940D0DDC01CB019EAF8DAF8DAD1F
:1005A0009EAD9AAF89AF89AD9AAD0197F1F79AAF39
:1005B00089AF80E00E94B40180E090E0A0E8BFE352
:1005C0008DAB9EABAFABB8AF6DA97EA98FA998AD2F
:1005D00020E030E04AE755E40E94E30EDC01CB0165
:1005E00089AB9AABABABBCAB69A97AA98BA99CA927
:1005F00020E030E040E85FE30E943D1088232CF4C7
:1006000081E090E098AB8FA73FC069A97AA98BA938
:100610009CA920E03FEF4FE757E40E94DD0F18163A
:100620004CF56DA97EA98FA998AD20E030E040E29D
:1006300051E40E94E30EDC01CB01BC01CD010E941C
:100640000D0DDC01CB0198AB8FA70FC080E991E0C5
:100650009EA78DA78DA59EA50197F1F79EA78DA7B3
:100660008FA598A9019798AB8FA78FA598A90097F8
:1006700069F714C069A97AA98BA99CA90E940D0DDC
:10068000DC01CB0198AB8FA78FA598A99CA78BA75E
:100690008BA59CA50197F1F79CA78BA786E30E94E9
:1006A000B40180E090E0A0E8BFE38FA398A7A9A7DA
:1006B000BAA76FA178A589A59AA520E030E04AE7FE
:1006C00055E40E94E30EDC01CB018BA39CA3ADA3F8
:1006D000BEA36BA17CA18DA19EA120E030E040E8EB
:1006E0005FE30E943D1088232CF481E090E09AA300
:1006F00089A33FC06BA17CA18DA19EA120E03FEF0B
:100700004FE757E40E94DD0F18164CF56FA178A54E
:1007100089A59AA520E030E040E251E40E94E30E72
:10072000DC01CB01BC01CD010E940D0DDC01CB0130
:100730009AA389A30FC080E991E098A38F8F8F8D32
:1007400098A10197F1F798A38F8F89A19AA101979A
:100750009AA389A389A19AA1009769F714C06BA1F4
:100760007CA18DA19EA10E940D0DDC01CB019AA35D
:1007700089A389A19AA19E8F8D8F8D8D9E8D0197C2
:10078000F1F79E8F8D8F81E00E94B40180E090E0B0
:10079000A0E8BFE3898F9A8FAB8FBC8F698D7A8D6C
:1007A0008B8D9C8D20E030E04AE755E40E94E30EFB
:1007B000DC01CB018D8B9E8BAF8BB88F6D897E89D1
:1007C0008F89988D20E030E040E85FE30E943D1083
:1007D00088232CF481E090E09C8B8B8B3FC06D894B
:1007E0007E898F89988D20E03FEF4FE757E40E9484
:1007F000DD0F18164CF5698D7A8D8B8D9C8D20E060
:1008000030E040E251E40E94E30EDC01CB01BC0188
:10081000CD010E940D0DDC01CB019C8B8B8B0FC099
:1008200080E991E09A8B898B89899A890197F1F700
:100830009A8B898B8B899C8901979C8B8B8B8B895D
:100840009C89009769F714C06D897E898F89988D7E
:100850000E940D0DDC01CB019C8B8B8B8B899C89BD
:10086000988B8F878F8598890197F1F7988B8F8761
:1008700083E00E94B40180E090E0A0E8BFE38B87B2
:100880009C87AD87BE876B857C858D859E8520E0A6
:1008900030E04AE755E40E94E30EDC01CB018F8390
:1008A0009887A987BA876F81788589859A8520E09E
:1008B00030E040E85FE30E943D1088232CF481E0A3
:1008C00090E09E838D833FC06F81788589859A856E
:1008D00020E03FEF4FE757E40E94DD0F18164CF57C
:1008E0006B857C858D859E8520E030E040E251E47B
:1008F0000E94E30EDC01CB01BC01CD010E940D0D75
:10090000DC01CB019E838D830FC080E991E09C8345
:100910008B838B819C810197F1F79C838B838D81E5
:100920009E8101979E838D838D819E81009769F7BB
:1009300014C06F81788589859A850E940D0DDC0130
:10094000CB019E838D838D819E819A83898389814A
:100950009A810197F1F79A838983CA5BDF4F0FB6BB
:10096000F894DEBF0FBECDBFCF91DF911F910F91E5
:100970000895DF93CF93CDB7DEB782E090E09093F8
:100980009A01809399011092940110929301109210
:1009900096011092950186E50E94B40180E00E94C4
:1009A000B40186E30E94B40181E00E94B40180E0BA
:1009B0000E94B40110928A0110928901CF91DF91B7
:1009C0000895DF93CF93CDB7DEB783E090E09093A7
:1009D0009A018093990110929601109295011092BC
:1009E00098011092970181E090E090938C018093A0
:1009F0008B0186E50E94B40180E00E94B40184E38B
:100A00000E94B40181E00E94B40180E00E94B40120
:100A1000CF91DF910895DF93CF93CDB7DEB71092DA
:100A20009A011092990110928C0110928B0181E031
:100A300090E090938E0180938D011092900110921E
:100A40008F0186E50E94B40180E00E94B40182E338
:100A50000E94B4018CE00E94B40180E00E94B401C5
:100A60008AE00E94B40180E00E94B40180E00E940C
:100A7000B40180E00E94B40180E00E94B40180E0F3
:100A80000E94B40180E00E94B401809107010E949D
:100A9000B401809108010E94B40180E00E94B40179
:100AA0008AE00E94B40110928A0110928901CF91CC
:100AB000DF910895DF93CF93CDB7DEB786E50E942F
:100AC000B40180E00E94B40181E30E94B40185E09A
:100AD0000E94B40181E00E94B40181E00E94B4014F
:100AE00082E10E94B40184E00E94B4018FEF0E9471
:100AF000B40110928A0110928901CF91DF9108957B
:100B00000F931F93DF93CF93CDB7DEB7C654D0407A
:100B10000FB6F894DEBF0FBECDBF0E94CD01FE011F
:100B2000ED5BFF4F80E090E0AAE7B4E4808391831F
:100B3000A283B3838E01015C1F4FFE01ED5BFF4F6B
:100B4000608171818281938120E030E04AE755E441
:100B50000E94E30EDC01CB01F80180839183A28324
:100B6000B383FE01FF96608171818281938120E0D1
:100B700030E040E85FE30E943D1088232CF481E0E0
:100B800090E09EAF8DAF46C0FE01FF9660817181FF
:100B90008281938120E03FEF4FE757E40E94DD0F11
:100BA000181664F5FE01ED5BFF4F60817181828153
:100BB000938120E030E040E251E40E94E30EDC014A
:100BC000CB01BC01CD010E940D0DDC01CB019EAF1C
:100BD0008DAF0FC080E991E09CAF8BAF8BAD9CAD2A
:100BE0000197F1F79CAF8BAF8DAD9EAD01979EAF96
:100BF0008DAF8DAD9EAD009769F716C0FE01FF96D3
:100C000060817181828193810E940D0DDC01CB0195
:100C10009EAF8DAF8DAD9EAD9AAF89AF89AD9AADC8
:100C20000197F1F79AAF89AF0E94E40180E090E06C
:100C3000A8E4B2E48DAB9EABAFABB8AF6DA97EA913
:100C40008FA998AD20E030E04AE755E40E94E30E1A
:100C5000DC01CB0189AB9AABABABBCAB69A97AA980
:100C60008BA99CA920E030E040E85FE30E943D10A2
:100C700088232CF481E090E098AB8FA73FC069A94E
:100C80007AA98BA99CA920E03FEF4FE757E40E9487
:100C9000DD0F18164CF56DA97EA98FA998AD20E03F
:100CA00030E040E251E40E94E30EDC01CB01BC01E4
:100CB000CD010E940D0DDC01CB0198AB8FA70FC0B9
:100CC00080E991E09EA78DA78DA59EA50197F1F7DC
:100CD0009EA78DA78FA598A9019798AB8FA78FA5E1
:100CE00098A9009769F714C069A97AA98BA99CA94A
:100CF0000E940D0DDC01CB0198AB8FA78FA598A9A1
:100D00009CA78BA78BA59CA50197F1F79CA78BA708
:100D10000E945A0580E090E0A8E4B2E48FA398A76F
:100D2000A9A7BAA76FA178A589A59AA520E030E068
:100D30004AE755E40E94E30EDC01CB018BA39CA3A0
:100D4000ADA3BEA36BA17CA18DA19EA120E030E04C
:100D500040E85FE30E943D1088232CF481E090E09E
:100D60009AA389A33FC06BA17CA18DA19EA120E085
:100D70003FEF4FE757E40E94DD0F18164CF56FA1C7
:100D800078A589A59AA520E030E040E251E40E94D0
:100D9000E30EDC01CB01BC01CD010E940D0DDC0195
:100DA000CB019AA389A30FC080E991E098A38F8F0C
:100DB0008F8D98A10197F1F798A38F8F89A19AA1A0
:100DC00001979AA389A389A19AA1009769F714C0F2
:100DD0006BA17CA18DA19EA10E940D0DDC01CB0118
:100DE0009AA389A389A19AA19E8F8D8F8D8D9E8DA7
:100DF0000197F1F79E8F8D8F0E940A0280E090E0AC
:100E0000A8E4B2E4898F9A8FAB8FBC8F698D7A8DFD
:100E10008B8D9C8D20E030E04AE755E40E94E30E84
:100E2000DC01CB018D8B9E8BAF8BB88F6D897E895A
:100E30008F89988D20E030E040E85FE30E943D100C
:100E400088232CF481E090E09C8B8B8B3FC06D89D4
:100E50007E898F89988D20E03FEF4FE757E40E940D
:100E6000DD0F18164CF5698D7A8D8B8D9C8D20E0E9
:100E700030E040E251E40E94E30EDC01CB01BC0112
:100E8000CD010E940D0DDC01CB019C8B8B8B0FC023
:100E900080E991E09A8B898B89899A890197F1F78A
:100EA0009A8B898B8B899C8901979C8B8B8B8B89E7
:100EB0009C89009769F714C06D897E898F89988D08
:100EC0000E940D0DDC01CB019C8B8B8B8B899C8947
:100ED000988B8F878F8598890197F1F7988B8F87EB
:100EE000E9E2F0E088E0808300D0EDB7FEB731960C
:100EF00089E091E0918380830E94EA120F900F9025
:100F000080E090E0A8E4B2E48B879C87AD87BE8741
:100F10006B857C858D859E8520E030E04AE755E431
:100F20000E94E30EDC01CB018F839887A987BA87E3
:100F30006F81788589859A8520E030E040E85FE31D
:100F40000E943D1088232CF481E090E09E838D83E5
:100F50003FC06F81788589859A8520E03FEF4FE714
:100F600057E40E94DD0F18164CF56B857C858D8546
:100F70009E8520E030E040E251E40E94E30EDC0177
:100F8000CB01BC01CD010E940D0DDC01CB019E8384
:100F90008D830FC080E991E09C838B838B819C8142
:100FA0000197F1F79C838B838D819E8101979E83AE
:100FB0008D838D819E81009769F714C06F8178853C
:100FC00089859A850E940D0DDC01CB019E838D835E
:100FD0008D819E819A83898389819A810197F1F716
:100FE0009A838983CA5BDF4F0FB6F894DEBF0FBECA
:100FF000CDBFCF91DF911F910F910895DF93CF93D4
:1010000000D000D0CDB7DEB79C838B838B819C81D1
:10101000009799F41A8219820BC089819A81FC0188
:10102000E050FF4F108289819A8101969A838983CB
:1010300089819A818930910584F30F900F900F90E8
:101040000F90CF91DF9108951F920F920FB60F92DC
:1010500000905B000F9211242F933F934F935F9367
:101060006F937F938F939F93AF93BF93EF93FF9370
:10107000DF93CF93CDB7DEB76197DEBFCDBFECE294
:10108000F0E080818F878091990190919A01998BEE
:10109000888B8889998982309105A1F088899989FE
:1010A00083309105C9F08889998981309105E9F4E7
:1010B0008091930190919401019690939401809373
:1010C000930113C0809195019091960101969093A0
:1010D00096018093950109C08091970190919801A4
:1010E0000196909398018093970180918B01909144
:1010F0008C018130910591F48091890190918A0150
:10110000FC01E050FF4F8F85808380918901909191
:101110008A01019690938A01809389018F858F3F80
:1011200031F481E090E09093900180938F018F855E
:10113000893D39F481E090E0909392018093910190
:1011400097C08F85863709F08FC08091910190916B
:1011500092018130910509F087C0109290011092A0
:101160008F0110929201109291018AE090E00E940A
:10117000FC1280E090E0A8ECB2E48B879C87AD87FE
:10118000BE876B857C858D859E8520E030E04AE7B3
:1011900055E40E94E30EDC01CB018F839887A98779
:1011A000BA876F81788589859A8520E030E040E8AC
:1011B0005FE30E943D1088232CF481E090E09E8341
:1011C0008D833FC06F81788589859A8520E03FEFC8
:1011D0004FE757E40E94DD0F18164CF56B857C85B0
:1011E0008D859E8520E030E040E251E40E94E30ED0
:1011F000DC01CB01BC01CD010E940D0DDC01CB0156
:101200009E838D830FC080E991E09C838B838B81CB
:101210009C810197F1F79C838B838D819E8101973F
:101220009E838D838D819E81009769F714C06F81A5
:10123000788589859A850E940D0DDC01CB019E83FE
:101240008D838D819E819A83898389819A8101977B
:10125000F1F79A83898380E090E00E94FE07E7E53A
:10126000F0E084E0808304C010929201109291011A
:1012700080918D0190918E018130910559F480917A
:101280008F01909190018130910521F4ECE9F0E01B
:101290008F8580836196DEBFCDBFCF91DF91FF91B7
:1012A000EF91BF91AF919F918F917F916F915F91DE
:1012B0004F913F912F910F9000925B000F900FBEC6
:1012C0000F901F9018951F920F920FB60F920090DB
:1012D0005B000F9211242F933F934F935F936F9373
:1012E0007F938F939F93AF93BF93EF93FF93DF937E
:1012F000CF9300D00F92CDB7DEB7ECE9F0E080815C
:1013000089838981282F30E03B832A838A819B81CE
:101310008336910531F02A813B812436310551F025
:1013200048C0E7E5F0E01082E6E2F0E010820E94BB
:101330002A023FC0209193013091940100D000D047
:10134000EDB7FEB731968BE191E0918380833383D3
:1013500022830E94EA120F900F900F900F9020911D
:1013600095013091960100D000D0EDB7FEB73196CF
:101370008AE291E091838083338322830E94EA1280
:101380000F900F900F900F9020919701309198013E
:1013900000D000D0EDB7FEB7319689E391E091839C
:1013A0008083338322830E94EA120F900F900F9064
:1013B0000F900F900F900F90CF91DF91FF91EF91D1
:1013C000BF91AF919F918F917F916F915F914F915D
:1013D0003F912F910F9000925B000F900FBE0F90E6
:1013E0001F9018950F931F93DF93CF93CDB7DEB760
:1013F000C654D0400FB6F894DEBF0FBECDBF0E94DA
:101400009C010E9480058DE491E00E94031380916D
:10141000930190919401833091050CF488C0FE01F2
:10142000ED5BFF4F80E090E0A4E3B2E48083918322
:10143000A283B3838E01015C1F4FFE01ED5BFF4F62
:10144000608171818281938120E030E04AE755E438
:101450000E94E30EDC01CB01F80180839183A2831B
:10146000B383FE01FF96608171818281938120E0C8
:1014700030E040E85FE30E943D1088232CF481E0D7
:1014800090E09EAF8DAF46C0FE01FF9660817181F6
:101490008281938120E03FEF4FE757E40E94DD0F08
:1014A000181664F5FE01ED5BFF4F6081718182814A
:1014B000938120E030E040E251E40E94E30EDC0141
:1014C000CB01BC01CD010E940D0DDC01CB019EAF13
:1014D0008DAF0FC080E991E09CAF8BAF8BAD9CAD21
:1014E0000197F1F79CAF8BAF8DAD9EAD01979EAF8D
:1014F0008DAF8DAD9EAD009769F716C0FE01FF96CA
:1015000060817181828193810E940D0DDC01CB018C
:101510009EAF8DAF8DAD9EAD9AAF89AF89AD9AADBF
:101520000197F1F79AAF89AF0E94B90470CF80910B
:101530009501909196018530910519F40E94E1047E
:1015400066CF80919701909198018930910509F0BB
:1015500079C0109298011092970180E090E0A8E481
:10156000B2E48DAB9EABAFABB8AF6DA97EA98FA92E
:1015700098AD20E030E04AE755E40E94E30EDC013C
:10158000CB0189AB9AABABABBCAB69A97AA98BA9F0
:101590009CA920E030E040E85FE30E943D108823F2
:1015A0002CF481E090E098AB8FA73FC069A97AA99D
:1015B0008BA99CA920E03FEF4FE757E40E94DD0F85
:1015C00018164CF56DA97EA98FA998AD20E030E0E2
:1015D00040E251E40E94E30EDC01CB01BC01CD01ED
:1015E0000E940D0DDC01CB0198AB8FA70FC080E9E5
:1015F00091E09EA78DA78DA59EA50197F1F79EA7C7
:101600008DA78FA598A9019798AB8FA78FA598A9AB
:10161000009769F714C069A97AA98BA99CA90E94AF
:101620000D0DDC01CB0198AB8FA78FA598A99CA7C6
:101630008BA78BA59CA50197F1F79CA78BA70E9470
:101640000B05E5CE80917E0190917F01F1E08D3216
:101650009F075CF0ABE3B0E0EBE3F0E080818160FA
:101660008C9381E0809386010EC080918601813049
:1016700051F4ABE3B0E0EBE3F0E0908181E0892747
:101680008C9310928601809180019091810121E0DC
:101690008D3292075CF0ABE3B0E0EBE3F0E08081E9
:1016A00082608C9381E0809387010EC080918701D6
:1016B000813051F4ABE3B0E0EBE3F0E0908182E005
:1016C00089278C93109287018091820190918301E8
:1016D000E1E0853F9E075CF0ABE3B0E0EBE3F0E0D8
:1016E000808183608C9381E0809388010EC080911B
:1016F0008801813051F4ABE3B0E0EBE3F0E090819E
:1017000083E089278C9310928801E6E3F0E08081E2
:10171000813009F07AC080E090E0AAE7B4E48FA3BA
:1017200098A7A9A7BAA76FA178A589A59AA520E02F
:1017300030E04AE755E40E94E30EDC01CB018BA3C5
:101740009CA3ADA3BEA36BA17CA18DA19EA120E013
:1017500030E040E85FE30E943D1088232CF481E0F4
:1017600090E09AA389A33FC06BA17CA18DA19EA10B
:1017700020E03FEF4FE757E40E94DD0F18164CF5CD
:101780006FA178A589A59AA520E030E040E251E458
:101790000E94E30EDC01CB01BC01CD010E940D0DC6
:1017A000DC01CB019AA389A30FC080E991E098A343
:1017B0008F8F8F8D98A10197F1F798A38F8F89A1B3
:1017C0009AA101979AA389A389A19AA1009769F781
:1017D00014C06BA17CA18DA19EA10E940D0DDC0106
:1017E000CB019AA389A389A19AA19E8F8D8F8D8DFC
:1017F0009E8D0197F1F79E8F8D8FE7E5F0E01082C7
:10180000E6E2F0E010820E942A02E6E3F0E0808146
:10181000823009F07DC080E090E0AAE7B4E4898FCF
:101820009A8FAB8FBC8F698D7A8D8B8D9C8D20E0CC
:1018300030E04AE755E40E94E30EDC01CB018D8BDA
:101840009E8BAF8BB88F6D897E898F89988D20E0B4
:1018500030E040E85FE30E943D1088232CF481E0F3
:1018600090E09C8B8B8B3FC06D897E898F89988D92
:1018700020E03FEF4FE757E40E94DD0F18164CF5CC
:10188000698D7A8D8B8D9C8D20E030E040E251E4B3
:101890000E94E30EDC01CB01BC01CD010E940D0DC5
:1018A000DC01CB019C8B8B8B0FC080E991E09A8B84
:1018B000898B89899A890197F1F79A8B898B8B8912
:1018C0009C8901979C8B8B8B8B899C89009769F7EE
:1018D00014C06D897E898F89988D0E940D0DDC0161
:1018E000CB019C8B8B8B8B899C89988B8F878F8569
:1018F00098890197F1F7988B8F878CE691E00E9489
:101900000313A1E6B0E0E1E6F0E0808188608C930B
:10191000E6E3F0E08081843009F079CD80E090E06A
:10192000AAE7B4E48B879C87AD87BE876B857C85EF
:101930008D859E8520E030E04AE755E40E94E30E65
:10194000DC01CB018F839887A987BA876F8178855F
:1019500089859A8520E030E040E85FE30E943D10F1
:1019600088232CF481E090E09E838D833FC06F81BB
:10197000788589859A8520E03FEF4FE757E40E94FC
:10198000DD0F18164CF56B857C858D859E8520E0D6
:1019900030E040E251E40E94E30EDC01CB01BC01E7
:1019A000CD010E940D0DDC01CB019E838D830FC004
:1019B00080E991E09C838B838B819C810197F1F777
:1019C0009C838B838D819E8101979E838D838D81E6
:1019D0009E81009769F714C06F81788589859A8503
:1019E0000E940D0DDC01CB019E838D838D819E8134
:1019F0009A83898389819A810197F1F79A838983F0
:101A00008EE691E00E940313A1E6B0E0E1E6F0E08B
:101A1000908188E089278C93FACCEF92FF920F9304
:101A20001F937B018C0120E030E040E05FE40E94E6
:101A30000D1088238CF0C801B70120E030E040E0B1
:101A40005FE40E94850E0E946D109B01AC01205046
:101A500030404040504806C0C801B7010E946D1098
:101A60009B01AC01B901CA011F910F91FF90EF904A
:101A70000895A0E0B0E0EFE3FDE00C946712DC0114
:101A80002B01FA019C91923008F439C1EB01888155
:101A9000823008F433C1943069F4843009F02FC1E6
:101AA00011969C9111978981981709F428C1A0E794
:101AB000B1E025C1843009F421C18230A9F492300B
:101AC00009F01DC19A01AD0188E0EA010990AE015B
:101AD000E90109929E018150C1F7E20189811196C5
:101AE0009C918923818308C1923009F407C1129621
:101AF0002D903C901397EB018A819B811496AD90B9
:101B0000BD90CD90DC901797EC80FD800E811F81F9
:101B10009101281B390BB90137FF04C066277727CD
:101B2000621B730B603271050CF061C01216130654
:101B30006CF537014801062E04C09694879477947B
:101B400067940A94D2F721E030E040E050E004C00E
:101B5000220F331F441F551F6A95D2F72150304082
:101B6000404050402E213F21402351232115310573
:101B70004105510521F021E030E040E050E07901DD
:101B80008A01E628F728082919293CC0232BD1F11E
:101B9000260E371E35014601062E04C09694879402
:101BA000779467940A94D2F721E030E040E050E067
:101BB00004C0220F331F441F551F6A95D2F72150CE
:101BC0003040404050402A213B214C215D212115CD
:101BD00031054105510521F021E030E040E050E0C1
:101BE00059016A01A628B728C828D9280BC0821530
:101BF00093052CF01C01AA24BB24650103C0EE242C
:101C0000FF24870111969C91D20111968C9198170F
:101C100009F445C0992339F0A80197012A193B0915
:101C20004C095D0906C0A60195012E193F09400B1C
:101C3000510B57FD08C011823382228224833583E1
:101C4000468357831DC081E08183338222828827A7
:101C50009927DC01821B930BA40BB50B848395831E
:101C6000A683B7830DC0220F331F441F551F248343
:101C7000358346835783828193810197938382833F
:101C80002481358146815781DA01C9010197A10973
:101C9000B1098F5F9F4FAF4FBF4328F30BC09183B4
:101CA00033822282EA0CFB1C0C1D1D1DE482F5828E
:101CB0000683178383E080832481358146815781A1
:101CC00057FF1AC0C901AA2797FDA095BA2F8170A6
:101CD0009070A070B0705695479537952795822BD8
:101CE000932BA42BB52B84839583A683B783828102
:101CF0009381019693838283DF0101C0D201CD01DC
:101D0000CDB7DEB7E2E10C948312A0E2B0E0EBE8DD
:101D1000FEE00C94731269837A838B839C832D83FA
:101D20003E834F835887E9E0EE2EF12CEC0EFD1E2A
:101D3000CE010196B7010E9496118E010F5E1F4FD2
:101D4000CE010596B8010E9496118A8991E08927F3
:101D50008A8BC701B801AE01475E5F4F0E94390D03
:101D60000E94C110A096E6E00C948F12A0E2B0E0B1
:101D7000ECEBFEE00C94731269837A838B839C8373
:101D80002D833E834F835887F9E0EF2EF12CEC0E24
:101D9000FD1ECE010196B7010E9496118E010F5EC5
:101DA0001F4FCE010596B8010E949611C701B801D8
:101DB000AE01475E5F4F0E94390D0E94C110A09690
:101DC000E6E00C948F12A0E2B0E0E9EEFEE00C94A5
:101DD000671269837A838B839C832D833E834F8331
:101DE0005887CE010196BE01675F7F4F0E94961112
:101DF000CE010596BE016F5E7F4F0E9496119985B8
:101E0000923088F089898230C8F0943019F4823099
:101E100051F404C0843029F4923081F480E791E0D9
:101E2000C6C0923049F420E09A858A89981321E04F
:101E30002A87CE010996BBC0823049F420E09A85FA
:101E40008A89981321E02A8BCE014196B0C02D8457
:101E50003E844F8458886D887E888F88988CEE24C5
:101E6000FF248701AA24BB24650140E050E060E024
:101E700070E0E0E0F0E0C10181709070892BE9F042
:101E8000E60CF71C081D191D9A01AB012A0D3B1D1C
:101E90004C1D5D1D80E090E0A0E0B0E0E614F7048A
:101EA0000805190520F481E090E0A0E0B0E0BA0157
:101EB000A901480F591F6A1F7B1FAA0CBB1CCC1C11
:101EC000DD1C97FE08C081E090E0A0E0B0E0A82A09
:101ED000B92ACA2ADB2A3196E032F10549F0660CAC
:101EE000771C881C991C5694479437942794C3CF29
:101EF000FA85EA892B893C898B859C85280F391FB7
:101F00002E5F3F4F17C0CA0181709070892B61F01E
:101F100016950795F794E79480E090E0A0E0B0E88C
:101F2000E82AF92A0A2B1B2B769567955795479532
:101F30002F5F3F4F77FDE7CF0CC0440F551F661F43
:101F4000771F17FD4160EE0CFF1C001F111F215071
:101F50003040403090E0590790E0690790E47907FD
:101F600060F32B8F3C8FDB01CA018F779070A070DC
:101F7000B07080349105A105B10561F447FD0AC038
:101F8000E114F1040105110529F0405C5F4F6F4F2A
:101F90007F4F40781A8EFE1711F081E08A8F4D8FA7
:101FA0005E8F6F8F78A383E0898FCE0149960E9460
:101FB000C110A096E2E10C948312A8E1B0E0E3EE38
:101FC000FFE00C94731269837A838B839C832D8347
:101FD0003E834F83588789E0E82EF12CEC0EFD1EDE
:101FE000CE010196B7010E9496118E010F5E1F4F20
:101FF000CE010596B8010E9496118985823040F085
:102000008989823028F0C701B8010E940E1201C0F0
:102010008FEF6896E6E00C948F12A8E1B0E0E3E160
:10202000F0E10C94731269837A838B839C832D83F4
:102030003E834F83588789E0E82EF12CEC0EFD1E7D
:10204000CE010196B7010E9496118E010F5E1F4FBF
:10205000CE010596B8010E9496118985823040F024
:102060008989823028F0C701B8010E940E1201C090
:102070008FEF6896E6E00C948F12A8E1B0E0E3E4FD
:10208000F0E10C94731269837A838B839C832D8394
:102090003E834F83588789E0E82EF12CEC0EFD1E1D
:1020A000CE010196B7010E9496118E010F5E1F4F5F
:1020B000CE010596B8010E9496118985823040F0C4
:1020C0008989823028F0C701B8010E940E1201C030
:1020D00081E06896E6E00C948F12ACE0B0E0E3E7B4
:1020E000F0E10C94771269837A838B839C83CE0111
:1020F0000196BE016B5F7F4F0E9496118D818230E9
:1021000061F1823050F1843021F48E81882351F1C5
:102110002EC02F81388537FD20C06E812F313105CB
:102120001CF06623F9F023C08EE190E0821B930B34
:1021300029853A854B855C8504C05695479537952A
:1021400027958A95D2F76623B1F050954095309542
:1021500021953F4F4F4F5F4F0EC020E030E040E0F1
:1021600050E009C02FEF3FEF4FEF5FE704C020E0E2
:1021700030E040E050E8B901CA012C96E2E00C944E
:102180009312DF92EF92FF920F931F93FC01E48072
:10219000F58006811781D1808081823048F480E00B
:1021A00090E0A0E1B0E0E82AF92A0A2B1B2BA5C099
:1021B000843009F49FC0823021F4EE24FF2487018B
:1021C00005C0E114F1040105110519F4E0E0F0E0A7
:1021D00096C0628173819FEF623879070CF05BC013
:1021E00022E83FEF261B370B2A3131052CF020E087
:1021F00030E040E050E02AC0B801A701022E04C040
:1022000076956795579547950A94D2F781E090E0C7
:10221000A0E0B0E004C0880F991FAA1FBB1F2A9539
:10222000D2F70197A109B1098E219F21A023B123E3
:102230000097A105B10521F081E090E0A0E0B0E0B9
:102240009A01AB01282B392B4A2B5B2BDA01C901F0
:102250008F779070A070B07080349105A105B105A2
:1022600039F427FF09C0205C3F4F4F4F5F4F04C038
:10227000215C3F4F4F4F5F4FE0E0F0E02030A0E0A7
:102280003A07A0E04A07A0E45A0710F0E1E0F0E0C6
:1022900079018A0127C06038710564F5FB01E158B6
:1022A000FF4FD801C7018F779070A070B070803455
:1022B0009105A105B10539F4E7FE0DC080E490E079
:1022C000A0E0B0E004C08FE390E0A0E0B0E0E80E52
:1022D000F91E0A1F1B1F17FF05C016950795F794D7
:1022E000E794319687E016950795F794E7948A95D9
:1022F000D1F705C0EE24FF248701EFEFF0E06E2F49
:10230000679566276795902F9F77D794DD24D7949C
:102310008E2F8695492F462B582F5D29B701CA016C
:102320001F910F91FF90EF90DF900895FC01DB016A
:10233000408151812281622F6F7770E0221F222716
:10234000221F9381892F880F822B282F30E0991F1D
:102350009927991F11969C93119721153105A9F57D
:10236000411551056105710511F482E037C082E81D
:102370009FEF13969C938E9312979A01AB0167E09F
:10238000220F331F441F551F6A95D1F783E08C93AA
:102390000DC0220F331F441F551F12968D919C9123
:1023A0001397019713969C938E931297203080E099
:1023B000380780E0480780E4580758F314962D93B7
:1023C0003D934D935C93179708952F3F310579F412
:1023D000411551056105710519F484E08C93089548
:1023E00064FF03C081E08C9312C01C9210C02F5771
:1023F000304013963C932E93129783E08C9387E0A2
:10240000440F551F661F771F8A95D1F77064149685
:102410004D935D936D937C93179708951F93DC0103
:10242000FB019C91923008F447C08081823008F40F
:1024300043C0943051F411961C91843099F58181F8
:10244000682F70E0611B71093FC0843021F0923029
:1024500031F48230B9F18181882389F12DC0119640
:102460001C9111978230F1F081811817D9F41296DE
:102470002D913C911397828193818217930794F059
:1024800028173907BCF014968D919D910D90BC9141
:10249000A02D2481358146815781281739074A07A5
:1024A0005B0718F4112341F00AC082179307A407B1
:1024B000B50740F4112319F061E070E005C06FEF3B
:1024C0007FEF02C060E070E0CB011F9108952F9272
:1024D0003F924F925F926F927F928F929F92AF92B4
:1024E000BF92CF92DF92EF92FF920F931F93CF9301
:1024F000DF93CDB7DEB7CA1BDB0B0FB6F894DEBF98
:102500000FBECDBF09942A88398848885F846E84BD
:102510007D848C849B84AA84B984C884DF80EE8007
:10252000FD800C811B81AA81B981CE0FD11D0FB610
:10253000F894DEBF0FBECDBFED0108950F931F933A
:10254000CF93DF938C01EB01009731F46115710596
:1025500019F420E030E038C081E090E06EE070E0F7
:102560000E943E15FC019C01009771F180E8838375
:10257000209771F0D387C28781E8838380919B0184
:1025800090919C01892B21F4F0939C01E0939B0195
:1025900001151105C9F0118700878381826083834B
:1025A00080919D0190919E01892B71F4F0939E0181
:1025B000E0939D0180919F019091A001892B21F4CE
:1025C000F093A001E0939F01C901DF91CF911F918A
:1025D0000F910895DF93CF93CDB7DEB7FE01359607
:1025E0006191719180919D0190919E01AF010E9436
:1025F0003813CF91DF91089560919D0170919E01F4
:102600000E947C1608950F931F93CF93DF938C0144
:10261000E0919D01F0919E01838181FF21C0C0E086
:10262000D0E00DC0E0919D01F0919E0120853185A3
:10263000BF01F9010995892B11F0CFEFDFEFF80108
:1026400081918F01882371F7E0919D01F0919E01A6
:10265000208531858AE0BF01F9010995892B11F0A8
:10266000CFEFDFEFCE01DF91CF911F910F91089552
:102670002F923F924F925F926F927F928F929F9292
:10268000AF92BF92CF92DF92EF92FF920F931F9380
:10269000DF93CF93CDB7DEB72B970FB6F894DEBF9D
:1026A0000FBECDBF3C012B015A01FC0117821682DF
:1026B000838181FD03C06FEF7FEFC6C19AE0892E51
:1026C0001E010894211C311CF3012381F20123FD1A
:1026D000859123FF81912F01882309F4B2C18532AE
:1026E00039F423FD859123FF81912F01853229F44F
:1026F00090E0B3010E947C16E7CF982FFF24EE24D0
:102700009924FFE1FF15D0F09B3269F09C3228F448
:10271000903259F0933291F40EC09D3249F09033CB
:1027200069F441E024C052E0F52A84E0F82A28C088
:1027300098E0F92A25C0E0E1FE2A22C0F7FC29C072
:10274000892F80538A3070F4F6FE05C0989C902C37
:102750001124980E15C0E89CE02C1124E80EF0E23C
:10276000FF2A0EC09E3229F4F6FC6BC140E4F42A25
:1027700007C09C3619F450E8F52A02C0983649F48F
:10278000F20123FD959123FF91912F01992309F0E7
:10279000B8CF892F8554833018F08052833038F4B5
:1027A00044E050E0A40EB51E5FE359830FC093369A
:1027B00031F0933779F0933509F056C020C0F50118
:1027C0008081898342E050E0A40EB51E610101E0E2
:1027D00010E012C0F501C080D180F6FC03C06FEF9D
:1027E0007FEF02C0692D70E042E050E0A40EB51EFC
:1027F000C6010E9471168C015FE7F52214C0F50135
:10280000C080D180F6FC03C06FEF7FEF02C0692D5E
:1028100070E042E050E0A40EB51EC6010E945F16B3
:102820008C0150E8F52AF3FE07C01AC080E290E060
:10283000B3010E947C16EA948E2D90E008171907C8
:10284000A8F30EC0F601F7FC8591F7FE81916F01A8
:1028500090E0B3010E947C16E110EA940150104010
:102860000115110579F7EAC0943611F0993669F52A
:10287000F7FE08C0F501208131814281538184E057
:1028800090E00AC0F501808191819C01442737FDC9
:102890004095542F82E090E0A80EB91E9FE6F922E1
:1028A00057FF09C050954095309521953F4F4F4FA8
:1028B0005F4FE0E8FE2ACA01B901A1012AE030E039
:1028C0000E94A816D82ED21840C0953729F41F2D83
:1028D0001F7E2AE030E01DC01F2D197F9F3661F05A
:1028E000903720F4983509F0ACC00FC0903739F01C
:1028F000983709F0A6C004C028E030E00AC0106193
:1029000014FD146020E130E004C014FD166020E1E5
:1029100032E017FF08C0F5016081718182819381E7
:1029200044E050E008C0F50180819181BC0180E065
:1029300090E042E050E0A40EB51EA1010E94A8164E
:10294000D82ED2188FE7F82EF122F6FE0BC05EEFDC
:10295000F522D91438F4F4FE07C0F2FC05C08FEE5E
:10296000F82202C01D2D01C0192DF4FE0DC0FE017C
:10297000ED0DF11D8081803319F499EEF92208C024
:102980001F5FF2FE05C003C08F2D867809F01F5F20
:102990000F2DF3FC14C0F0FE0FC01E1510F09D2C7F
:1029A0000BC09D2C9E0C911A1E2D06C080E290E05B
:1029B000B3010E947C161F5F1E15C0F304C01E15D4
:1029C00010F4E11A01C0EE2404FF0FC080E390E090
:1029D000B3010E947C1602FF1DC001FD03C088E701
:1029E00090E00EC088E590E00BC0802F867891F0D3
:1029F00001FF02C08BE201C080E2F7FC8DE290E0B3
:102A0000B3010E947C1606C080E390E0B3010E94EF
:102A10007C169A94D914C0F3DA94F101ED0DF11DEE
:102A2000808190E0B3010E947C16DD20A9F706C0EA
:102A300080E290E0B3010E947C16EA94EE20C1F798
:102A400043CEF30166817781CB012B960FB6F894C4
:102A5000DEBF0FBECDBFCF91DF911F910F91FF90D1
:102A6000EF90DF90CF90BF90AF909F908F907F902E
:102A70006F905F904F903F902F9008950F931F930A
:102A8000CF93DF93689F8001699F100D789F100D91
:102A90001124C8010E945A15EC01009729F060E04A
:102AA00070E0A8010E946A16CE01DF91CF911F91BC
:102AB0000F910895CF93DF93BC018230910510F4FC
:102AC00062E070E0A091A301B091A401ED01E0E00B
:102AD000F0E040E050E021C0888199818617970797
:102AE00069F48A819B81309719F09383828304C0B3
:102AF0009093A4018093A301FE0134C06817790765
:102B000038F44115510519F08417950708F4AC0104
:102B1000FE018A819B819C01E9012097E9F641151C
:102B20005105A9F1CA01861B970B049708F4BA0155
:102B3000E0E0F0E02AC08D919C91119784179507F1
:102B4000F9F46417750781F412968D919C9113978F
:102B5000309719F09383828304C09093A4018093EB
:102B6000A301FD0132964FC0CA01861B970BFD01E0
:102B7000E80FF91F6193719302978D939C9343C063
:102B8000FD01828193819C01D9011097A1F680916A
:102B9000A1019091A201892B41F480917A01909139
:102BA0007B019093A2018093A10140917C015091FF
:102BB0007D014115510541F44DB75EB78091780113
:102BC00090917901481B590B2091A1013091A201EC
:102BD00024173507B0F4CA01821B930B8617970799
:102BE00080F0AB014E5F5F4F8417950750F0420FA6
:102BF000531F5093A2014093A101F9016193719376
:102C000002C0E0E0F0E0CF01DF91CF910895CF93D3
:102C1000DF93009709F450C0EC0122971B821A82BF
:102C2000A091A301B091A401109709F140E050E0F8
:102C3000AC17BD0708F1BB83AA83FE012191319136
:102C4000E20FF31FAE17BF0779F48D919C91119796
:102C5000280F391F2E5F3F4F3983288312968D919D
:102C60009C9113979B838A834115510571F4D093EE
:102C7000A401C093A30120C012968D919C9113973B
:102C8000AD01009711F0DC01D3CFFA01D383C283E9
:102C900021913191E20FF31FCE17DF0769F488818C
:102CA0009981280F391F2E5F3F4FFA01318320830E
:102CB0008A819B8193838283DF91CF910895FC0168
:102CC0000590615070400110D8F7809590958E0F57
:102CD0009F1F0895DC0101C06D9341505040E0F703
:102CE0000895FC016150704001900110D8F7809563
:102CF00090958E0F9F1F08950F931F93CF93DF938F
:102D00008C01EB018B8181FF1BC082FF0DC02E81E6
:102D10003F818C819D812817390764F4E881F9810E
:102D20000193F983E88306C0E885F985802F09952A
:102D3000892B31F48E819F8101969F838E8302C0FF
:102D40000FEF1FEFC801DF91CF911F910F910895F1
:102D5000FA01AA27283051F1203181F1E8946F93CC
:102D60006E7F6E5F7F4F8F4F9F4FAF4FB1E03ED072
:102D7000B4E03CD0670F781F891F9A1FA11D680F10
:102D8000791F8A1F911DA11D6A0F711D811D911D43
:102D9000A11D20D009F468943F912AE0269F1124B8
:102DA0003019305D3193DEF6CF010895462F47701C
:102DB000405D4193B3E00FD0C9F7F6CF462F4F7077
:102DC000405D4A3318F0495D31FD4052419302D0D5
:102DD000A9F7EACFB4E0A69597958795779567957B
:102DE000BA95C9F700976105710508959B01AC017B
:102DF0000A2E06945795479537952795BA95C9F7A2
:102E0000620F731F841F951FA01D0895F894FFCFB4
:102E10000000000000000000000D0A206368616EE1
:102E20006720626F7564726174650069646C652007
:102E3000636E74203A2025640A0073686F745F63C0
:102E40006E74203A2025640A0063616C6C5F7369BC
:102E50007A655F636E74203A2025640A000D0A0DBE
:102E60000A436F6E6E6563742077697468204972D7
:102E70006F6E4D616E5F537569740D0031003000E7
:0E2E800000000000000000002000A50100007E
:00000001FF
